:020000040000fa
:080000000002040000000000f2
:020000040000fa
:04000800fa020000f8
:020000040000fa
:04000c000c030000e1
:020000040000fa
:040010001c030000cd
:020000040000fa
:0400140002030000e3
:020000040000fa
:0400180014030000cd
:020000040000fa
:04001c002c030000b1
:020000040000fa
:0400200024030000b5
:020000040000fa
:040024002c030000a9
:020000040000fa
:040028002c030000a5
:020000040000fa
:04002c002c030000a1
:020000040000fa
:040030002c0300009d
:020000040000fa
:040034002c03000099
:020000040000fa
:040038002c03000095
:020000040000fa
:04003c002c03000091
:020000040000fa
:040040002c0300008d
:020000040000fa
:040044002c03000089
:020000040000fa
:040048002c03000085
:020000040000fa
:04004c002c03000081
:020000040000fa
:040050002c0300007d
:020000040000fa
:040054002c03000079
:020000040000fa
:040058002c03000075
:020000040000fa
:04005c002c03000071
:020000040000fa
:040060002c0300006d
:020000040000fa
:040064002c03000069
:020000040000fa
:040068002c03000065
:020000040000fa
:04006c002c03000061
:020000040000fa
:040070002c0300005d
:020000040000fa
:040074002c03000059
:020000040000fa
:040078002c03000055
:020000040000fa
:04007c002c03000051
:020000040000fa
:040080002c0300004d
:020000040000fa
:040084002c03000049
:020000040000fa
:040088002c03000045
:020000040000fa
:04008c002c03000041
:020000040000fa
:040090002c0300003d
:020000040000fa
:040094002c03000039
:020000040000fa
:040098002c03000035
:020000040000fa
:04009c002c03000031
:020000040000fa
:0400a0002c0300002d
:020000040000fa
:0400a4002c03000029
:020000040000fa
:0400a8002c03000025
:020000040000fa
:0400ac002c03000021
:020000040000fa
:0400b0002c0300001d
:020000040000fa
:0400b4002c03000019
:020000040000fa
:0400b8002c03000015
:020000040000fa
:0400bc002c03000011
:020000040000fa
:0400c0002c0300000d
:020000040000fa
:0400c4002c03000009
:020000040000fa
:0400c8002c03000005
:020000040000fa
:0400cc002c03000001
:020000040000fa
:0400d0002c030000fd
:020000040000fa
:0400d4002c030000f9
:020000040000fa
:0400d8002c030000f5
:020000040000fa
:0400dc002c030000f1
:020000040000fa
:0400e0002c030000ed
:020000040000fa
:0400e4002c030000e9
:020000040000fa
:0400e8002c030000e5
:020000040000fa
:0400ec002c030000e1
:020000040000fa
:0400f0002c030000dd
:020000040000fa
:0400f4002c030000d9
:020000040000fa
:0400f8002c030000d5
:020000040000fa
:0400fc002c030000d1
:020000040000fa
:040100002c030000cc
:020000040000fa
:040104002c030000c8
:020000040000fa
:040108002c030000c4
:020000040000fa
:04010c002c030000c0
:020000040000fa
:040110002c030000bc
:020000040000fa
:040114002c030000b8
:020000040000fa
:040118002c030000b4
:020000040000fa
:04011c002c030000b0
:020000040000fa
:040120002c030000ac
:020000040000fa
:040124002c030000a8
:020000040000fa
:040128002c030000a4
:020000040000fa
:04012c002c030000a0
:020000040000fa
:040130002c0300009c
:020000040000fa
:040134002c03000098
:020000040000fa
:040138002c03000094
:020000040000fa
:04013c002c03000090
:020000040000fa
:040140002c0300008c
:020000040000fa
:040144002c03000088
:020000040000fa
:040148002c03000084
:020000040000fa
:04014c002c03000080
:020000040000fa
:040150002c0300007c
:020000040000fa
:040154002c03000078
:020000040000fa
:040158002c03000074
:020000040000fa
:04015c002c03000070
:020000040000fa
:040160002c0300006c
:020000040000fa
:040164002c03000068
:020000040000fa
:040168002c03000064
:020000040000fa
:04016c002c03000060
:020000040000fa
:040170002c0300005c
:020000040000fa
:040174002c03000058
:020000040000fa
:040178002c03000054
:020000040000fa
:04017c002c03000050
:020000040000fa
:040180002c0300004c
:020000040000fa
:040184002c03000048
:020000040000fa
:040188002c03000044
:020000040000fa
:04018c002c03000040
:020000040000fa
:040190002c0300003c
:020000040000fa
:040194002c03000038
:020000040000fa
:040198002c03000034
:020000040000fa
:04019c002c03000030
:020000040000fa
:0401a0002c0300002c
:020000040000fa
:0401a4002c03000028
:020000040000fa
:0401a8002c03000024
:020000040000fa
:0401ac002c03000020
:020000040000fa
:0401b0002c0300001c
:020000040000fa
:0401b4002c03000018
:020000040000fa
:0401b8002c03000014
:020000040000fa
:0401bc002c03000010
:020000040000fa
:0401c0002c0300000c
:020000040000fa
:0401c4002c03000008
:020000040000fa
:0401c8002c03000004
:020000040000fa
:0401cc002c03000000
:020000040000fa
:0401d0002c030000fc
:020000040000fa
:0401d4002c030000f8
:020000040000fa
:0401d8002c030000f4
:020000040000fa
:0401dc002c030000f0
:020000040000fa
:0401e0002c030000ec
:020000040000fa
:0401e4002c030000e8
:020000040000fa
:0401e8002c030000e4
:020000040000fa
:0401ec002c030000e0
:020000040000fa
:0401f0002c030000dc
:020000040000fa
:0401f4002c030000d8
:020000040000fa
:0401f8002c030000d4
:020000040000fa
:0401fc002c030000d0
:020000040000fa
:040200002c030000cb
:020000040000fa
:040204002c030000c7
:020000040000fa
:040208002c030000c3
:020000040000fa
:04020c002c030000bf
:020000040000fa
:040210002c030000bb
:020000040000fa
:040214002c030000b7
:020000040000fa
:040218002c030000b3
:020000040000fa
:04021c002c030000af
:020000040000fa
:040220002c030000ab
:020000040000fa
:040224002c030000a7
:020000040000fa
:040228002c030000a3
:020000040000fa
:04022c002c0300009f
:020000040000fa
:040230002c0300009b
:020000040000fa
:040234002c03000097
:020000040000fa
:040238002c03000093
:020000040000fa
:04023c002c0300008f
:020000040000fa
:040240002c0300008b
:020000040000fa
:040244002c03000087
:020000040000fa
:040248002c03000083
:020000040000fa
:04024c002c0300007f
:020000040000fa
:040250002c0300007b
:020000040000fa
:040254002c03000077
:020000040000fa
:040258002c03000073
:020000040000fa
:04025c002c0300006f
:020000040000fa
:040260002c0300006b
:020000040000fa
:040264002c03000067
:020000040000fa
:040268002c03000063
:020000040000fa
:04026c002c0300005f
:020000040000fa
:040270002c0300005b
:020000040000fa
:040274002c03000057
:020000040000fa
:040278002c03000053
:020000040000fa
:04027c002c0300004f
:020000040000fa
:040280002c0300004b
:020000040000fa
:040284002c03000047
:020000040000fa
:040288002c03000043
:020000040000fa
:04028c002c0300003f
:020000040000fa
:040290002c0300003b
:020000040000fa
:040294002c03000037
:020000040000fa
:040298002c03000033
:020000040000fa
:04029c002c0300002f
:020000040000fa
:0402a0002c0300002b
:020000040000fa
:0402a4002c03000027
:020000040000fa
:0402a8002c03000023
:020000040000fa
:0402ac002c0300001f
:020000040000fa
:0402b0002c0300001b
:020000040000fa
:0402b4002c03000017
:020000040000fa
:0402b8002c03000013
:020000040000fa
:0402bc002c0300000f
:020000040000fa
:0402c0002c0300000b
:020000040000fa
:0402c4002c03000007
:020000040000fa
:0402c8002c03000003
:020000040000fa
:0402cc002c030000ff
:020000040000fa
:0402d0002c030000fb
:020000040000fa
:0402d4002c030000f7
:020000040000fa
:0402d8002c030000f3
:020000040000fa
:0402dc002c030000ef
:020000040000fa
:0402e0002c030000eb
:020000040000fa
:0402e4002c030000e7
:020000040000fa
:0402e8002c030000e3
:020000040000fa
:0402ec002c030000df
:020000040000fa
:0402f0002c030000db
:020000040000fa
:0402f4002c030000d7
:020000040000fa
:0402f8002c030000d3
:020000040000fa
:0402fc002c030000cf
:020000040000fa
:040300002c030000ca
:020000040000fa
:040304002c030000c6
:020000040000fa
:040308002c030000c2
:020000040000fa
:04030c002c030000be
:020000040000fa
:040310002c030000ba
:020000040000fa
:040314002c030000b6
:020000040000fa
:040318002c030000b2
:020000040000fa
:04031c002c030000ae
:020000040000fa
:100400002f0221000eff21000e01880000000000d5
:10041000000020000000e000020032000001200087
:1004200020028800140007008d0007000000e00093
:1004300003003a0080d620000100200002003700af
:100440000000200001002000810f70000100320038
:100450000f000700000020000000e0000200320052
:1004600000000200000000003c0c02000000000040
:100470000040da000000fe00200020000000e00044
:1004800002003200100020009001880000000600e9
:10049000a1028800800478000000eb001f003700f4
:1004a000e284440054a0b4009905ba00e2844400f8
:1004b00054a0b4009906ba00e284440054a0b400e9
:1004c0000006eb00476fde00fd07b200ae018800ba
:1004d000636ce10003003a000ad801000000eb0061
:1004e0000e003700606ce10008003a00004deb00a0
:1004f0000a05e800020039003420ec000af0a000f0
:100500008b05e900f9ff3e00040037006168e10057
:10051000010032000086eb000b00070019c7ba008b
:100520001905ba000e04e00003003a000a00e000da
:10053000dbff3a0000000600fe07b200ae028800b2
:100540008a047800f5ff37000cd0a300e20f4d00bd
:100550001c00390089027800354dba000a05e80010
:10056000020039003420ec000af0a0008b05e900fd
:100570000f003200254dba000a05e80002003900dc
:100580003420ec000af0a0008b05e90008003200de
:100590000c00e0000600320015cdba000a05e800a4
:1005a000020039003420ec000af0a0008b05e900bd
:1005b0008984e80054a0b4000b00e000e2ff3a0098
:1005c000000006009902ba00055d78008b05e9007d
:1005d000f7ff3200c82ade00055d78008b05e900d0
:1005e000f3ff32000c00e000f1ff320019ddba0029
:1005f000eeff37003600f800c028a9000000eb002d
:10060000280507003600f8002a050700c048a900a1
:1006100010002000230507003600f800c068a9007c
:10062000200020001f0507003600f800c088a90040
:10063000300020001b0507003600f800c608a9009e
:1006400070002000170507003600f800c408a90054
:10065000b0002000130507000040da000000fe0093
:040660000000050091
:020000040000fa
:100664000000fa000023ef000223ef000423ef0050
:100674000623ef000823ef00000120005018880033
:100684000c23ef000e23ef001023ef001223ef00e2
:100694001423ef001623ef001823ef001a23ef00b2
:1006a4001c23ef001e23ef002023ef002223ef0082
:1006b4002423ef002623ef002823ef002c23ef0050
:1006c4006223ef009823ef00ce23ef000424ef0011
:1006d4003a24ef007024ef00a624ef002e23ef004d
:1006e4006423ef009a23ef00d023ef000624ef00e9
:1006f4003c24ef007224ef00a824ef003023ef0025
:100704006623ef009c23ef00d223ef000824ef00c0
:100714003e24ef007424ef00aa24ef00c000200060
:1007240090198800c0002000401b8800c0002000f1
:10073400f01c8800c0002000a01e8800c00020001b
:1007440050208800c000200000228800c000200043
:10075400b0238800c0002000602588003423ef0007
:100764006a23ef00a023ef00d623ef000c24ef0050
:100774004224ef007824ef00ae24ef003623ef008c
:100784006c23ef00a223ef00d823ef000e24ef0028
:100794004424ef007a24ef00b024ef003823ef0064
:1007a4006e23ef00a423ef00da23ef001024ef0000
:1007b4004624ef007c24ef00b224ef003a23ef003c
:1007c4007023ef00a623ef00dc23ef001224ef00d8
:1007d4004824ef007e24ef00b424ef003c23ef0014
:1007e4007223ef00a823ef00de23ef001424ef00b0
:1007f4004a24ef008024ef00b624ef003e23ef00ec
:100804007423ef00aa23ef00e023ef001624ef0087
:100814004c24ef008224ef00b824ef004023ef00c3
:100824007623ef00ac23ef00e223ef001824ef005f
:100834004e24ef008424ef00ba24ef004223ef009b
:100844007823ef00ae23ef00e423ef001a24ef0037
:100854005024ef008624ef00bc24ef004423ef0073
:100864007a23ef00b023ef00e623ef001c24ef000f
:100874005224ef008824ef00be24ef004623ef004b
:100884007c23ef00b223ef00e823ef001e24ef00e7
:100894005424ef008a24ef00c024ef004823ef0023
:1008a4007e23ef00b423ef00ea23ef002024ef00bf
:1008b4005624ef008c24ef00c224ef004a23ef00fb
:1008c4008023ef00b623ef00ec23ef002224ef0097
:1008d4005824ef008e24ef00c424ef004c23ef00d3
:1008e4008223ef00b823ef00ee23ef002424ef006f
:1008f4005a24ef009024ef00c624ef00f0ff2700f5
:10090400701a88008423ef00ba23ef00f023ef006d
:10091400f0ff2700302188005c24ef009224ef00d0
:10092400c824ef005023ef008623ef00bc23ef0020
:10093400f223ef002824ef005e24ef009424ef005c
:10094400ca24ef00f0092000901a8800000120005a
:10095400401c880000012000f01d880000012000d8
:10096400a01f8800f0092000502188000001200009
:100974000023880000012000b0248800000120002a
:10098400602688005423ef008a23ef00c023ef0081
:10099400f623ef002c24ef006224ef009824ef00ec
:1009a400ce24ef005623ef008c23ef00c223ef0088
:1009b400f823ef002e24ef006424ef009a24ef00c4
:1009c400d024ef005823ef008e23ef00c423ef0060
:1009d400fa23ef003024ef006624ef009c24ef009c
:1009e400d224ef005a23ef009023ef00c623ef0038
:1009f400fc23ef003224ef006824ef009e24ef0074
:100a0400d424ef005c23ef009223ef00c823ef000f
:100a1400fe23ef003424ef006a24ef00a024ef004b
:100a2400d624ef0080002800501988008000280098
:100a3400001b880080002800b01c8800800028006b
:100a4400601e880080002800102088008000280094
:100a5400c0218800800028007023880080002800be
:100a6400202588000080fa00000006000000fa003b
:100a74000080fa00000006000000fa0040408000f8
:100a8400680060000000e00002003200f7ff070089
:100a94000868a9000080fa00000006000000fa00bf
:100aa4000080fa00000006000000fa0040408000c8
:100ab400700060000000e00002003200f7ff070051
:100ac4000888a9000080fa00000006000000fa006f
:100ad4000080fa00000006000000fa004140800097
:100ae40000022000008060000000e00002003200ec
:100af400f6ff070008a8a9000080fa00000006001d
:100b04000000fa000080fa00000006000000fa006d
:100b14004140800000042000008060000000e000ec
:100b240002003200f6ff070008c8a9000080fa009e
:100b3400000006000000fa000080fa000000060031
:100b44000000fa004140800000082000008060009e
:100b54000000e00002003200f6ff070008e8a900e8
:100b64000080fa00000006000000fa000080fa008d
:100b7400000006000000fa00414080000010200040
:100b8400008060000000e00002003200f6ff070071
:100b94000908a9000080fa00000006000000fa001d
:100ba4000080fa00000006000000fa0041408000c6
:100bb40000202000008060000000e00002003200fd
:100bc400f6ff07000928a9000080fa0000000600cb
:100bd4000000fa000080fa00000006000000fa009d
:100be4004140800000402000008060000000e000e0
:100bf40002003200f6ff07000948a9000080fa004d
:100c0400000006000000fa000080fa000000060060
:100c14000000fa00a1408000002020000080600055
:100c24000000e00002003200f6ff07001528a900ca
:100c34000080fa00000006000000fa000080fa00bc
:100c4400000006000000fa00a140800000402000df
:100c5400008060000000e00002003200f6ff0700a0
:100c64001548a9000080fa00000006000000fa0000
:100c74000080fa00000006000000fa00a140800095
:100c840000802000008060000000e00002003200cc
:100c9400f6ff07001568a9000080fa0000000600ae
:100ca4000000fa000080fa00000006000000fa00cc
:100cb400a140800000002100008060000000e000ee
:100cc40002003200f6ff07001588a9000080fa0030
:100cd400000006000000fa000080fa000000060090
:100ce4000000fa00a14080000000220000806000a3
:100cf4000000e00002003200f6ff070015a8a9007a
:100d04000080fa00000006000000fa000080fa00eb
:100d1400000006000000fa00a1408000000024004a
:100d2400008060000000e00002003200f6ff0700cf
:100d340015c8a9000080fa00000006000200fa00ad
:100d4400000f78001e007800e40f500018003200f5
:100d5400e40f500007003e00e20f50001000320084
:100d6400e20f500010003e00e10f50000a00320074
:100d740019003700e60f500011003200e60f500052
:100d84000d003900e70f50000f003200e80f50004b
:100d94000f003200100037002be3a9000e003700cb
:100da40061e3a9000c00370097e3a9000a003700ab
:100db400cde3a9000800370003e4a90006003700ca
:100dc40039e4a900040037006fe4a90002003700e9
:100dd400a5e4a900000000000080fa00000006005d
:100de4000400fa00000f7800110798001e00780034
:100df400e40f50001b003200e40f500007003e00d7
:100e0400e20f500011003200e20f500012003e00c9
:100e1400e10f50000a00320021003700e60f5000b5
:100e240016003200e60f500011003900e70f5000a1
:100e340015003200e80f5000160032001800370089
:100e44009e009000711a8800150037009e009000e3
:100e5400211c8800120037009e009000d11d8800dc
:100e64000f0037009e009000811f88000c0037009f
:100e74009e00900031218800090037009e009000f8
:100e8400e1228800060037009e009000912488002b
:100e9400030037009e0090004126880000000000f7
:100ea4000080fa00000006000400fa00000f780039
:100eb400110798001e007800e40f50001b00320058
:100ec400e40f500007003e00e20f50001100320012
:100ed400e20f500012003e00e10f50000a00320001
:100ee40021003700e60f500016003200e60f5000d4
:100ef40011003900e70f500015003200e80f5000d0
:100f040016003200180037009e009000911a8800e5
:100f1400150037009e009000411c88001200370025
:100f24009e009000f11d88000f0037009e00900085
:100f3400a11f88000c0037009e00900051218800fa
:100f4400090037009e009000012388000600370046
:100f54009e009000b1248800030037009e0090009a
:100f640061268800000000000080fa0000000600ee
:100f74000400fa00000f7800110798001e007800a2
:100f8400e40f50001b003200e40f500007003e0045
:100f9400e20f500011003200e20f500012003e0038
:100fa400e10f50000a00320021003700e60f500024
:100fb40016003200e60f500011003900e70f500010
:100fc40015003200e80f50001600320018003700f8
:100fd4009e009000611a8800150037009e00900062
:100fe400111c8800120037009e009000c11d88006b
:100ff4000f0037009e009000711f88000c0037001e
:101004009e00900021218800090037009e00900076
:10101400d1228800060037009e00900081248800b9
:10102400030037009e009000312688000000000075
:101034000080fa00000006000800fa00000f7800a3
:101044001107980022079800330798001e007800c3
:10105400e40f500042003200e40f500007003e004d
:10106400e20f50001e003200e20f50002c003e0040
:10107400e10f50000a00320089003700e60f5000eb
:1010840057003200e60f500045003900e70f5000ca
:1010940063003200e80f5000710032008000370016
:1010a4001e00780025ff07002de3a9002dc3a90029
:1010b4002da3a9009e0090001e00780048ff0700a1
:1010c400be0090001e00780077ff0700ae0090007d
:1010d4001e007800a6ff070010c0b300710037009f
:1010e4001e00780015ff070063e3a90063c3a9008d
:1010f40063a3a9009e0090001e00780038ff07003b
:10110400be0090001e00780067ff0700ae0090004c
:101114001e00780096ff070010c0b300610037007e
:101124001e00780005ff070099e3a90099c3a900f0
:1011340099a3a9009e0090001e00780028ff0700d4
:10114400be0090001e00780057ff0700ae0090001c
:101154001e00780086ff070010c0b300510037005e
:101164001e007800f5fe0700cfe3a900cfc3a90055
:10117400cfa3a9009e0090001e00780018ff07006e
:10118400be0090001e00780047ff0700ae009000ec
:101194001e00780076ff070010c0b300410037003e
:1011a4001e007800e5fe070005e4a90005c4a900b7
:1011b40005a4a9009e0090001e00780008ff070007
:1011c400be0090001e00780037ff0700ae009000bc
:1011d4001e00780066ff070010c0b300310037001e
:1011e4001e007800d5fe07003be4a9003bc4a9001b
:1011f4003ba4a9009e0090001e007800f8fe0700a2
:10120400be0090001e00780027ff0700ae0090008b
:101214001e00780056ff070010c0b30021003700fd
:101224001e007800c5fe070071e4a90071c4a9007e
:1012340071a4a9009e0090001e007800e8fe07003b
:10124400be0090001e00780017ff0700ae0090005b
:101254001e00780046ff070010c0b30011003700dd
:101264001e007800b5fe0700a7e4a900a7c4a900e2
:10127400a7a4a9009e0090001e007800d8fe0700d5
:10128400be0090001e00780007ff0700ae0090002b
:101294001e00780036ff070010c0b30001003700bd
:1012a4000040eb000080fa00000006000000fa0095
:1012b400d221ef000080fa00000006000000fa00ce
:1012c400d321a8000080fa00000006000000fa0004
:1012d40088a00a00d40100000080fb0000f0a700f1
:1012e4000000ea000000ea004f00de000040780041
:1012f4000080fa00000006000000fa00d321a900d3
:101304000080fa00000006000000fa0099a00a001c
:10131400d40100000080fb0000f0a7000000ea00f8
:101324000000ea004f00de00004078000080fa0070
:10133400000006000000fa00d301a8000080fa00b3
:10134400000006000000fa00d301a9000080fa00a2
:10135400000006000200fa0030002000000f7800b0
:10136400a10e800000002800008060000000e00062
:101374000300320040002000000f78001500370001
:10138400dca00a00d40100000080fb00e10f500043
:1013940007003200e20f5000080032000000e000b5
:1013a40009003a000000eb00000f78000900370044
:1013b40020002000000f78000600370010002000f5
:1013c400000f78000300370030002000000f780081
:1013d400000000001e0078000080fa0000000600f3
:1013e4000600fa0010079800210798000000eb009f
:1013f400000f78000f003700d10f8000001020008c
:10140400008060000000e0000e003a00f10f800050
:101414001e009000010878001e0090000080e80083
:10142400100798002e0090000000e90020079800a3
:101434001e0fe8002e0090000000e000eeff3a00ce
:1014440001003700000000001e0078000080fa0050
:10145400000006000600fa00100798002107980013
:101464000000eb00000f78000e003700d00f800062
:10147400620060000000e0000e003a001e009000d0
:1014840010007800e00f88001e0090000080e80043
:10149400100798002e0090000000e9002007980033
:1014a4001e0fe8002e0090000000e000efff3a005d
:1014b40001003700000000001e0078000080fa00e0
:1014c400000006000400fa00100798000040eb003a
:1014d400004f78000d0007000004e0000600320011
:1014e400d10e80001e0090000108780010c0b300e7
:1014f400004f7800020037000040eb00004f7800f6
:101504001e4078000080fa00000006000000fa0087
:1015140000a00a00d80100000080fb0000f0a70032
:101524000000ea000000ea004f00de0000407800fe
:101534000080fa00000006000400fa00100798007a
:101544000040eb00004f78000d0007000004e000ad
:10155400060032001e00900010007800e00e8800a3
:1015640010c0b300004f7800020037000040eb00c9
:10157400004f78001e4078000080fa00000006004a
:101584000000fa00c00e80006200600000f0a700b6
:101594000000ea000000e9004f00de00004078008f
:1015a4000080fa00000006000000fa00007c8000c1
:1015b4000080fa00000006000200fa00faff0700ab
:1015c400000f78001e007800240007000004e000eb
:1015d4000200320000002800710007001e0078009d
:1015e4002a0007000004e00002003200000024008a
:1015f4006b0007001e007800320007000004e000c2
:101604000200320000202000650007001e00780060
:101614003a0007000004e000020032000008200045
:101624005f0007001e007800420007000004e0008d
:101634000200320000042000590007001e00780058
:101644004a0007000004e00002003200000120000c
:10165400530007000080fa00000006000400fa00ae
:10166400100798000040eb00004f78001e00900027
:101674000000e00002003d0010c0b300004f7800fd
:101684001e4078000080fa00000006000400fa0002
:10169400100798000040eb00004f78009e00900077
:1016a40000002400008060000000e000020032001e
:1016b40010c0b300004f78001e4078000080fa008c
:1016c400000006000400fa00100798000040eb0038
:1016d400004f78009e0090000020200000806000f1
:1016e4000000e0000200320010c0b300004f780098
:1016f4001e4078000080fa00000006000400fa0092
:10170400100798000040eb00004f78009e00900006
:1017140000082000008060000000e00002003200a9
:1017240010c0b300004f78001e4078000080fa001b
:10173400000006000400fa00100798000040eb00c7
:10174400004f78009e00900000042000008060009c
:101754000000e0000200320010c0b300004f780027
:101764001e4078000080fa00000006000400fa0021
:10177400100798000040eb00004f78001e00900016
:10178400700060000000e0000200320010c0b300ee
:10179400004f78001e4078000080fa000000060028
:1017a4000200fa00000f78009e80ea00007c8000ae
:1017b40000806000007c88000080fa0000000600c1
:1017c4000000fa00802fef000080fa0000000600fd
:1017d4000200fa00000f78001e007800e40f5000a9
:1017e40018003200e40f500007003e00e20f5000e2
:1017f40010003200e20f500010003e00e10f5000d4
:101804000a00320019003700e60f500011003200c0
:10181400e60f50000d003900e70f50000f003200b2
:10182400e80f50000f003200100037002be3a8002f
:101834000e00370061e3a8000c00370097e3a8000e
:101844000a003700cde3a8000800370003e4a8002d
:101854000600370039e4a800040037006fe4a8004c
:1018640002003700a5e4a800000000000080fa0090
:10187400000006000600fa006e0007000080eb007e
:10188400000f7800f0ff200010079800f0002000ff
:10189400200798009e0178002e0190009e00900081
:1018a40010002000e4fd07009e0178002e01900046
:1018b4009e00900020002000dffd070010002000a3
:1018c400c3ff070020002000c1ff0700ffff37000f
:1018d4000000fa00062eef00222eef003e2eef004d
:1018e4005a2eef00762eef00f001200010708800d1
:1018f400f0f62f00f0708800f03c2300d0718800cf
:1019040000f02f00b07288000080eb009073880014
:101914000c2eef00282eef00442eef00602eef0077
:101924007c2eef000a2eef00262eef00422eef0051
:101934005e2eef007a2eef00082eef00242eef002b
:10194400402eef005c2eef00782eef00e001200027
:1019540000708800f0102000e0708800f00c200077
:10196400c071880000c02700a07288000004200015
:10197400807388000080fa00000006000000fa006e
:1019840010002300307c880060092000407c88001f
:1019940010042000507c880010102000707c880007
:1019a40060092000807c880010042000907c88005e
:1019b400b82fef00ba2fef00002def00a42fef0097
:1019c400a62fef00aa2fef00ae2fef00b02fef00ed
:1019d400b22fef000001eb0060042000710520002d
:1019e40043f82000804978008149780082497800d2
:1019f4000080fa00000006000200fa00000f7800e0
:101a040021028000200f2000008060001e00700072
:101a1400200288000080fa00000006000000fa009e
:101a2400c3e8a80000000000000000000080fa00e5
:101a3400000006000000fa00a5ff0700cfff070022
:101a44002a00070019fe070005fb0700f3ff070043
:101a540000022000e8ff07000080fa0000000600f2
:101a64000000fa00c5ff07000080fa00000006002d
:101a74000000fa00007c80000080fa0000000600ec
:101a84000000fa00ccfe07000080fa000000060007
:101a94000000fa004aff07000080fa000000060078
:101aa400000f78009e00780001818800ffff370056
:101ab4000000fa0000002100800778008001210066
:0c1ac400000188000080fa00000006000d
:020000040000fa
:101ad000201000000200000082000000ffff000054
:101ae0000010000020000000800000000000000046
:020000040000fa
:0c1af0000000fa000080fa000000060070
:00000001FF
