:020000040000fa
:080000000002040000000000f2
:020000040000fa
:04000800fa020000f8
:020000040000fa
:04000c000c030000e1
:020000040000fa
:040010001c030000cd
:020000040000fa
:0400140002030000e3
:020000040000fa
:0400180014030000cd
:020000040000fa
:04001c002c030000b1
:020000040000fa
:0400200024030000b5
:020000040000fa
:040024002c030000a9
:020000040000fa
:040028002c030000a5
:020000040000fa
:04002c002c030000a1
:020000040000fa
:040030002c0300009d
:020000040000fa
:040034002c03000099
:020000040000fa
:040038002c03000095
:020000040000fa
:04003c002c03000091
:020000040000fa
:040040002c0300008d
:020000040000fa
:040044002c03000089
:020000040000fa
:040048002c03000085
:020000040000fa
:04004c002c03000081
:020000040000fa
:040050002c0300007d
:020000040000fa
:040054002c03000079
:020000040000fa
:040058002c03000075
:020000040000fa
:04005c002c03000071
:020000040000fa
:040060002c0300006d
:020000040000fa
:040064002c03000069
:020000040000fa
:040068002c03000065
:020000040000fa
:04006c002c03000061
:020000040000fa
:040070002c0300005d
:020000040000fa
:040074002c03000059
:020000040000fa
:040078002c03000055
:020000040000fa
:04007c002c03000051
:020000040000fa
:040080002c0300004d
:020000040000fa
:040084002c03000049
:020000040000fa
:040088002c03000045
:020000040000fa
:04008c002c03000041
:020000040000fa
:040090002c0300003d
:020000040000fa
:040094002c03000039
:020000040000fa
:040098002c03000035
:020000040000fa
:04009c002c03000031
:020000040000fa
:0400a0002c0300002d
:020000040000fa
:0400a4002c03000029
:020000040000fa
:0400a8002c03000025
:020000040000fa
:0400ac002c03000021
:020000040000fa
:0400b0002c0300001d
:020000040000fa
:0400b4002c03000019
:020000040000fa
:0400b8002c03000015
:020000040000fa
:0400bc002c03000011
:020000040000fa
:0400c0002c0300000d
:020000040000fa
:0400c4002c03000009
:020000040000fa
:0400c8002c03000005
:020000040000fa
:0400cc002c03000001
:020000040000fa
:0400d0002c030000fd
:020000040000fa
:0400d4002c030000f9
:020000040000fa
:0400d8002c030000f5
:020000040000fa
:0400dc002c030000f1
:020000040000fa
:0400e0002c030000ed
:020000040000fa
:0400e4002c030000e9
:020000040000fa
:0400e8002c030000e5
:020000040000fa
:0400ec002c030000e1
:020000040000fa
:0400f0002c030000dd
:020000040000fa
:0400f4002c030000d9
:020000040000fa
:0400f8002c030000d5
:020000040000fa
:0400fc002c030000d1
:020000040000fa
:040100002c030000cc
:020000040000fa
:040104002c030000c8
:020000040000fa
:040108002c030000c4
:020000040000fa
:04010c002c030000c0
:020000040000fa
:040110002c030000bc
:020000040000fa
:040114002c030000b8
:020000040000fa
:040118002c030000b4
:020000040000fa
:04011c002c030000b0
:020000040000fa
:040120002c030000ac
:020000040000fa
:040124002c030000a8
:020000040000fa
:040128002c030000a4
:020000040000fa
:04012c002c030000a0
:020000040000fa
:040130002c0300009c
:020000040000fa
:040134002c03000098
:020000040000fa
:040138002c03000094
:020000040000fa
:04013c002c03000090
:020000040000fa
:040140002c0300008c
:020000040000fa
:040144002c03000088
:020000040000fa
:040148002c03000084
:020000040000fa
:04014c002c03000080
:020000040000fa
:040150002c0300007c
:020000040000fa
:040154002c03000078
:020000040000fa
:040158002c03000074
:020000040000fa
:04015c002c03000070
:020000040000fa
:040160002c0300006c
:020000040000fa
:040164002c03000068
:020000040000fa
:040168002c03000064
:020000040000fa
:04016c002c03000060
:020000040000fa
:040170002c0300005c
:020000040000fa
:040174002c03000058
:020000040000fa
:040178002c03000054
:020000040000fa
:04017c002c03000050
:020000040000fa
:040180002c0300004c
:020000040000fa
:040184002c03000048
:020000040000fa
:040188002c03000044
:020000040000fa
:04018c002c03000040
:020000040000fa
:040190002c0300003c
:020000040000fa
:040194002c03000038
:020000040000fa
:040198002c03000034
:020000040000fa
:04019c002c03000030
:020000040000fa
:0401a0002c0300002c
:020000040000fa
:0401a4002c03000028
:020000040000fa
:0401a8002c03000024
:020000040000fa
:0401ac002c03000020
:020000040000fa
:0401b0002c0300001c
:020000040000fa
:0401b4002c03000018
:020000040000fa
:0401b8002c03000014
:020000040000fa
:0401bc002c03000010
:020000040000fa
:0401c0002c0300000c
:020000040000fa
:0401c4002c03000008
:020000040000fa
:0401c8002c03000004
:020000040000fa
:0401cc002c03000000
:020000040000fa
:0401d0002c030000fc
:020000040000fa
:0401d4002c030000f8
:020000040000fa
:0401d8002c030000f4
:020000040000fa
:0401dc002c030000f0
:020000040000fa
:0401e0002c030000ec
:020000040000fa
:0401e4002c030000e8
:020000040000fa
:0401e8002c030000e4
:020000040000fa
:0401ec002c030000e0
:020000040000fa
:0401f0002c030000dc
:020000040000fa
:0401f4002c030000d8
:020000040000fa
:0401f8002c030000d4
:020000040000fa
:0401fc002c030000d0
:020000040000fa
:040200002c030000cb
:020000040000fa
:040204002c030000c7
:020000040000fa
:040208002c030000c3
:020000040000fa
:04020c002c030000bf
:020000040000fa
:040210002c030000bb
:020000040000fa
:040214002c030000b7
:020000040000fa
:040218002c030000b3
:020000040000fa
:04021c002c030000af
:020000040000fa
:040220002c030000ab
:020000040000fa
:040224002c030000a7
:020000040000fa
:040228002c030000a3
:020000040000fa
:04022c002c0300009f
:020000040000fa
:040230002c0300009b
:020000040000fa
:040234002c03000097
:020000040000fa
:040238002c03000093
:020000040000fa
:04023c002c0300008f
:020000040000fa
:040240002c0300008b
:020000040000fa
:040244002c03000087
:020000040000fa
:040248002c03000083
:020000040000fa
:04024c002c0300007f
:020000040000fa
:040250002c0300007b
:020000040000fa
:040254002c03000077
:020000040000fa
:040258002c03000073
:020000040000fa
:04025c002c0300006f
:020000040000fa
:040260002c0300006b
:020000040000fa
:040264002c03000067
:020000040000fa
:040268002c03000063
:020000040000fa
:04026c002c0300005f
:020000040000fa
:040270002c0300005b
:020000040000fa
:040274002c03000057
:020000040000fa
:040278002c03000053
:020000040000fa
:04027c002c0300004f
:020000040000fa
:040280002c0300004b
:020000040000fa
:040284002c03000047
:020000040000fa
:040288002c03000043
:020000040000fa
:04028c002c0300003f
:020000040000fa
:040290002c0300003b
:020000040000fa
:040294002c03000037
:020000040000fa
:040298002c03000033
:020000040000fa
:04029c002c0300002f
:020000040000fa
:0402a0002c0300002b
:020000040000fa
:0402a4002c03000027
:020000040000fa
:0402a8002c03000023
:020000040000fa
:0402ac002c0300001f
:020000040000fa
:0402b0002c0300001b
:020000040000fa
:0402b4002c03000017
:020000040000fa
:0402b8002c03000013
:020000040000fa
:0402bc002c0300000f
:020000040000fa
:0402c0002c0300000b
:020000040000fa
:0402c4002c03000007
:020000040000fa
:0402c8002c03000003
:020000040000fa
:0402cc002c030000ff
:020000040000fa
:0402d0002c030000fb
:020000040000fa
:0402d4002c030000f7
:020000040000fa
:0402d8002c030000f3
:020000040000fa
:0402dc002c030000ef
:020000040000fa
:0402e0002c030000eb
:020000040000fa
:0402e4002c030000e7
:020000040000fa
:0402e8002c030000e3
:020000040000fa
:0402ec002c030000df
:020000040000fa
:0402f0002c030000db
:020000040000fa
:0402f4002c030000d7
:020000040000fa
:0402f8002c030000d3
:020000040000fa
:0402fc002c030000cf
:020000040000fa
:040300002c030000ca
:020000040000fa
:040304002c030000c6
:020000040000fa
:040308002c030000c2
:020000040000fa
:04030c002c030000be
:020000040000fa
:040310002c030000ba
:020000040000fa
:040314002c030000b6
:020000040000fa
:040318002c030000b2
:020000040000fa
:04031c002c030000ae
:020000040000fa
:100400006f0521000eff21000e0188000000000092
:10041000000020000000e000020032000001200087
:1004200020028800140007008d0007000000e00093
:1004300003003a00005621000100200002003700ae
:100440000000200001002000810f70000100320038
:100450000f000700000020000000e0000200320052
:1004600000000200000000001a130200000000005b
:100470000040da000000fe00200020000000e00044
:1004800002003200100020009001880000000600e9
:10049000a1028800800478000000eb001f003700f4
:1004a000e284440054a0b4009905ba00e2844400f8
:1004b00054a0b4009906ba00e284440054a0b400e9
:1004c0000006eb00476fde00fd07b200ae018800ba
:1004d000636ce10003003a000ad801000000eb0061
:1004e0000e003700606ce10008003a00004deb00a0
:1004f0000a05e800020039003420ec000af0a000f0
:100500008b05e900f9ff3e00040037006168e10057
:10051000010032000086eb000b00070019c7ba008b
:100520001905ba000e04e00003003a000a00e000da
:10053000dbff3a0000000600fe07b200ae028800b2
:100540008a047800f5ff37000cd0a300e20f4d00bd
:100550001c00390089027800354dba000a05e80010
:10056000020039003420ec000af0a0008b05e900fd
:100570000f003200254dba000a05e80002003900dc
:100580003420ec000af0a0008b05e90008003200de
:100590000c00e0000600320015cdba000a05e800a4
:1005a000020039003420ec000af0a0008b05e900bd
:1005b0008984e80054a0b4000b00e000e2ff3a0098
:1005c000000006009902ba00055d78008b05e9007d
:1005d000f7ff3200c82ade00055d78008b05e900d0
:1005e000f3ff32000c00e000f1ff320019ddba0029
:1005f000eeff37003600f800c028a9000000eb002d
:10060000510907003600f80053090700c048a90047
:10061000100020004c0907003600f800c068a9004f
:1006200020002000480907003600f800c088a90013
:1006300030002000440907003600f800c608a90071
:1006400070002000400907003600f800c408a90027
:10065000b00020003c0907000040da000000fe0066
:100660000000050003f0a200889fbe008a9fbe0024
:100670008c1f7800b1000700b80033006450e1001f
:100680004f0032006420e1005200320003826c000f
:1006900007003b000905d0000306d000820f54007c
:1006a0000c065d000200390002003200890178006a
:1006b000030678008582550004003d000003fd001c
:1006c0008103fd008502ea008b854200840f7200e1
:1006d00002003b0060001000e08018006011b800cc
:1006e0000005eb007a28e1000a00390006007800d6
:1006f000c75ddd00f707b200878075002d00370069
:10070000828171000a017800610560008180d1005a
:100710000080d3008502e900f9ff3b000604400099
:100720008784480002003b0060041400e0841c0041
:100730000988a300070032008a817100828171005c
:10074000610164008904d1000884d3008b05e800ae
:10075000170037000978a30013003a000b00e000ef
:10076000130034008b05e9000804440089844c0020
:100770000a4474000978a3000d003a000b00e00061
:10078000070034008b05e9000804440089844c000c
:1007900001003a000b0020000978a300f7ff3200a7
:1007a0000001eb0002003700828171000a0178002d
:1007b000270007000cf0a70001f0a0007000370030
:1007c0006420e10002003a00838f6c007000330067
:1007d0000801be000200be00690037000001be0033
:1007e000410007000470a70003f0a10003f8a30074
:1007f00013003a006509b10010003200090035000d
:100800006928e10002003500010028000000050011
:1008100000004000818048008502e900fcff3a00aa
:1008200000000600f88f4200050035008100d1006d
:100830000080d3008502e800fcff3a0000000600bb
:100840008000eb00000005006011b8009700370041
:1008500081002000618055000b003d000b0020004e
:1008600061fe2f000100e1001d0034008281710053
:10087000610164008904d1000884d3000000e8000d
:10088000faff3a007100200061006400030070006c
:10089000020060000900320061044400e0844c0062
:1008a0000988a500050032008b05e8006808e10012
:1008b00002003a008904d1000884d300f20f20001e
:1008c0000258e10005003d00c75ddd00f907b200f8
:1008d0008980750008007800000006000bf82700ea
:1008e0008b00780000000500c70ade00f107b200a7
:1008f000f50fb20008003200e1cf420002003200e2
:100900000170a00024000500810f7000010032007a
:100910000408050044000500810f700002003a0041
:10092000140005008502e9000000400081c0480075
:10093000fcff3b000170a000240005000004be0085
:10094000e9ff07000003be000405be000200be0070
:10095000e5ff0700844f7500000006000200be009e
:100960006450e100050036006420e100020036001a
:100970000968a30001003a000800be000160a00061
:100980004f0678004f05be004f04be000000060071
:10099000f0ff2f00f1ff2700f9ff3700889fbe000e
:1009a0008a9fbe008c1f7800e4ff0700ebff330036
:1009b00003866c006450e100240032006420e100f2
:1009c000270032006150e100220032006120e10086
:1009d000210032008b854200eb07b1000134b800e2
:1009e000003ab8000804420089844a00013ab8007d
:1009f0000030b8008880400009014a00040033003c
:100a00000000400081804800020149008b05e90098
:100a1000c909dd00830170000100320013002000cd
:100a2000c814de004814dd004709de001200b200e1
:100a3000c808de000884700085ff070001f0a100ef
:100a40000cf0a70001f0a000cdff37006120e1000d
:100a5000cfff32000801be000200be00f7ff3700e2
:100a60006150e100fcff3a00c9ff37006022b80086
:100a7000060220000000d0008180d2000482d20053
:100a80008582d2000000a0000202520083825a0038
:100a9000030031000202420083824a000000a100ec
:100aa0000603e900f3ff3a0000000600889fbe003d
:100ab0008a9fbe00008270000402710004827100ef
:100ac000260032000004be000200be006011b80023
:100ad0006b092000950220000182cf000a00390036
:100ae0000541b1000082cf00070039000541b10087
:100af0000982cf00040039000541b1000882cf000f
:100b0000010039000541b1000542520012003200d7
:100b10000a003b0082817100610164008100d10004
:100b20000080d3008984d3000884d3008b05e800bb
:100b30000442e800f7ff3a000700370008044400c9
:100b400089844c0000004800818048008b05e90042
:100b50000442e900f9ff3a003dff07004f05be00df
:080b60004f04be000000060076
:020000040000fa
:100b68000000fa000023ef000223ef000423ef0047
:100b78000623ef000823ef0000012000501888002a
:100b88000c23ef000e23ef001023ef001223ef00d9
:100b98001423ef001623ef001823ef001a23ef00a9
:100ba8001c23ef001e23ef002023ef002223ef0079
:100bb8002423ef002623ef002823ef002c23ef0047
:100bc8006223ef009823ef00ce23ef000424ef0008
:100bd8003a24ef007024ef00a624ef002e23ef0044
:100be8006423ef009a23ef00d023ef000624ef00e0
:100bf8003c24ef007224ef00a824ef003023ef001c
:100c08006623ef009c23ef00d223ef000824ef00b7
:100c18003e24ef007424ef00aa24ef00c000200057
:100c280090198800c0002000401b88004000200068
:100c3800f01c8800c0002000a01e8800c000200012
:100c480050208800c000200000228800c00020003a
:100c5800b023880040002000602588003423ef007e
:100c68006a23ef00a023ef00d623ef000c24ef0047
:100c78004224ef007824ef00ae24ef003623ef0083
:100c88006c23ef00a223ef00d823ef000e24ef001f
:100c98004424ef007a24ef00b024ef003823ef005b
:100ca8006e23ef00a423ef00da23ef001024ef00f7
:100cb8004624ef007c24ef00b224ef003a23ef0033
:100cc8007023ef00a623ef00dc23ef001224ef00cf
:100cd8004824ef007e24ef00b424ef003c23ef000b
:100ce8007223ef00a823ef00de23ef001424ef00a7
:100cf8004a24ef008024ef00b624ef003e23ef00e3
:100d08007423ef00aa23ef00e023ef001624ef007e
:100d18004c24ef008224ef00b824ef004023ef00ba
:100d28007623ef00ac23ef00e223ef001824ef0056
:100d38004e24ef008424ef00ba24ef004223ef0092
:100d48007823ef00ae23ef00e423ef001a24ef002e
:100d58005024ef008624ef00bc24ef004423ef006a
:100d68007a23ef00b023ef00e623ef001c24ef0006
:100d78005224ef008824ef00be24ef004623ef0042
:100d88007c23ef00b223ef00e823ef001e24ef00de
:100d98005424ef008a24ef00c024ef004823ef001a
:100da8007e23ef00b423ef00ea23ef002024ef00b6
:100db8005624ef008c24ef00c224ef004a23ef00f2
:100dc8008023ef00b623ef00ec23ef002224ef008e
:100dd8005824ef008e24ef00c424ef004c23ef00ca
:100de8008223ef00b823ef00ee23ef002424ef0066
:100df8005a24ef009024ef00c624ef00f0ff2700ec
:100e0800701a88008423ef00ba23ef00f023ef0064
:100e1800f0ff2700302188005c24ef009224ef00c7
:100e2800c824ef005023ef008623ef00bc23ef0017
:100e3800f223ef002824ef005e24ef009424ef0053
:100e4800ca24ef00f0092000901a88000001200051
:100e5800401c880000012000f01d880000012000cf
:100e6800a01f8800f0092000502188000001200000
:100e78000023880000012000b02488000001200021
:100e8800602688005423ef008a23ef00c023ef0078
:100e9800f623ef002c24ef006224ef009824ef00e3
:100ea800ce24ef005623ef008c23ef00c223ef007f
:100eb800f823ef002e24ef006424ef009a24ef00bb
:100ec800d024ef005823ef008e23ef00c423ef0057
:100ed800fa23ef003024ef006624ef009c24ef0093
:100ee800d224ef005a23ef009023ef00c623ef002f
:100ef800fc23ef003224ef006824ef009e24ef006b
:100f0800d424ef005c23ef009223ef00c823ef0006
:100f1800fe23ef003424ef006a24ef00a024ef0042
:100f2800d624ef008000280050198800800028008f
:100f3800001b880080002800b01c88008000280062
:100f4800601e88008000280010208800800028008b
:100f5800c0218800800028007023880080002800b5
:100f6800202588000080fa00000006000000fa0032
:100f78000080fa00000006000000fa0040408000ef
:100f8800680060000000e00002003200f7ff070080
:100f98000868a9000080fa00000006000000fa00b6
:100fa8000080fa00000006000000fa0040408000bf
:100fb800700060000000e00002003200f7ff070048
:100fc8000888a9000080fa00000006000000fa0066
:100fd8000080fa00000006000000fa00414080008e
:100fe80000022000008060000000e00002003200e3
:100ff800f6ff070008a8a9000080fa000000060014
:101008000000fa000080fa00000006000000fa0064
:101018004140800000042000008060000000e000e3
:1010280002003200f6ff070008c8a9000080fa0095
:10103800000006000000fa000080fa000000060028
:101048000000fa0041408000000820000080600095
:101058000000e00002003200f6ff070008e8a900df
:101068000080fa00000006000000fa000080fa0084
:10107800000006000000fa00414080000010200037
:10108800008060000000e00002003200f6ff070068
:101098000908a9000080fa00000006000000fa0014
:1010a8000080fa00000006000000fa0041408000bd
:1010b80000202000008060000000e00002003200f4
:1010c800f6ff07000928a9000080fa0000000600c2
:1010d8000000fa000080fa00000006000000fa0094
:1010e8004140800000402000008060000000e000d7
:1010f80002003200f6ff07000948a9000080fa0044
:10110800000006000000fa000080fa000000060057
:101118000000fa00a140800000202000008060004c
:101128000000e00002003200f6ff07001528a900c1
:101138000080fa00000006000000fa000080fa00b3
:10114800000006000000fa00a140800000402000d6
:10115800008060000000e00002003200f6ff070097
:101168001548a9000080fa00000006000000fa00f7
:101178000080fa00000006000000fa00a14080008c
:1011880000802000008060000000e00002003200c3
:10119800f6ff07001568a9000080fa0000000600a5
:1011a8000000fa000080fa00000006000000fa00c3
:1011b800a140800000002100008060000000e000e5
:1011c80002003200f6ff07001588a9000080fa0027
:1011d800000006000000fa000080fa000000060087
:1011e8000000fa00a140800000002200008060009a
:1011f8000000e00002003200f6ff070015a8a90071
:101208000080fa00000006000000fa000080fa00e2
:10121800000006000000fa00a14080000000240041
:10122800008060000000e00002003200f6ff0700c6
:1012380015c8a9000080fa00000006000200fa00a4
:10124800000f78001e007800e40f500018003200ec
:10125800e40f500007003e00e20f5000100032007b
:10126800e20f500010003e00e10f50000a0032006b
:1012780019003700e60f500011003200e60f500049
:101288000d003900e70f50000f003200e80f500042
:101298000f003200100037002be3a9000e003700c2
:1012a80061e3a9000c00370097e3a9000a003700a2
:1012b800cde3a9000800370003e4a90006003700c1
:1012c80039e4a900040037006fe4a90002003700e0
:1012d800a5e4a900000000000080fa000000060054
:1012e8000400fa00000f7800110798001e0078002b
:1012f800e40f50001b003200e40f500007003e00ce
:10130800e20f500011003200e20f500012003e00c0
:10131800e10f50000a00320021003700e60f5000ac
:1013280016003200e60f500011003900e70f500098
:1013380015003200e80f5000160032001800370080
:101348009e009000711a8800150037009e009000da
:10135800211c8800120037009e009000d11d8800d3
:101368000f0037009e009000811f88000c00370096
:101378009e00900031218800090037009e009000ef
:10138800e1228800060037009e0090009124880022
:10139800030037009e0090004126880000000000ee
:1013a8000080fa00000006000400fa00000f780030
:1013b800110798001e007800e40f50001b0032004f
:1013c800e40f500007003e00e20f50001100320009
:1013d800e20f500012003e00e10f50000a003200f8
:1013e80021003700e60f500016003200e60f5000cb
:1013f80011003900e70f500015003200e80f5000c7
:1014080016003200180037009e009000911a8800dc
:10141800150037009e009000411c8800120037001c
:101428009e009000f11d88000f0037009e0090007c
:10143800a11f88000c0037009e00900051218800f1
:10144800090037009e00900001238800060037003d
:101458009e009000b1248800030037009e00900091
:1014680061268800000000000080fa0000000600e5
:101478000400fa00000f7800110798001e00780099
:10148800e40f50001b003200e40f500007003e003c
:10149800e20f500011003200e20f500012003e002f
:1014a800e10f50000a00320021003700e60f50001b
:1014b80016003200e60f500011003900e70f500007
:1014c80015003200e80f50001600320018003700ef
:1014d8009e009000611a8800150037009e00900059
:1014e800111c8800120037009e009000c11d880062
:1014f8000f0037009e009000711f88000c00370015
:101508009e00900021218800090037009e0090006d
:10151800d1228800060037009e00900081248800b0
:10152800030037009e00900031268800000000006c
:101538000080fa00000006000800fa00000f78009a
:101548001107980022079800330798001e007800ba
:10155800e40f500042003200e40f500007003e0044
:10156800e20f50001e003200e20f50002c003e0037
:10157800e10f50000a00320089003700e60f5000e2
:1015880057003200e60f500045003900e70f5000c1
:1015980063003200e80f500071003200800037000d
:1015a8001e00780025ff07002de3a9002dc3a90020
:1015b8002da3a9009e0090001e00780048ff070098
:1015c800be0090001e00780077ff0700ae00900074
:1015d8001e007800a6ff070010c0b3007100370096
:1015e8001e00780015ff070063e3a90063c3a90084
:1015f80063a3a9009e0090001e00780038ff070032
:10160800be0090001e00780067ff0700ae00900043
:101618001e00780096ff070010c0b3006100370075
:101628001e00780005ff070099e3a90099c3a900e7
:1016380099a3a9009e0090001e00780028ff0700cb
:10164800be0090001e00780057ff0700ae00900013
:101658001e00780086ff070010c0b3005100370055
:101668001e007800f5fe0700cfe3a900cfc3a9004c
:10167800cfa3a9009e0090001e00780018ff070065
:10168800be0090001e00780047ff0700ae009000e3
:101698001e00780076ff070010c0b3004100370035
:1016a8001e007800e5fe070005e4a90005c4a900ae
:1016b80005a4a9009e0090001e00780008ff0700fe
:1016c800be0090001e00780037ff0700ae009000b3
:1016d8001e00780066ff070010c0b3003100370015
:1016e8001e007800d5fe07003be4a9003bc4a90012
:1016f8003ba4a9009e0090001e007800f8fe070099
:10170800be0090001e00780027ff0700ae00900082
:101718001e00780056ff070010c0b30021003700f4
:101728001e007800c5fe070071e4a90071c4a90075
:1017380071a4a9009e0090001e007800e8fe070032
:10174800be0090001e00780017ff0700ae00900052
:101758001e00780046ff070010c0b30011003700d4
:101768001e007800b5fe0700a7e4a900a7c4a900d9
:10177800a7a4a9009e0090001e007800d8fe0700cc
:10178800be0090001e00780007ff0700ae00900022
:101798001e00780036ff070010c0b30001003700b4
:1017a8000040eb000080fa00000006000200fa008a
:1017b800000f78001e007800e40f5000210032006e
:1017c800e40f500007003e00e20f50001300320003
:1017d800e20f500016003e00e10f50000a003200f0
:1017e80031003700e60f500020003200e60f5000ad
:1017f80019003900e70f500021003200e80f5000af
:1018080024003200280037002100200043210a006c
:101818002a03000010c0b300240037002100200074
:1018280043210a006003000010c0b3001f00370006
:101838002100200043210a009603000010c0b300d5
:101848001a0037002100200043210a00cc030000c1
:1018580010c0b300150037002100200043210a0002
:101868000204000010c0b30010003700210020005f
:1018780043210a003804000010c0b3000b003700f1
:101888002100200043210a006e04000010c0b300ac
:10189800060037002100200043210a00a4040000ac
:1018a80010c0b300010037000040eb000080fa00d0
:1018b800000006000200fa00000f78001e00780001
:1018c80000407800634060000000780054200a005f
:1018d800000300000080fa00000006000200fa0081
:1018e800000f78001e007800e40f50001800320046
:1018f800e40f500007003e00e20f500010003200d5
:10190800e20f500010003e00e10f50000a003200c4
:1019180019003700e60f500011003200e60f5000a2
:101928000d003900e70f50000f003200e80f50009b
:101938000f003200100037002be3a8000e0037001c
:1019480061e3a8000c00370097e3a8000a003700fd
:10195800cde3a8000800370003e4a800060037001c
:1019680039e4a800040037006fe4a800020037003b
:10197800a5e4a800000000000080fa0000000600ae
:101988000200fa00000f78001e007800e40f5000f3
:1019980018003200e40f500007003e00e20f50002c
:1019a80010003200e20f500010003e00e10f50001e
:1019b8000a00320019003700e60f5000110032000b
:1019c800e60f50000d003900e70f50000f003200fd
:1019d800e80f50000f003200100037002be3a90079
:1019e8000e00370061e3a9000c00370097e3a90057
:1019f8000a003700cde3a9000800370003e4a90076
:101a08000600370039e4a900040037006fe4a90094
:101a180002003700a5e4a900000000000080fa00d9
:101a2800000006000400fa00000f78001107980073
:101a38001e007800e40f50001b003200e40f500035
:101a480007003e00e20f500011003200e20f500084
:101a580012003e00e10f50000a003200210037005a
:101a6800e60f500016003200e60f50001100390052
:101a7800e70f500015003200e80f50001600320042
:101a8800180037009e009000711a88001500370072
:101a98009e009000211c8800120037009e009000d4
:101aa800d11d88000f0037009e009000811f88001c
:101ab8000c0037009e009000312188000900370093
:101ac8009e009000e1228800060037009e009000ea
:101ad80091248800030037009e009000412688006a
:101ae800000000000080fa00000006000000fa0074
:101af8000830ef000a30ef002430ef000200210028
:101b08006000b8000089be00020021006000b80033
:101b18002001980031019800e30620000001eb0045
:101b28008000eb005000200083fe070050002000da
:101b380093ff07000080fa00000006000600fa0084
:101b480081022000c000200038010700d1cc2c0001
:101b58000100b8004308de004080880081022000b0
:101b6800b000200031010700c200de00b0472100ac
:101b78000008b8000100d100208188004180800061
:101b8800208180000088b900000078008000eb0008
:101b9800020021000089be00000021001001be00e3
:101ba80000002100b00090002000900000005100cb
:101bb80081805900008fbe001e00be00e00f50005b
:101bc800e08f58000c003400418080005080800075
:101bd800808f5000040036008d000700b000200000
:101be800200798000f0037009f00070060012000c1
:101bf800200798000b00370041808000508080004b
:101c0800808f500004003600970007001002200063
:101c180020079800030037007d000700c00220005d
:101c28002007980040808000508088000000210034
:101c38001000be0002002100200198003101980028
:101c4800000021001000be00000078000080fa00ab
:101c5800000006000000fa00000020000100240037
:101c680060808800718088000000200001f82b0047
:101c780080808800918088006000b800a08088007b
:101c8800b18088006000b800c0808800d1808800da
:101c98006000b800e0808800f18088006000b8002b
:101ca80000818800118188000080fa000000060089
:101cb8000000fa00500020000080fa000000060032
:101cc8000400fa00889fbe0090828000800078009f
:101cd80030218000008050008000eb00d8fa070017
:101ce800c0808800d1808800a4808000b5808000f2
:101cf80000818000118180000001be000400be0048
:101d080024fb07000004be008480800095808000ca
:101d1800e0808000f18080000001be000400be0069
:101d28001cfb07000001be000800be004cfa0700bb
:101d38000004be006480800075808000c080800040
:101d4800d18080000001be000400be0011fb070026
:101d58000001be000800be0041fa07000002be00f4
:101d680030818000418180000001be000400be0077
:101d78003bfa07003081880041818800e2808000ba
:101d8800f3808000028fbe00c0808000d180800078
:101d9800e0808800f18088001e01be000281880072
:101da80013818800308180004181800089fa070012
:101db800000078004f04be000080fa000000060012
:101dc8000000fa00a8022100ca02210072818000e6
:101dd80093828000028d51004604c7004684c000eb
:101de8001e84c0008083cd00050d7800eaba9700f4
:101df8000525780035818800308180004181800088
:101e080074fa0700000078000080fa00000006005d
:101e18000200fa0050002000d9fe0700312180009e
:101e2800010f7800a2ff07009e0040007005200007
:101e3800808f50000300360080052000000f7800d6
:101e4800020037009aff07001e0f40009e0078002e
:101e580050002000f3fe0700500020009ffe0700fe
:101e68000080fa00000006000200fa00500020007e
:101e7800c3fe070031218000010f78008cff0700a6
:101e88001e0010009e0f5000030039000000eb00f8
:101e9800000f78000200370085ff07001e0f1000b2
:101ea8009e00780050002000defe07005000200051
:101eb8008afe07000080fa00000006000400fa000d
:101ec800100798001e009000ea0f50000d00320025
:101ed800ea0f500005003e00e30f50000b003200ef
:101ee800e80f50000b00320004003700eb0f5000e1
:101ef8000a003200ec0f50000a00320000c0eb006c
:101f0800160037000000000007003700000000003e
:101f18000500370000000000030037000000000043
:101f280001003700000000001e0090000d000700af
:101f3800d1cc2c000100b8004308de00004f780027
:101f480040c6b3009e40780080cf500002003600a3
:101f580040c6b300004f78001e4078000080fa00a9
:101f6800000006000200fa00000f78001e0078004a
:101f7800030007004200de000080fa0000000600af
:101f88000600fa00200798002e009000000040008c
:101f980080007800c0c02000008f400041588000b9
:101fa80000e02f00808060002e009000010070008b
:101fb80040588800090ba8002e009000ef0f500031
:101fc8000b003e002e009000110020000008dd00ec
:101fd8001007980000000000815980001e00900042
:101fe800008060000000e000fbff32000b003700bb
:101ff8002e00900070005000110020000008dd0045
:102008001007980000000000915980001e00900001
:10201800008060000000e000fbff32001e00780036
:10202800100078000080fa00000006000a00fa009c
:1020380030079800410798006000b800008fbe0084
:102048000000eb0020079800080037003e009000d1
:10205800cbff07008000eb001e0f40005e97480092
:102068002e0090000000e80020079800ae009000c5
:102078004e009000808f5000f4ff39002e00900031
:102088000000e0000c0032002e0090000000d1009b
:102098008000eb003e024000ae8248002e00900017
:1020a8008000eb000001be000400be006dfa0700ce
:1020b80000007800010037000000eb000080fa0003
:1020c800000006000200fa00000f78001e007800e9
:1020d800ea0f500014003200ea0f500005003e00dd
:1020e800e30f50000a003200e80f50000b003200e6
:1020f80013003700eb0f50000e003200ec0f5000b9
:102108000f003a0038eea80010c0b3000d003700e9
:102118001c4ea80010c0b3000a003700386ea80093
:1021280010c0b30007003700380ea80010c0b30075
:102138000400370038cea80010c0b30001003700f3
:102148000040eb000080fa00000006000200fa00e0
:10215800000f78001e0078000000e00016003a002a
:10216800002bef000006200010588800042bef0019
:102178000003200030588800082bef0000082000da
:1021880050588800000820000060880000f02000f7
:102198001060880001eba8000000000001608000ca
:1021a80000002800008060000000e000fbff320013
:1021b80010c0b300010037000040eb000080fa00b7
:1021c800000006000000fa00d221ef000080fa00ab
:1021d800000006000000fa00d321a8000080fa00e1
:1021e800000006000000fa0088a00a00d4010000e0
:1021f8000080fb0000f0a7000000ea000000ea00f1
:102208004f00de00004078000080fa000000060061
:102218000000fa00d321a9000080fa00000006009f
:102228000000fa0099a00a00d40100000080fb0019
:1022380000f0a7000000ea000000ea004f00de00fe
:10224800004078000080fa00000006000000fa0054
:10225800d301a8000080fa00000006000000fa0080
:10226800d301a9000080fa00000006000200fa006d
:1022780030002000000f7800a10e80000000280028
:10228800008060000000e0000300320040002000f1
:10229800000f780015003700dca00a00d401000008
:1022a8000080fb00e10f500007003200e20f5000f1
:1022b800080032000000e00009003a000000eb00ce
:1022c800000f78000900370020002000000f780078
:1022d8000600370010002000000f780003003700c8
:1022e80030002000000f7800000000001e00780079
:1022f8000080fa00000006000600fa0010079800a7
:10230800210798000000eb00000f78000f0037004d
:10231800d10f800000102000008060000000e00065
:102328000e003a00f10f80001e00900001087800ae
:102338001e0090000080e800100798002e00900012
:102348000000e900200798001e0fe8002e0090000a
:102358000000e000eeff3a00010037000000000036
:102368001e0078000080fa00000006000600fa004f
:1023780010079800210798000000eb00000f780074
:102388000e003700d00f8000620060000000e000ff
:102398000e003a001e00900010007800e00f880040
:1023a8001e0090000080e800100798002e009000a2
:1023b8000000e900200798001e0fe8002e0090009a
:1023c8000000e000efff3a000100370000000000c5
:1023d8001e0078000080fa00000006000400fa00e1
:1023e800100798000040eb00004f78000d00070030
:1023f8000004e00006003200d10e80001e009000ac
:102408000108780010c0b300004f780002003700c0
:102418000040eb00004f78001e4078000080fa0072
:10242800000006000000fa0000a00a00d801000021
:102438000080fb0000f0a7000000ea000000ea00ae
:102448004f00de00004078000080fa00000006001f
:102458000400fa00100798000040eb00004f7800d5
:102468000d0007000004e000060032001e00900086
:1024780010007800e00e880010c0b300004f78000c
:10248800020037000040eb00004f78001e40780043
:102498000080fa00000006000000fa00c00e80006c
:1024a8006200600000f0a7000000ea000000e900f8
:1024b8004f00de00004078000080fa0000000600af
:1024c8000200fa00000f78001e007800e40f5000a8
:1024d80018003200e40f500007003e00e20f5000e1
:1024e80010003200e20f500010003e00e10f5000d3
:1024f8000a00320019003700e60f500011003200c0
:10250800e60f50000d003900e70f50000f003200b1
:10251800e80f50000f003200100037002be3a9002d
:102528000e00370061e3a9000c00370097e3a9000b
:102538000a003700cde3a9000800370003e4a9002a
:102548000600370039e4a900040037006fe4a90049
:1025580002003700a5e4a900000000000080fa008e
:10256800000006000400fa00000f78001107980028
:102578001e007800e40f50001b003200e40f5000ea
:1025880007003e00e20f500011003200e20f500039
:1025980012003e00e10f50000a003200210037000f
:1025a800e60f500016003200e60f50001100390007
:1025b800e70f500015003200e80f500016003200f7
:1025c800180037009e009000711a88001500370027
:1025d8009e009000211c8800120037009e00900089
:1025e800d11d88000f0037009e009000811f8800d1
:1025f8000c0037009e009000312188000900370048
:102608009e009000e1228800060037009e0090009e
:1026180091248800030037009e009000412688001e
:10262800000000000080fa00000006000200fa0026
:10263800160107002dfd070086fd07000000eb00ce
:10264800c2fe0700c00020009efe07008000200098
:102658009cfe0700a00020009afe0700b0002000a2
:1026680098fe07005000200095ff0700e1062000b3
:1026780050002000bbff070081022000c00020009e
:102688006afe0700d1cc2c000100b8004308de0028
:10269800000f78000e0078006dff0700cdfe0700e0
:1026a800ccfe070000000000cefe07000004a200d8
:1026b8000004e000fcff3a00d5fe0700000000001f
:1026c800c8fe07000004e000fdff3a005030ef00ac
:1026d80006003700f2ff2f001200b100feff3a009b
:1026e800808280000000e80080828800808280006c
:1026f8000000e000f7ff3200dfff37000000fa00bb
:10270800007c80000080fa00000006000200fa0049
:10271800faff0700000f78001e0078002400070069
:102728000004e000020032000000280071000700e9
:102738001e0078002a0007000004e00002003200b2
:10274800000024006b0007001e007800320007001c
:102758000004e000020032000020200065000700ad
:102768001e0078003a0007000004e0000200320072
:10277800000820005f0007001e00780042000700e4
:102788000004e000020032000004200059000700a5
:102798001e0078004a0007000004e0000200320032
:1027a80000012000530007000080fa000000060026
:1027b8000400fa00100798000040eb00004f780072
:1027c8001e0090000000e00002003d0010c0b300b1
:1027d800004f78001e4078000080fa0000000600d4
:1027e8000400fa00100798000040eb00004f780042
:1027f8009e00900000002400008060000000e000bf
:102808000200320010c0b300004f78001e4078006c
:102818000080fa00000006000400fa001007980083
:102828000040eb00004f78009e0090000020200040
:10283800008060000000e0000200320010c0b30019
:10284800004f78001e4078000080fa000000060063
:102858000400fa00100798000040eb00004f7800d1
:102868009e00900000082000008060000000e0004a
:102878000200320010c0b300004f78001e407800fc
:102888000080fa00000006000400fa001007980013
:102898000040eb00004f78009e00900000042000ec
:1028a800008060000000e0000200320010c0b300a9
:1028b800004f78001e4078000080fa0000000600f3
:1028c8000400fa00100798000040eb00004f780061
:1028d8001e009000700060000000e000020032005e
:1028e80010c0b300004f78001e4078000080fa0046
:1028f800000006000200fa00000f78009e80ea003f
:10290800007c800000806000007c88000080fa0065
:10291800000006000000fa00802fef000080fa0097
:10292800000006000000fa00062eef00222eef003d
:102938003e2eef005a2eef00762eef00f001200019
:1029480010708800f0f62b00f0708800f03c23002f
:10295800d071880000f02f00b07288000080eb0072
:10296800907388003aaea9000c2eef00282eef00d5
:10297800442eef00602eef007c2eef000a2eef00b1
:10298800262eef00422eef005e2eef007a2eef008b
:10299800082eef00242eef00402eef005c2eef00f3
:1029a800782eef00e001200000708800f010200071
:1029b800e0708800f00e2000c071880000c0270079
:1029c800a072880000042000807388000080fa004c
:1029d800000006000000fa0010002300307c880088
:1029e80060092000407c880010042000507c88008a
:1029f80010102000707c880060092000807c88000e
:102a080010042000907c8800b82fef00ba2fef0048
:102a1800002def00a42fef00a62fef00aa2fef0044
:102a2800ae2fef00b02fef00b22fef000001eb0048
:102a3800600420007105200043f8200080497800d8
:102a480081497800824978000080fa000000060079
:102a58000200fa00000f780021028000200f2000f9
:102a6800008060001e007000200288000080fa00cc
:102a7800000006000000fa00c3e8a80000000000fb
:102a8800000000000080fa00000006000000fa00c4
:102a9800a4ff070035000700ceff0700c9fd0700a7
:102aa8002ff80700f3ff070000022000e8ff0700e7
:082ab8000080fa000000060096
:020000040000fa
:102ac0005010000002000000800000000010000014
:102ad00030000000800000005210000002000000e2
:102ae00082000000310000005410000002000000cd
:102af00082000000ffff00003010000020000000f6
:082b000080000000000000004d
:020000040000fa
:102b08000000fa00b3ff07000080fa00000006008a
:102b18000000fa00007c80000080fa000000060037
:102b28000000fa00f9fe07000080fa000000060025
:102b38000000fa0077ff07000080fa000000060096
:102b4800000f78009e007800a1828800ffff370000
:102b58000000fa00000321008007780080042100ab
:102b6800000188000080fa00000006000000fa005a
:102b78001100200020210a00400800000080fa000f
:042b88000000060043
:00000001FF
