:020000040000fa
:080000000002040000000000f2
:020000040000fa
:04000800960300005b
:020000040000fa
:04000c00a803000045
:020000040000fa
:04001000b803000031
:020000040000fa
:040014009e03000047
:020000040000fa
:04001800b003000031
:020000040000fa
:04001c00e6030000f7
:020000040000fa
:04002000c003000019
:020000040000fa
:04002400e6030000ef
:020000040000fa
:04002800c803000009
:020000040000fa
:04002c00600300006d
:020000040000fa
:04003000e6030000e3
:020000040000fa
:04003400e6030000df
:020000040000fa
:04003800e6030000db
:020000040000fa
:04003c00e6030000d7
:020000040000fa
:04004000e6030000d3
:020000040000fa
:04004400e6030000cf
:020000040000fa
:04004800e6030000cb
:020000040000fa
:04004c00e6030000c7
:020000040000fa
:04005000e6030000c3
:020000040000fa
:04005400e6030000bf
:020000040000fa
:04005800e6030000bb
:020000040000fa
:04005c00e6030000b7
:020000040000fa
:04006000e6030000b3
:020000040000fa
:04006400e6030000af
:020000040000fa
:04006800e6030000ab
:020000040000fa
:04006c00e6030000a7
:020000040000fa
:04007000e6030000a3
:020000040000fa
:04007400e60300009f
:020000040000fa
:04007800e60300009b
:020000040000fa
:04007c00e603000097
:020000040000fa
:04008000e603000093
:020000040000fa
:04008400e60300008f
:020000040000fa
:04008800e60300008b
:020000040000fa
:04008c00e603000087
:020000040000fa
:04009000e603000083
:020000040000fa
:04009400e60300007f
:020000040000fa
:04009800e60300007b
:020000040000fa
:04009c00e603000077
:020000040000fa
:0400a000e603000073
:020000040000fa
:0400a400e60300006f
:020000040000fa
:0400a800e60300006b
:020000040000fa
:0400ac00e603000067
:020000040000fa
:0400b000e603000063
:020000040000fa
:0400b400e60300005f
:020000040000fa
:0400b800e60300005b
:020000040000fa
:0400bc00e603000057
:020000040000fa
:0400c000e603000053
:020000040000fa
:0400c400e60300004f
:020000040000fa
:0400c800e60300004b
:020000040000fa
:0400cc00e603000047
:020000040000fa
:0400d000e603000043
:020000040000fa
:0400d400e60300003f
:020000040000fa
:0400d800e60300003b
:020000040000fa
:0400dc00e603000037
:020000040000fa
:0400e000e603000033
:020000040000fa
:0400e400e60300002f
:020000040000fa
:0400e800e60300002b
:020000040000fa
:0400ec00e603000027
:020000040000fa
:0400f000e603000023
:020000040000fa
:0400f400e60300001f
:020000040000fa
:0400f800e60300001b
:020000040000fa
:0400fc00e603000017
:020000040000fa
:04010000e603000012
:020000040000fa
:04010400e60300000e
:020000040000fa
:04010800e60300000a
:020000040000fa
:04010c00e603000006
:020000040000fa
:04011000e603000002
:020000040000fa
:04011400e6030000fe
:020000040000fa
:04011800e6030000fa
:020000040000fa
:04011c00e6030000f6
:020000040000fa
:04012000e6030000f2
:020000040000fa
:04012400e6030000ee
:020000040000fa
:04012800e6030000ea
:020000040000fa
:04012c00e6030000e6
:020000040000fa
:04013000e6030000e2
:020000040000fa
:04013400e6030000de
:020000040000fa
:04013800e6030000da
:020000040000fa
:04013c00e6030000d6
:020000040000fa
:04014000e6030000d2
:020000040000fa
:04014400e6030000ce
:020000040000fa
:04014800e6030000ca
:020000040000fa
:04014c00e6030000c6
:020000040000fa
:04015000e6030000c2
:020000040000fa
:04015400e6030000be
:020000040000fa
:04015800e6030000ba
:020000040000fa
:04015c00e6030000b6
:020000040000fa
:04016000e6030000b2
:020000040000fa
:04016400e6030000ae
:020000040000fa
:04016800e6030000aa
:020000040000fa
:04016c00e6030000a6
:020000040000fa
:04017000e6030000a2
:020000040000fa
:04017400e60300009e
:020000040000fa
:04017800e60300009a
:020000040000fa
:04017c00e603000096
:020000040000fa
:04018000e603000092
:020000040000fa
:04018400e60300008e
:020000040000fa
:04018800e60300008a
:020000040000fa
:04018c00e603000086
:020000040000fa
:04019000e603000082
:020000040000fa
:04019400e60300007e
:020000040000fa
:04019800e60300007a
:020000040000fa
:04019c00e603000076
:020000040000fa
:0401a000e603000072
:020000040000fa
:0401a400e60300006e
:020000040000fa
:0401a800e60300006a
:020000040000fa
:0401ac00e603000066
:020000040000fa
:0401b000e603000062
:020000040000fa
:0401b400e60300005e
:020000040000fa
:0401b800e60300005a
:020000040000fa
:0401bc00e603000056
:020000040000fa
:0401c000e603000052
:020000040000fa
:0401c400e60300004e
:020000040000fa
:0401c800e60300004a
:020000040000fa
:0401cc00e603000046
:020000040000fa
:0401d000e603000042
:020000040000fa
:0401d400e60300003e
:020000040000fa
:0401d800e60300003a
:020000040000fa
:0401dc00e603000036
:020000040000fa
:0401e000e603000032
:020000040000fa
:0401e400e60300002e
:020000040000fa
:0401e800e60300002a
:020000040000fa
:0401ec00e603000026
:020000040000fa
:0401f000e603000022
:020000040000fa
:0401f400e60300001e
:020000040000fa
:0401f800e60300001a
:020000040000fa
:0401fc00e603000016
:020000040000fa
:04020000e603000011
:020000040000fa
:04020400e60300000d
:020000040000fa
:04020800e603000009
:020000040000fa
:04020c00e603000005
:020000040000fa
:04021000e603000001
:020000040000fa
:04021400e6030000fd
:020000040000fa
:04021800e6030000f9
:020000040000fa
:04021c00e6030000f5
:020000040000fa
:04022000e6030000f1
:020000040000fa
:04022400e6030000ed
:020000040000fa
:04022800e6030000e9
:020000040000fa
:04022c00e6030000e5
:020000040000fa
:04023000e6030000e1
:020000040000fa
:04023400e6030000dd
:020000040000fa
:04023800e6030000d9
:020000040000fa
:04023c00e6030000d5
:020000040000fa
:04024000e6030000d1
:020000040000fa
:04024400e6030000cd
:020000040000fa
:04024800e6030000c9
:020000040000fa
:04024c00e6030000c5
:020000040000fa
:04025000e6030000c1
:020000040000fa
:04025400e6030000bd
:020000040000fa
:04025800e6030000b9
:020000040000fa
:04025c00e6030000b5
:020000040000fa
:04026000e6030000b1
:020000040000fa
:04026400e6030000ad
:020000040000fa
:04026800e6030000a9
:020000040000fa
:04026c00e6030000a5
:020000040000fa
:04027000e6030000a1
:020000040000fa
:04027400e60300009d
:020000040000fa
:04027800e603000099
:020000040000fa
:04027c00e603000095
:020000040000fa
:04028000e603000091
:020000040000fa
:04028400e60300008d
:020000040000fa
:04028800e603000089
:020000040000fa
:04028c00e603000085
:020000040000fa
:04029000e603000081
:020000040000fa
:04029400e60300007d
:020000040000fa
:04029800e603000079
:020000040000fa
:04029c00e603000075
:020000040000fa
:0402a000e603000071
:020000040000fa
:0402a400e60300006d
:020000040000fa
:0402a800e603000069
:020000040000fa
:0402ac00e603000065
:020000040000fa
:0402b000e603000061
:020000040000fa
:0402b400e60300005d
:020000040000fa
:0402b800e603000059
:020000040000fa
:0402bc00e603000055
:020000040000fa
:0402c000e603000051
:020000040000fa
:0402c400e60300004d
:020000040000fa
:0402c800e603000049
:020000040000fa
:0402cc00e603000045
:020000040000fa
:0402d000e603000041
:020000040000fa
:0402d400e60300003d
:020000040000fa
:0402d800e603000039
:020000040000fa
:0402dc00e603000035
:020000040000fa
:0402e000e603000031
:020000040000fa
:0402e400e60300002d
:020000040000fa
:0402e800e603000029
:020000040000fa
:0402ec00e603000025
:020000040000fa
:0402f000e603000021
:020000040000fa
:0402f400e60300001d
:020000040000fa
:0402f800e603000019
:020000040000fa
:0402fc00e603000015
:020000040000fa
:04030000e603000010
:020000040000fa
:04030400e60300000c
:020000040000fa
:04030800e603000008
:020000040000fa
:04030c00e603000004
:020000040000fa
:04031000e603000000
:020000040000fa
:04031400e6030000fc
:020000040000fa
:04031800e6030000f8
:020000040000fa
:04031c00e6030000f4
:020000040000fa
:04032000e6030000f0
:020000040000fa
:10040000cf1621000eff24000e01880000002000fe
:100410000000e000020032000001200020028800fd
:1004200014000700350107000000e00003003a0057
:10043000803424000100200002003700000020006a
:1004400001002000810f70004220ae000f00070065
:10045000000020000000e0004220ae00000002008a
:100460000000000080450200000000000040da00ab
:100470000000fe00800c20000000e00002003200be
:10048000002020009001880000000600a1028800e2
:10049000800478000000eb001f003700e284440075
:1004a00054a0b4009905ba00e284440054a0b400fa
:1004b0009906ba00e284440054a0b4000006eb00a0
:1004c000476fde00fd07b200ae018800636ce100fb
:1004d00003003a000ad801000000eb000e003700cc
:1004e000606ce10008003a00004deb000a05e800ee
:1004f000020039003420ec000af0a0008b05e9006e
:10050000f9ff3e00040037006168e100010032009d
:100510000086eb000b00070019c7ba001905ba00e6
:100520000e04e00003003a000a00e000dbff3a009e
:1005300000000600fe07b200ae0288008a047800c0
:10054000f5ff37000cd0a300e20f4d001c0039006e
:1005500089027800354dba000a05e800020039002a
:100560003420ec000af0a0008b05e9000f003200f7
:10057000254dba000a05e800020039003420ec00dd
:100580000af0a0008b05e900080032000c00e00032
:100590000600320015cdba000a05e8000200390055
:1005a0003420ec000af0a0008b05e9008984e80003
:1005b00054a0b4000b00e000e2ff3a000000060087
:1005c0009902ba00055d78008b05e900f7ff32005b
:1005d000c82ade00055d78008b05e900f3ff3200d4
:1005e0000c00e000f1ff320019ddba00eeff370029
:1005f0006100e10001003200100005003200f80047
:100600003400f8000002be00930188003200be00f2
:100610000100e0000700320032037800c733de003b
:10062000a7018800f607b2007f30e1000400320025
:10063000200020003400f9003200f900000006001c
:100640008100e9000500e00003003a000180090094
:1006500032100300edff37000180090032900300e3
:10066000d561ae00e9ff370030002000f1ff370010
:1006700050052000b00e8800a00a2000b00e8800af
:10068000d3e1a8000000060050052000b00e88004d
:10069000a00a2000b00e8800d3e1a90000000600e7
:1006a000c63e040000000000f40904000000000041
:1006b00000000400000000002c0a040000000000fc
:1006c0003600f800809fbe00829fbe00849fbe005f
:1006d000869fbe000000fa00c08080000000e0009d
:1006e00002003200c08080000000010030162100ae
:1006f000104078008040e800301621000148780062
:100700002016210011c0b300014878000028a9007c
:100710000080fa004f03be004f02be004f01be0032
:100720004f00be003600f900004006003600f80019
:10073000c028a9000000eb00fb2107003600f800ec
:10074000fd210700c048a90010002000f621070085
:100750003600f800c068a90020002000f221070040
:100760003600f800c088a90030002000ee21070004
:100770003600f800c608a90070002000ea21070032
:100780003600f800c408a900b0002000e6210700e8
:100790003600f800809fbe00829fbe00849fbe008e
:1007a000869fbe000000fa00d32107000008a900c0
:1007b0000080fa004f03be004f02be004f01be0092
:1007c0004f00be003600f900004006000040da008d
:1007d0000000fe000a00fa0011002000b1bf9f00d7
:1007e000c0bf9f006a805700e80a07004fb8970013
:1007f0000080fa00000006000a00fa005100200004
:10080000b1bf9f00c0bf9f006a805700e10a070088
:100810005fb897000080fa0000000600889fbe00c5
:1008200080047800508b80000000e00004003a0053
:100830000e0007000084eb000000e0000800350017
:10084000588b80000900e0000500320009004400d8
:10085000060007000000e00001003d000084eb00fe
:10086000080078004f04be000000060080007800f9
:100870000100e00003003a0000002000508b8800d7
:10088000000005000080eb0002002000828f500075
:1008900002003e00518b88000000eb0000000600c3
:1008a0000a00fa00200798003107980042079800d4
:1008b000be009000010f78000000eb0010079800c8
:1008c000070037001e007800104078001e0fe80077
:1008d000402107001e0090000000e800100798006b
:1008e0009e0090004e009000808f5000f5ff390070
:1008f0001e0090000080fa000000060000000500c5
:1009000003f0a200889fbe008a9fbe008c1f780063
:10091000940007009b0033006450e1004f00320058
:100920006420e1005200320003826c0007003b00ab
:100930000905d0000306d000820f54000c065d00ac
:1009400002003900020032008901780003067800b5
:100950008582550004003d000003fd008103fd0079
:100960008502ea008b854200840f720002003b0082
:1009700060001000e08018006011b8000005eb0076
:100980007a28e1000a00390006007800c75ddd0022
:10099000f707b200878075002d0037008281710053
:1009a0000a017800610560008180d1000080d300d9
:1009b0008502e900f9ff3b000604400087844800f7
:1009c00002003b0060041400e0841c000988a300be
:1009d000070032008a817100828171006101640028
:1009e0008904d1000884d3008b05e8001700370084
:1009f0000978a30013003a000b00e0001300340054
:100a00008b05e9000804440089844c000a44740002
:100a10000978a3000d003a000b00e0000700340045
:100a20008b05e9000804440089844c0001003a0069
:100a30000b0020000978a300f7ff32000001eb0053
:100a400002003700828171000a0178001f00070050
:100a50000cf0a70001f0a000530037006420e10073
:100a600002003a00838f6c00530033000801be007f
:100a70000200be004c003700839f68000100e000c8
:100a800002003d0060001000e08018000300e0005c
:100a900002003d0060011100e08119007d000700a7
:100aa0004f00e00002003b0060001000e0801800f2
:100ab000000006001400200086003700f4ff2f001d
:100ac000840037006011b8009d00370081002000cd
:100ad000618055000b003d000b00200061fe2f00df
:100ae0000100e1001d003400828171006101640099
:100af0008904d1000884d3000000e800faff3a001e
:100b000071002000610064000300700002006000ba
:100b10000900320061044400e0844c000988a5000b
:100b2000050032008b05e8006808e10002003a0089
:100b30008904d1000884d300f20f20000258e1009c
:100b400005003d00c75ddd00f907b2008980750032
:100b500008007800000006000bf827008b007800e2
:100b6000000005000004be00a40007000003be0052
:100b70000405be000200be00a0000700844f7500ff
:100b8000000006000200be006450e10005003600cf
:100b90006420e100020036000968a30001003a0069
:100ba0000800be000160a0004f0678004f05be009f
:100bb0004f04be0000000600f0ff2f00f1ff2700e9
:100bc000f9ff3700889fbe008a9fbe008c1f780007
:100bd000e4ff0700ebff330003866c006450e10084
:100be000240032006420e100270032006150e1005f
:100bf000220032006120e100210032008b8542009a
:100c0000eb07b1000134b800003ab8000804420014
:100c100089844a00013ab8000030b800888040005a
:100c200009014a00040033000000400081804800b0
:100c3000020149008b05e900c909dd00830170004c
:100c40000100320013002000c814de004814dd004b
:100c50004709de001200b200c808de0008847000f8
:100c60009aff070001f0a1000cf0a70001f0a0001e
:100c7000cdff37006120e100cfff32000801be0048
:100c80000200be00f7ff37006150e100fcff3a00b0
:100c9000c9ff37006022b800060220000000d00023
:100ca0008180d2000482d2008582d2000000a000a0
:100cb0000202520083825a00030031000202420005
:100cc00083824a000000a1000603e900f3ff3a0016
:100cd00000000600889fbe008a9fbe00841f780027
:100ce000a0ff07004f00780011003300f0ff2f0035
:100cf000838f6c0006003b00040565000a00a70016
:100d00000800370009f0a600100020000800370096
:100d1000820f5400838f5c00030039001000200014
:100d200001003e000000200009f0a7000000ea00da
:100d30004f05be004f04be000000e00000000600aa
:100d4000889fbe008a9fbe0000827000040271006e
:100d500004827100260032000004be000200be00c2
:100d60006011b8006b092000950220000182cf00bd
:100d70000a0039000541b1000082cf0007003900a8
:100d80000541b1000982cf00040039000541b100de
:100d90000882cf00010039000541b1000542520030
:100da000120032000a003b00828171006101640080
:100db0008100d1000080d3008984d3000884d3004f
:100dc0008b05e8000442e800f7ff3a00070037000f
:100dd0000804440089844c000000480081804800d9
:100de0008b05e9000442e900f9ff3a0037ff0700ec
:100df0004f05be004f04be0000000600c70ade001b
:100e0000f107b200f50fb20008003200e1cf420056
:100e1000020032000170a00024000500810f700064
:100e2000010032000408050044000500810f700035
:100e300002003a00140005008502e90000004000ad
:100e400081c04800fcff3b000170a00024000500a9
:100e5000a10421006a000700800078000080eb00f8
:100e60000100e00004003500a1042100a0002000e2
:100e7000020007004f80de0000000600889fbe00d1
:100e80008a1f78000004be00c9009000690090002d
:100e9000808f50000500390009007800b700070076
:100ea0008080eb000000e000160035000845780067
:100eb0004900900008587800c00498001900780094
:100ec00000b8a30004003a0000a8a3000700320005
:100ed000ea4f540005003a00090078000d000700b1
:100ee0008080eb000000e00006003a0000c0200017
:100ef000190060000200320049009000e0049800f0
:100f00008a80fb00010078004f0578004f04be0086
:100f100000000600889fbe008a1f78000004780049
:100f20000800e0000d003a00880921007005440027
:100f30008004eb00580078000000e000040032005c
:100f4000f4ff07000000e00001003d008084eb009a
:100f50008a0f5400f7ff3a002500370000002200f6
:100f6000180060008004eb0021003200a80490000b
:100f70000f00370009015100384090000000fb00cd
:100f80008900780046fe07000000e00007003c00f2
:100f9000280090004004980060049800500c9800cd
:100fa0001890a0008084eb0011003700808444007a
:100fb00048019000828f5400eeff39002800900015
:100fc000400498009800780002c020000281600070
:100fd00001003a003800900001e8a300020032004e
:100fe0006004980001003700500c98008004eb006a
:100ff000090078004f0578004f04be00000006008d
:10100000889fbe008a9fbe0080047800010478009b
:101010002c003700c800900068009000808f5000be
:101020000400390008007800540007000000e000c8
:101030003700350000402000180060000900320031
:10104000a100200009007800420007008005780018
:101050000b00e00003003200618514000a854500a2
:10106000040037000900780034000700000578000c
:101070008005eb0048009000e80090008080500060
:101080008a8f500002003100010578008005eb00d6
:101090000a017800890078002100070048009000cc
:1010a0000a004000400498000b00e00004003200f9
:1010b0000800780097ff07000000e00014003a00e5
:1010c0008a8444001904e000d2ff3a000080200026
:1010d0001800600006003200080078008dff07004d
:1010e000800078000080eb000100e00009003a0079
:1010f00001c02000988060000000eb000500320075
:1011000048009000600498000000eb0001003700e8
:101110000080eb004f05be004f04be00000006003b
:101120008001780002003700b15978000201e9001f
:101130000200e000fcff3a0000000600800078009a
:10114000010178003104e000fdff3a000000510089
:10115000000006000001eb0000027800b0417800ba
:1011600081cf510001003a00040178000304e0003f
:10117000f9ff3a000200780000000600889fbe00d8
:101180008a1f780000047800c80090006801900071
:101190000000eb00828f50003c00390018007800fe
:1011a0002200290002016000e20f51000700320016
:1011b000012024000000e00001003d00012020008b
:1011c000008c70000080eb00300037000200260029
:1011d00002006000820f500009003a0038009000c1
:1011e000808f5000060039000800780049ff070092
:1011f000800078000080eb000100e00023003a004e
:101200001805780000c020000000650018003a00b2
:10121000a80490006002200008004000808f540065
:1012200013003a0000202000ab05070020049800be
:101230000000e00005003a002904980049049800e5
:101240008904e80039049800080037000a60a0000b
:101250000a0c7800400498000120200080804000a3
:1012600031049800400c9800500c98000c000700c6
:101270002800900050049800380090006004980006
:1012800000002600180c70000000eb004f057800ed
:101290004f04be0000000600409f2000620037009f
:1012a000881f7800481621001804e00003003a0067
:1012b000f9ff070020c0b300004c78004f0478000d
:1012c00000000600889fbe00000478000800780037
:1012d00010ff07008004780066800a0018000000f4
:1012e0000000e0000200320028009000ac0407007b
:1012f0000000eb0020049800384090000004e0005b
:10130000050035000000fb0032fd07000000e00092
:10131000010032008084eb00181090000000e00013
:101320000800320034fd07000000e0000100320038
:101330008084eb0018109000990407000000eb0077
:1013400010149800000820001800600015003200fa
:101350000001eb006000b800a30921000202d000e8
:1013600063027a00880f520005003a000000400036
:1013700081804800008041000008eb000600370033
:1013800061004000e08048000201e800e80f5000e2
:10139000e08f5800f0ff3a00080078008004070052
:1013a0000e003700000c780000c0eb0030449800bd
:1013b00060022000080040002004980040049800cb
:1013c00050049800400c980060049800500c98005d
:1013d0007004980076004400000c98000900780022
:1013e0004f04be0000000600881f78000004eb00d8
:1013f0006140b800e2ff2f00f3ff2f0059090700fa
:10140000820a2100620078000000e0000100320042
:10141000acff07000804e800e80f5400f4ff3a00ae
:101420004f04780000000600010020000100e000e9
:1014300008003200010080000100e00005003200d9
:101440008100e900010088008100d00002008000d6
:1014500000b1780000000600889fbe0000047800fc
:101460000100780082047800880178000901780082
:10147000110020007c040700890f50000100320099
:101480000004eb00080078004f04be0000000600d6
:101490000000fa00e88157004fb99700a10421002d
:1014a000c0a22000020007000080fa000000060031
:1014b0006200fa00889fbe008a1f7800000578004d
:1014c00081047800020478008300780080f92f00fe
:1014d0000f0040005f0707009a979f00a9979f00a1
:1014e0000000eb00b09f9f001885fb008a04fb0002
:1014f0000a05ea004f55de0050022000808f54009c
:101500000d003200e10f55000b003a000a0178008f
:10151000880078002f9097009f91970003000100aa
:10152000a0979f000000e0008e0032003f989700d7
:101530000000e800b09f9f000a0444005002200011
:10154000808f5400040032000900e000e6ff3a00fa
:101550003f989700840037000000eb00909f9f00a9
:10156000809f9f00f0979f00e0979f00d0979f007b
:10157000c0979f000700370081152100010050002f
:1015800000004000c114210061007800df9897003e
:1015900001007000d09f9f00880478000904780043
:1015a000384578008a00fb0080152100fe04070002
:1015b0000000e000f0ff3a00a1c2b300814f5500e7
:1015c0000e003a00cf8897000180e900c08f9f008d
:1015d00010007800c09f9f000000e00005003d0063
:1015e0000000ea00c09f9f005f9897000020a000c5
:1015f000d09f9f000904e8000f003700c09f9f00a4
:101600000000eb0005003700f2ff2700820f5000ba
:10161000020032006a01b90002804000090478002b
:1016200088047800b900fb000103b100e98f500085
:10163000f5ff3600c09f9f00e0c2b300984f100036
:10164000020032000080eb0019003700a0c2b30096
:10165000d84f100007003a00cf8897000180e900ba
:10166000c08f9f0010007800a09f9f000804e80032
:10167000100037000000eb00a09f9f00880078005a
:1016800005003700f3ff2700830f500002003200ef
:101690006a02b90004004100010478008800780063
:1016a0003101fb000203b100e90f5100f5ff3600e4
:1016b000a09f9f00984478008900fb0040142100ff
:1016c000b90407000000e000020032000804e8004e
:1016d000010037008044eb00c97f9f0080c6b30043
:1016e00080cf540004003a0098cf14000a003a005a
:1016f0006640500006003700c0c6b30080cf5400db
:1017000005003a0098cf140003003a0065404000fd
:10171000c07f9f000804e8001801fb00e3fb2f00d6
:101720008f81410081f92f008f804000a0f92f00a8
:101730000f004000100007000000e00009003a0020
:10174000e1fb2f008f804000a0f92f000f00400028
:10175000040607000000e000020035000804e8006d
:1017600061ff37000080eb004f0578004f04be009a
:101770000080fa0000000600889fbe008a1f7800e3
:1017800000047800824478000305780070c6b30036
:1017900080cf54001a003c0000c0e90080cf540004
:1017a000cd003d006d40500080cf540077003200e6
:1017b0000b003c007140500080cf540035013c00cc
:1017c00000c0e90080cf5400c3003d0050c2b30008
:1017d00080cf54002c0132007c40400005003700cf
:1017e00030c6b30080cf54001a0032001e003c0007
:1017f00000c0e90080cf540026013a00b60037004f
:10180000f0c6b30080cf54006000320007003c00f7
:101810006640500080cf5400130032006540400005
:1018200080cf54001b013a00d400370050c7b300ea
:1018300080cf5400550032006340400080cf5400f8
:101840005200320002c7b30082cf540011013a00a7
:10185000ff0037001181e9008208780078009000cd
:10186000127578001101370028609000c2c6b300dd
:10187000824f500007003a001101780064005100c7
:10188000800878001000be004f89de0082017800d9
:101890001400370012c7b300824f500003003a0013
:1018a000110278006800520005003700a2c6b3009c
:1018b000824f500006003a00910278006880520082
:1018c000800878005001be004000be0005003700cf
:1018d0001180e9008008780010007800cf80de00d9
:1018e0006109b900009cbe000294be00286290000d
:1018f00085c6b300854f52000d00320025c6b300e7
:10190000854f520004003a000000fb00cf80de004b
:101910006109b9000800370045c7b300854f520080
:1019200003003200e6c24200854f520004003a0034
:10193000cf80de006109b900009cbe000294be00a9
:101940003802be002803be0078009000d1c2b30068
:10195000e00f5200e08f5a00e00f5b00e08f5b0069
:1019600008003500881090000118a3000200320022
:10197000b1c2b300030037000108a30051003200d8
:1019800001c2b300017578004c0037002860900058
:10199000c2c6b300824f500008003a00110378001d
:1019a00064005300800878001002be006033b80065
:1019b0000400be000601be001400370012c7b300c9
:1019c000824f500003003a00910278006880520074
:1019d00005003700a2c6b300824f500006003a004f
:1019e0001103780068005300800878005001be00a1
:1019f0004000be00050037001180e9008008780033
:101a0000100078008000eb006011b800009cbe0060
:101a10000294be002862900085c6b300854f520034
:101a20000d00320025c6b300854f520004003a0075
:101a30000080fb008000eb006011b8000800370058
:101a400045c7b300854f520003003200e6c2420092
:101a5000854f520004003a008000eb006011b8008e
:101a6000009cbe000294be00081090000038a30045
:101a7000140032003800be002801be00e00f500004
:101a8000e08f5800e00f5900e08f59000d00320040
:101a900080c7b30080cf54000300320080c5b3007c
:101aa00080cf540007003a007800900001c3b300d3
:101ab000017578000000e800097578000000e80072
:101ac0007004980078009000000545006a049800b2
:101ad000894078006900370028619000c0c4b300d5
:101ae000804f510006003a0091037800688053004f
:101af000800878005001be004000be00050037009d
:101b00001101780064005100800878001000be00c8
:101b1000cb060700009cbe000294be00b8009000f7
:101b2000780090000100e00002003d00d1c2b30047
:101b300008003700881090000118a300020032004e
:101b4000b1c2b300030037000108a3000400320053
:101b500001c2b300017578000000e800700498002d
:101b600078009000000545006a0498008900fb0099
:101b700008007800530007004e00370028619000ed
:101b8000c3c6b3001180e900834f51002400320026
:101b90000a003c00e4c15100834f5100270032008d
:101ba00083c1e800834f51001500320020c6b30006
:101bb000804f510020003a000a00370043c7b300ad
:101bc000834f51001d003200e6c14100834f510098
:101bd0001a00320010c7b300804f510016003a00bf
:101be000060037001180e9008008780010007800b6
:101bf000485c9000084878002e0037001180e9000a
:101c00008008780010007800680a9000cfa2de00fb
:101c1000612bb9000498be000690be002500370075
:101c2000800878001000780068099000cf91de00ed
:101c30000288be001f0037001180e900800878008c
:101c400010007800680c9000080878001900370030
:101c50001181e9008208780012027800cfa2de002c
:101c6000612bb900049cbe000694be00f8009000f1
:101c7000010545006a04980080407800080078005b
:101c8000890307000b003700780090000975780081
:101c90000600370078009000000545000904e000c8
:101ca00001003a0059c2b300094d78000000e80075
:101cb000700498000000eb004f0578004f04be0050
:101cc000000006002f04b000889fbe008a9fbe005f
:101cd0008c9fbe008e1f78000007780081f79f0060
:101ce0003e04be002e05be005e0890000000e0002d
:101cf00002003d0060002000500f98008e00780028
:101d000020fb2f000f0040003d030700e20f5000b2
:101d10000a003a0030002000100f9800b1c9b3004b
:101d20000ff0970081404000e00a2100e1cf500011
:101d30000d003e00a00a21000b0037000000e0006b
:101d40000f00340030002000100f9800b1c9b3001c
:101d50000ff1970081404100600b2100e1cf50005e
:101d600001003e00200b2100ee009000b0487800fa
:101d7000b06878001040780090409800f300370079
:101d80000000e00005003a0022fb2f000f01410097
:101d9000001978008001eb00e70037006022b800ee
:101da0006033b8000800be000a01be007b050700d2
:101db0000000e00001003d000bf0a2007059270078
:101dc0009f9897000088b900026a2800130020003d
:101dd00029fb0700640650009c9f9f0013003b00f6
:101de00063061600c0ff2f00000666008c01ea00a3
:101df000939f9f00ad0b21000800be000a01be00aa
:101e0000070037000c08a300030032003d02be00ab
:101e10002d03be00580607000c86d100e886460058
:101e20000c00e000f7ff3c00180037000c00e00059
:101e300018003200c0ff2f00000666009c9f9f0024
:101e4000ad0b21006000b8000200200003ff23005a
:101e5000070037000c08a300030032003d02be005b
:101e60002d03be00440607000c86d100e88646001c
:101e70000c00e000f7ff3c000002be000203be00c1
:101e80000800be000a01be004e0507000004be00a7
:101e90000205be00de08900060c6b3000ff2970096
:101ea000804f5200040032006000200062c4b30082
:101eb000824f520002003a009f9a97006a804200c7
:101ec00081004000f1b79f0001037800f30f530039
:101ed0000200340037012000f7b79f0000c3b300b1
:101ee000c0779f0056fb2f000f0343000e007800c1
:101ef000a0b79f00060778003d0037000800be002d
:101f00000a01be00ed0507000006be007fb1970084
:101f100068015100f2b79f004240a9000c00340054
:101f2000120607000002be000203be000800be0049
:101f30000a01be00860607006022b80046782d0020
:101f4000771924000c0607000004be000205be003d
:101f5000e80047008e0020000802be000a03be0011
:101f6000b4b79f00c5b79f00d6b79f00e7b79f00e3
:101f70000c01be00010478000c003700a400200012
:101f800005002000c0fd2f000f0040000a020700de
:101f90006fa89700ffa897000fb197009fb1970017
:101fa00005c3b300056441000001be00e00f51000d
:101fb000e08f5900030034000e07e900e10f4700ed
:101fc000eeff3a00880078003fb49700cfb4970046
:101fd0005fb59700efb597000200370000c3b3006c
:101fe000806078000e07e900fcff3b006887400036
:101ff0007fb397000600e000070034006022b800bd
:102000006033b8000800be000a01be00e804070003
:102010000000e000b9ff3c000e0378002fb79700e6
:1020200051fb2f008f804000010353009f9b9700be
:1020300067804300909f9f00020037000603e9007d
:102040000000e900010178008200780003c3b300ba
:10205000b1cf1100f9ff3200909f9f00de09900080
:1020600061c6b3000ff29700814f520003003200a7
:1020700061c4b300814f520002003a000000e80042
:102080000a0037001000200051c6b3008ff29700fd
:1020900081cf5200050032000540780050c4b200e4
:1020a0000080fb000000e9004f00de0083014000db
:1020b000868f510001003400860178000300e000a3
:1020c0001d00350000c3b300868f510006003d009f
:1020d00062c279006940400041c3b300814f5200a1
:1020e00001003c00694050008300e900810041008c
:1020f00001003700840178000302e9000103780041
:10210000a142780080cf5200faff320091c3b300a1
:10211000814f500001003a00054be8000400e00048
:1021200005003d000201e9008301e8001f9b9700c4
:102130000603e800969f9f008ff397008700fb003f
:102140001f9a97000e007800060007004f077800de
:102150004f06be004f05be004f04be002f04b10065
:1021600000000600f0874700889fbe008a9fbe00df
:102170008c9fbe008e1f7800000478008144780098
:102180000205be00040678000b00e00002003c00df
:102190001b0020006a16210060c6b30080cf5400e7
:1021a0000e00320060c4b30080cf54000b00320038
:1021b00070c6b30080cf54000300320070c4b30077
:1021c00080cf540081003a00e40f46007f003500c4
:1021d00058089000800f56007c003d000c06e80077
:1021e00060c6b30080cf54001000320060c4b3005a
:1021f00080cf54000d003200081090000038a3007a
:1022000004003a0058089000808f550001003d00fe
:102210005b0c9800580890000c005000500c98007f
:1022200002003b000000eb00500c980018089000e2
:10223000e80090000c00e00026003c0002c3b30060
:10224000827078000000e800100c9800d808900018
:102250000100e00003003c00881090000138a3005a
:1022600005003200e8009000e2c2b30082707800fe
:102270000000e800100c9800580890008c00ea005c
:10228000810f500001003d000006ea008c00ea00ca
:10229000210c9800000646005c0c98008b0f56003d
:1022a000010034000b0678003c0c9800e800900018
:1022b00018089000008040000c0178008a00780027
:1022c00097fb0700580890000c0650004c0c980033
:1022d000900037008c8f550018003d0000804000b2
:1022e0000b0178008a0078008dfb07001808900029
:1022f00000804500100c98008b0556002b0c9800b0
:10230000d80890000100e00003003c008810900015
:102310000138a30006003200e8009000e2c2b300da
:1023200082707800380890000000e800300c9800b7
:1023300058089000400c980076003700008040005c
:102340000c0178008a00780075fb070018089000df
:1023500000004600100c98008c855500d8089000ad
:102360000100e00003003c00881090000138a30049
:1023700005003200e8009000e2c2b30082707800ed
:102380000000e800100c980058089000808f55005d
:102390000100340080057800e800900018089000e3
:1023a000008040008c0045000b0178005cfb0700ba
:1023b000180890000b004000100c9800580890007e
:1023c0008b0550002b0c9800520037001808900025
:1023d000e80090009a7078000000e800100c980067
:1023e000d80890000100e00003003c008810900035
:1023f0000138a30005003200e8009000e2c2b300fb
:10240000827078000000e800100c980058089000d6
:102410000000e000100034008b05e900808f5500bb
:102420000100340080057800e80090001808900052
:10243000008040008a00e8000b01780038fb0700ac
:10244000180890000b004000100c980058089000ed
:102450008b0550002b0c9800e800900018089000a5
:1024600000804000095878000007e8000c00e000f8
:1024700004003500b1c2b300014878008e04780032
:1024800004003700d1c2b300014878008e04780000
:102490000c06ea007d8557008006eb000900370036
:1024a000a20020008c0078007280570031000700e5
:1024b0007fb097008fb89700016d78000006780014
:1024c0008d06e8000c00e000f5ff3c000d00e00088
:1024d00009003a008e04780000c3b300805c7800e5
:1024e000050037008d06e900fc80570061c07e00c2
:1024f00002c3b300825c40000d00e000f9ff3c0025
:10250000e80090001808900000804000808454008b
:10251000390c98000810900074006000f00f500013
:102520000e003a009808900078009000008040006b
:10253000a808900001004000b80890000100400089
:10254000c808900001004000f8089000810f50007a
:1025500002003d0000805000000c98004f077800fa
:102560004f06be004f05be004f04be000f01b10074
:1025700000000600800278000103780005000900d1
:102580000203d80080017800830a78000299b9001c
:102590000201530092029800050078000000060036
:1025a0000000e0002f003200c0017800e38f5100ee
:1025b0002c0036000308a3002a003a00018b80009b
:1025c0000100e00002003200810f500004003100e1
:1025d00011009800008b88001600370082007800f8
:1025e000110190000200e00002003200800f510053
:1025f000faff39001102780084824000850f5000f4
:1026000018003900808f520003003a00830842000e
:1026100001007800070037000200e00003003200ec
:1026200083014000830f51000e0039001200980012
:1026300090009800900090000100e0000900320036
:1026400010014000828f500006003a00e215210080
:102650000009eb0010017800110841009100900082
:102660001100980000000600889fbe008a9fbe00ef
:102670008c9fbe008e1f7800000678000104780051
:1026800002007800830478000881b900020778000e
:102690000200e000420032000800e0004100320089
:1026a00082057800c900900069009000808f50007a
:1026b0000400390009007800b0fa07000000e000cb
:1026c0002900350000402000190060000a00320097
:1026d0000b017800a10020000c007800a800070082
:1026e000800678000d00e00006003200610516004b
:1026f0000a854600040037000b0578008006eb00d1
:10270000010037000b05780049009000e9009000b7
:10271000808050008a8f500002003100010578004f
:102720008006eb000a0178008c0078007cfa070034
:102730008a855500490090000a004000c0049800b6
:102740000d00e0000400320009007800f1f90700f4
:102750000000e00004003a000b00e000020032003c
:102760000a064600cfff37000080200019006000f5
:102770000200320009007800e6f9070000c02000de
:10278000190060000200320049009000e004980047
:102790008b055700050009008885d8000100370027
:1027a0000000eb004f0778004f06be004f05be004b
:1027b0004f04be0000000600881f78008a9fbe00fc
:1027c0008c9fbe00000478000205be000406be0017
:1027d0000401be000a00be00a7f80700008cbe007e
:1027e0000c01be005f0407000005550081855d00f7
:1027f0002a0498003b049800080078004f06be00a9
:102800004f05be004f04780000000600889fbe0000
:1028100000047800f18a80000100e000020032002c
:10282000010078000d003700018b800000162100a8
:1028300004003700910f5400250036000180e800a5
:10284000910090000100e000faff3a00100037000c
:10285000920f54001e0036000280e800100178003c
:102860000200e000faff3a0011017800018b8000bd
:102870000016210004003700910f540014003600a8
:102880000180e80091009000828f5000faff3a002a
:10289000498b8000888f5400010031008804780043
:1028a000090078004c0007000000e00004003a0036
:1028b000888f5400050032008904d100f5ff3700ed
:1028c0000918780036ff0700d2ff37000000eb0040
:1028d0004f04be0000000600881f7800630440001b
:1028e0000800a1008000eb00800f5400210036009a
:1028f000e30f540001003e0048002000080078006b
:10290000c2ff07008000eb000000e0001900320069
:10291000900078009101780064815100880f510087
:102920000300310011019000020878000700370011
:10293000088140000208780091019000130198007e
:10294000100178001109140088087800100178003f
:102950000000eb000200e000040032009201900051
:102960000300e000010032000280e800f08a8800e5
:102970008180e800010078004f0478000000060024
:1029800003003700b0cf1000050032000201e9005b
:10299000800178000200e000faff3a000000050024
:1029a0000300780000000600020037000304e00086
:1029b000060032000001780002007800b041780083
:1029c00081cf5100f9ff3a00010037000001eb0010
:1029d0000200780000000600800078000000eb0094
:1029e0000100e00005003400010078008bf70700cb
:1029f000e10f400001003a000000eb00000006007b
:102a0000889fbe0000047800e6844000e4800a004d
:102a100019000000f27f2000820f500010003a00e1
:102a2000000ceb00990478006f8164002000200006
:102a30001b003a00210190000200e00018003a005b
:102a4000110190000200e00015003a001000200083
:102a50001100e000120032002000200010003700ba
:102a60000000e00004003a0001007800fb010700cc
:102a70000000e00008003c00f2002800190161009d
:102a800001fe2300810c710021c02f00010c4000c9
:102a90000080eb0002003700000ceb000000eb00b0
:102aa0004f04be0000000600fc874700889fbe0060
:102ab0008a9fbe008c9fbe008e1f780000067800a3
:102ac00080c5b30080cf50000a003200774040003c
:102ad00080cf50000a0032006940400080cf500093
:102ae0000b0032003011210080bf9f00ae0020009b
:102af0000a0037002210210082bf9f000600370025
:102b00003311210083bf9f008e0020000300370097
:102b10003411210084bf9f000e0120003c02be0042
:102b20002c03be000605be000404be0040c6b30070
:102b300080cf5000030032006540400080cf50003d
:102b40000b003a00e00f5200e08f5a00e00f5b00ec
:102b5000e08f5b0006003d006000b8006011b80027
:102b600004045000858458000605590087855900e3
:102b7000e80f57000400320040002000f00f57001b
:102b800038003a000100370030002000e00f540008
:102b9000e08f5c00e00f5d00e08f5d0004003a0014
:102ba000dc0890008d0120000100e00006003200ea
:102bb0008e00e900888060008fba9700e5c0780039
:102bc000f1ef9f007d012000800078008100e90086
:102bd000050033008b05d1000a85d3008984d3001a
:102be0000884d300f9ff3700089ebe000a96be0095
:102bf000120037008d06e9008e00e9008480600035
:102c00000fb99700e2c1780082fd2f000f0141004b
:102c100003f17e00800078008100e90005003300a8
:102c20008783d1000683d3008582d3000482d3003a
:102c3000f9ff3700049ebe000696be003c02be00af
:102c40002c03be00e00f5200e08f5a00e00f5b0043
:102c5000e08f5b008b0034000d00e000e5ff3c00de
:102c6000880037002c60900081c6b300814f50006f
:102c70000b00320006003c000004e00008003200b7
:102c8000e6c05000814f50004e003a00040037006b
:102c9000c1c6b300814f50004a003a0021003700fe
:102ca0000800e00004003a005c0890008d0120005c
:102cb0000000e00006003200050009000e84d80084
:102cc0000fb99700e2c07800f1ef9f007d0120006e
:102cd000050009000e84d8000a003700050009002d
:102ce0000e04d8008d06e9000e81b90002045400dc
:102cf0008fb8970061417c0081fd2f008f804000dc
:102d000082f07e00000478000800e000020032003b
:102d10000d00e000f1ff3c00cfc4de00614db900c2
:102d200025003700e00f5400e08f5c0004003a00fb
:102d30005c0890008d0120000000e00007003200d8
:102d40006171b9000800be00030307008fb9970046
:102d5000e3417800f3ef9f007d0120006171b9002d
:102d60000800be00cbf707000b0037006171b90007
:102d70000800be0040f707008d06e90000f1b90029
:102d8000020454000fba9700e4427c0084fd2f0037
:102d90000f02420005f27e000004be00e00f50006a
:102da000e08f5800020032000d00e000efff3c0011
:102db0004fcdde008a057800089ebe000a96be0050
:102dc00030003700e00f5400e08f5c00e00f5d0042
:102dd000e08f5d0004003a005c0890008d01200047
:102de0000000e000090032006172b900612bb900f7
:102df0000800be000a01be00800307000fba97005a
:102e000064427800f4ef9f007d0120006172b900f8
:102e1000612bb9000800be000a01be007003070064
:102e20000d0037006172b900612bb9000800be00c7
:102e30000a01be00750307008d06e90000f2b90023
:102e4000040454008fba970065427c0085fd2f0072
:102e50008f82420084f27e00009ebe000296be0079
:102e60003c04be002c05be00e00f5400e08f5c0067
:102e7000e00f5d00e08f5d00020034000d00e00017
:102e8000e8ff3c00e80f570010003a000c109000db
:102e90000038a3000d003200f78f560006003e00f8
:102ea00085fd2f008f824200e5c07e0000c3b30085
:102eb00080cf5000050032008d06e90002c3b30048
:102ec00081fd2f008f80400082f07e007881160007
:102ed000120e98006c00900083fd2f008f8141003e
:102ee0008d8041008ef807001c089000dc089000df
:102ef000810f500006003d0000805000000e980039
:102f00000c1090000040a100001698000f00370040
:102f10000100e0000d003d008c109000f480600086
:102f2000f08f500009003a007c099000fc009000ee
:102f3000810051000c0990008280500000805000f8
:102f40004240a90001003400000e98004f077800ad
:102f50004f06be004f05be004f04be00cf01b100ba
:102f6000000006000400fa00889fbe008a9fbe0091
:102f70008c1f78000004780001067800f80d90009e
:102f800078009000808555000808900080855500e5
:102f9000180890008085550028089000808555000d
:102fa00038089000808555004808900080855500bd
:102fb0000002220090bf9f0000032300a0bf9f00db
:102fc000081090000028a30015003a000b00e00054
:102fd000130034000b0578008a047800e20f5500d6
:102fe0000100360029002000c80190000901780086
:102ff000ee80570058009000030001005004980034
:103000000000e0008c0032006808900009004000d9
:10301000600c9800090555004240a900eeff3c00f5
:10302000780190000200e0000c003400c80190001c
:103030008c007800580090000300010050049800b4
:103040008080eb000000e0007c003200e808900087
:103050007800900000804000600c9800880c900080
:103060000900e0001100340009057800e28f5400e7
:10307000010036002a002000c80190000a017800f3
:10308000ec805700580090000300010050049800a5
:103090000000e00068003200680890000a0040006c
:1030a000600c98008a845400edff370018099000e6
:1030b0000200e0000c003400c8019000e80090001d
:1030c0005800900003000100500498008080eb003d
:1030d0000000e00059003200e80890001808900055
:1030e00000804000600c9800a80c90000900e000ef
:1030f0001100340009057800e28f54000100360009
:103100002a002000c80190000a017800ec805700d6
:103110005800900003000100500498000000e000f7
:1031200045003200680890000a004000600c9800da
:103130008a845400edff3700380990000200e00057
:103140000e003400e80090001808900080804000d5
:10315000c80190005800900003000100500498003e
:103160008080eb000000e00034003200e8089000ae
:103170003808900000804000600c9800c80c900057
:103180000900e0001100340009057800e28f5400c6
:10319000010036002a002000c80190000a017800d2
:1031a000ec80570058009000030001005004980084
:1031b0000000e00020003200680890000a00400093
:1031c000600c98008a845400edff370008109000ce
:1031d0008000eb000028a300180032000b00e00084
:1031e000160034008b04780009057800e28f540043
:1031f000010036002a002000c80190000a01780072
:10320000ee80570058009000030001005004980021
:103210000000e00008003200680890000a0040004a
:10322000600c98008a8454004240a900eeff3c00e4
:103230008000eb00010037008080eb000100780087
:103240004f0678004f05be004f04be000080fa0014
:10325000000006000108780000000600e6004000bb
:103260001101780005002800850261006f016100ee
:10327000820878000200320012002000110037009e
:10328000a0019000120020000300e0000d003a00b1
:10329000900190000300e0000a003a001000e000f6
:1032a00008003a00360037006403400096087800b2
:1032b00080017800530b78009009780004087800aa
:1032c00070015100110278000400e000f6ff3200a6
:1032d0001300370064024000140378004f33de000f
:1032e000838141008308730080017800d303780054
:1032f000cf3bde001403780006034300068a730008
:103300001302780004024200100378004f33de00fd
:103310008609720090017800038841000201e900eb
:1033200091017800ef8f5100eaff3600100037005e
:1033300080017800530378004f33dd001002d10084
:10334000040873006402400094037800cf3bdd0062
:103350001303d10086897300110378004f33dd0019
:103360009401d100030a73009108d1000201e80022
:1033700091017800ff8f5100edff3e00ef88610062
:1033800091887200020078000000060000c0da0098
:103390000000060000c0da00000006008f1fd10008
:1033a000f70207008f87e9000000e0000000060038
:1033b000809feb00f20207008f87e9000000e00029
:1033c000000006002800fa00889fbe008a9fbe0009
:1033d0008c9fbe0003866b00800007006400e10044
:1033e000440032006408e1004a0032006100e1005c
:1033f000460032006108e10049003200ec06470057
:103400006000b8003d02be003d03be00f4865700d8
:103410006011b8003d04be003d05be007d032000e4
:103420000b0037000000a0008d06e90013003200f9
:103430000402420085824a0006034b0087834b004a
:10344000000040008180480002014900838149005a
:103450000802520089825a000a035b008b835b00da
:10346000f0ff3b000802420089824a000a034b0039
:103470008b834b008d06e900edff3a0084827200d9
:1034800086827200f707b200878272000100320064
:10349000150020001e0490003e0b9000060354000f
:1034a000e63fb0000368a300070032000000a70059
:1034b0000500a0008301d1000281d3008180d300e8
:1034c0000080d3000603e8008301d1000281d3000d
:1034d0008180d3000080d3000002eb000482d20080
:1034e0001200070003f0a1000cf0a70003f0a000f9
:1034f0004e003700640247006408e10048003200d3
:103500003400be003401be00f6ff37006108e10060
:10351000430032006011b8006000b800f1ff3700ce
:1035200003ff270002002000fbff370018002000e7
:1035300057002000080453000d003d000600200045
:1035400097fc2f000740e1001e00340084827200c7
:10355000610260008301d1000281d3008180d30029
:103560000080d3000804e800f8ff3a00470020007c
:103570006104600005047400040464000d0032005e
:1035800061004000e080480060014900e08149009e
:1035900003b8a500070032000603e8006538e10023
:1035a00004003a008301d1000281d3008180d3005e
:1035b0000080d300f87f20000830e10003003500d0
:1035c000080378006000b8006011b8004433dd00e3
:1035d000f300b20083017300000006006804470096
:1035e0000294be000094be00fc0447008694be0016
:1035f0008494be0009007800aa0207000800780041
:10360000a802070099007800814f70000b003b0072
:103610000800be00830207004f00b100030037001e
:10362000f3ff2700f2ff2f006110b9004f06be0024
:103630004f05be004f04be000080fa0000000600e7
:1036400081037800edf507000001be006000b800be
:103650000478a30013003a006220e10015003e0048
:103660000d0039008301d1000281d3008180d30095
:103670008301d1000281d3008180d3008301d10076
:103680000281d3008180d3000538b000c42add0058
:10369000f300b2008381720007f0a70003f0a000de
:1036a00000000600f3ff2700f2ff2f006110b900b1
:1036b000fbff370003ff2700f7ff37001400fa0075
:1036c000889fbe008a9fbe008c9fbe000004be0083
:1036d0000205be00680047000a90be000890be00c8
:1036e000700207000070a7000bf0a100304320001b
:1036f0009e02900080825200b0fe2f000028e10060
:1037000011003d00b0fc2f000028e100150034003e
:103710001e0990008e0890007e0090000501b00008
:103720000201d1008180d3000080d3008502e8002f
:10373000fbff3a000b00e000bcff3b006000100004
:10374000e0801800b9ff3700f0ff2f00f1ff2700dd
:103750000b00e000b5ff3b00010028000000200046
:10376000b2ff37006000b800b0ff37004f89de00bd
:1037700082017800720237002800fa00889fbe009c
:103780008a9fbe008c9fbe0003866b0093ff0700dc
:103790000028a30064003a000128a30067003a0053
:1037a0000008a30062003a000108a30065003a0087
:1037b0001e009000be08900081064000ed3fb10061
:1037c000f4805700ee019000111ab8008e099000a5
:1037d000311bb8009e099000311cb800511db80083
:1037e000f485570046000700fe0190003a000700ec
:1037f0008b85e8003e0007008e099000400007001e
:10380000ee019000340007008b85e80038000700c7
:103810008e099000400007009e0990001b18b80018
:10382000890440000a854800fe019000340007002a
:103830008b85e80038000700ee019000300007009b
:103840008e0990001b18b800890440000a854800c2
:103850000a98a30008003a000402420085824a0048
:1038600006034b0087834b0008044c0089844c00fe
:103870000a054d008d06e9008482720085027300fe
:103880004c3add0085027200010032001500200074
:10389000443ade001400b2004538de00cb45dd00be
:1038a0000b007000c540de00cb4ddd008b8070004a
:1038b0004549de00cb55dd000b017100c551de002e
:1038c0000d03780019ff070003f0a1000cf0a7001a
:1038d00003f0a00055ff37001b18b8008502400018
:1038e00006834800e0834b0060044c00070037006b
:1038f0001b18b8000603400087834800faff370012
:103900001b18b8008703400008844800e0844c007e
:1039100060054d00000006001b18b80008044000b8
:1039200089844800faff37000108a3003cff3a00f1
:103930005800be005801be00e3ff37000008a30096
:1039400037ff3a0009047800f9ff37000000000053
:1039500007f0a2000c013700cef407000400be00ff
:1039600000000600020ab900001bb9000200b800fe
:10397000810042008100430000000600889fbe00d5
:103980008a9fbe0030044200b0844a0030054b00dc
:1039900090854b006000b1000898be000a90be0000
:1039a0000440e10005c8e10006d0e10007d8e100cd
:1039b00002003100680040001008e8004f05be001a
:1039c0004f04be0000000600889fbe008a9fbe0014
:1039d0003004be002005be000418540005985c00a9
:1039e00006185d0007985d00110020000440e1000a
:1039f00005c8e10006d0e10007d8e1000100390068
:103a00008000eb00108810004f05be004f04be0080
:103a1000000006001200fa00889fbe008a9fbe00c8
:103a20008c9fbe00e0b79f00f1b79f0082bf9f0050
:103a300093bf9f000605be000404be000000eb001b
:103a4000d0b79f00c0b79f00b0b79f00a0b79f003e
:103a500090b79f000006eb005fb19700cfb09700d2
:103a6000820141003fb097000200e00004003d00e9
:103a7000370007007e805700c0ff070003003700b3
:103a8000330007007e805700cfff0700dfb69700a6
:103a90000d00e0000c0035006fb29700ffb29700f8
:103aa0000fbb97009fbb9700100020000100200073
:103ab0006011b8000002720081827200020373007c
:103ac000838373001b0007000c06e800010420003c
:103ad000810f5600e0ff3a000d00e00004003d00b9
:103ae0000802be000a03be007e805700a3ff070045
:103af0005fa897000000e00005003a001fb29700a1
:103b0000afb297003fb39700cfb39700090007000b
:103b10006fb09700ffb097000fb997009fb997005b
:103b20004f06be004f05be004f04be000080fa00e5
:103b3000000006000100070000000600a4b79f0077
:103b4000b5b79f00c6b79f00d7b79f00000006001b
:103b50004f09de0082817100b3b79f004f01de0084
:103b60008180400082807000a1b79f008fb09700d5
:103b70004f09de00000040000200700090b79f0077
:103b80007fa897004f01de00818040008280700096
:103b900081b79f000d0007004f3ade000000400093
:103ba00004007000f0af9f0008000700040242000c
:103bb00085824a0006034b0087834b00dfff070026
:103bc0000802be000a03be00000006002fb29700e4
:103bd000bfb297004fb39700dfb397000000060015
:103be000881f780018002000881f780089ff0700d0
:103bf0008f87e9004f04780000000600801feb006b
:103c000084ff07008f87e90000000600889fbe0040
:103c10008a9fbe00e00f5000e08f5800e00f59006f
:103c2000e08f59000c003d006044b8006055b800ba
:103c30000000540081805c0002015d0083815d0012
:103c4000180020001500070008003d0018000700bc
:103c50000004eb00050037000004eb000f00070034
:103c600002003d001200070018002000dcff0700e2
:103c70000800e000060032006022b8006033b8009f
:103c80000000520081805a0002015b0083815b00ca
:103c90004f05be004f04be0000000600e00f5200ba
:103ca000e08f5a00e00f5b00e08f5b000000060031
:103cb0006044b8006055b8000402540085825c007e
:103cc00006035d0087835d0000000600889fbe003c
:103cd0008a9fbe008c1f7800e00f5000e08f5800d4
:103ce000e00f5900e08f59000d003d006044b8001e
:103cf0006055b8000000540081805c0002015d0046
:103d000083815d001c0020000820e10009a8e1007b
:103d10000ab0e1000bb8e1000d003d0008003700db
:103d20000006eb00e00f5200e08f5a00e00f5b004e
:103d3000e08f5b0006003d006044b8006055b800ad
:103d40000402540085825c0006035d0087835d00e9
:103d5000aaff07000c00e000060032006022b80055
:103d60006033b8000000520081805a0002015b00fd
:103d700083815b004f0678004f05be004f04be00f4
:103d800000000600000000002800fa00889fbe0026
:103d90008a9fbe008c9fbe00070678008786690058
:103da0000c003b00030478008704780008f0a100b1
:103db00009f0a100840f5000858f5800860f59002c
:103dc000890f5c00030033000cf0a20001003a00f0
:103dd0000cf0a10001fe07006400e1005f0032006a
:103de000780147006408e100610032006c0147007f
:103df000748557003200be001201be003a04be00b6
:103e00001a05be001e039000be0a900085035300f1
:103e100006003d000004fd008104fd000205fd00d8
:103e20008305fd008703ea00050378000df8a30071
:103e30000400320060041400e0841c0060051d00d2
:103e4000e0851d006022b8007d0320000d38e100f0
:103e50008006eb000b0039004433dd00f300b200b4
:103e60008301730039003700848272000d027800ec
:103e7000e10664008b85d1000a85d3008984d300d4
:103e80000884d3008703e900f7ff3b0008004000e7
:103e9000898048000a0149008b81490004003b00e9
:103ea00060001000e080180060011900e081190036
:103eb0000358a300090032008d82720084827200d0
:103ec000610260008301d1000281d3008180d300b0
:103ed0000080d3000603e8001b0037000348a3005e
:103ee00017003a000600e000170034000603e9005e
:103ef0000d00a30000004800818048000201490035
:103f0000838149000348a3000f003a000600e00047
:103f1000090034000603e9000000400081804800e9
:103f2000020149008381490001003a000003eb00cf
:103f30000348a300f5ff32006022b80002003700fa
:103f4000848272006182660078fd070003f0a100a0
:103f50000cf0a70003f0a000b4fd37006401470097
:103f60006408e10002003a000df8a300acfd3a003d
:103f70003200be001201be00acfd370000000000a0
:103f8000889fbe008a9fbe008c9fbe000404be00b6
:103f90000605be00809fbe00829fbe002f00070066
:103fa000040678000800be000a01be002b000700ce
:103fb000840678004f03be004f02be008d4f76008e
:103fc0007fb0970013003300f0ff2f008b8f6b0042
:103fd00006003b000d0666000c00a7000a00370033
:103fe00007f0a600100020000a003700880f5200da
:103ff000898f5a008a0f5b008b8f5b0003003900aa
:104000001000200001003e000000200007f0a70083
:104010000000ea004f06be004f05be004f04be0080
:1040200000000600e48240001078a3000700320080
:10403000640240001178a3003400be001401be00e9
:10404000040032000330a700000006003500be0067
:104050001501be000330a0000000060005ff270088
:1040600005826100070032000428e10001003200ef
:10407000240005000600070001003a004400050086
:104080000408050002000700f9ff3a0014000500cb
:104090006f826100810270008502710085027200ea
:1040a00000000600800078005002be005003be00f1
:1040b0004439de00f700b200f37f20000301610005
:1040c000090032000218e10016003a008501720072
:1040d00083017300838173000008200015003a00fb
:1040e0004000200013003700850172008301730037
:1040f0008381730005003a0004a8be0006a8be0034
:10410000100020000b0037000201e9000402420009
:1041100085824a0006034b0087834b000748a300b3
:10412000f9ff32000740a00004a8be0006a8be00a8
:1041300020002000800098009200980000000600f7
:10414000881f7800030478000300e00007003d00aa
:1041500060001000e080180060011900e081190083
:1041600002003b0001f02d000300370004000700af
:1041700008f0a70003f0a0004f047800000006003c
:10418000889fbe00008270000402710004827100ea
:104190002400320036432000c50020008383cf0076
:1041a0000a0039000541b1008283cf0007003900c1
:1041b0000541b1008183cf00040039000541b10001
:1041c0008083cf00010039000541b10085c3530051
:1041d0006022b800120032000a003b0084827200a4
:1041e000610260008301d1000281d3008180d3008d
:1041f0000080d3000603e8008743e800f7ff3a0099
:10420000070037000000400081804800020149009b
:10421000838149000603e9008743e900f9ff3a007a
:0c422000c2fc07004f04be0000000600b6
:020000040000fa
:10422c001b5b0000324a0000001b00005b300000ea
:10423c003b300000660000001b5b00003f320000ba
:10424c00356c0000002d00002d2d00002d2d0000e0
:10425c002d2d00002d2d00002d2d00002d2d0000ea
:10426c002d2d00002d2d00002d2d00002d2d0000da
:10427c002d2d00002d2d00002d2d00002d2d0000ca
:10428c002d2d00002d2d00002d2d00002d2d0000ba
:10429c002d2d00002d2d00002d2d00002d2d0000aa
:1042ac002d2d00002d2d00002d2d00002d2d00009a
:1042bc002d2d00002d2d00002d2d00002d2d00008a
:1042cc002d2d00002d2d00002d0d000000470000ad
:1042dc00726f00007570000020430000363a000039
:1042ec0020440000656200007567000067690000eb
:1042fc006e0d0000000d0000001b00005b3600007e
:10430c003b30000066000000576900006e6400003e
:10431c0020530000656e0000736f0000723a0000bd
:10432c0020250000377500000d0a0000005a00001f
:10433c00657200006f3a0000202500003775000000
:10434c000d0a000000440000433a00002025000044
:10435c00376c0000660d00000a000000457200007a
:10436c00726f000072280000302900003a20000013
:10437c0025370000660d00000a000000496e0000a1
:10438c007465000067720000616c00003a20000048
:10439c0025370000660d00000a00000055410000a2
:1043ac00525400003a200000256400000a0000006e
:020000040000fa
:1043bc0000000000ca0000001f0000000002040002
:1043cc0000000000fa0200000c0300001c030000b7
:1043dc0002030000140300002c030000240300005f
:1043ec002c0300002c0300002c0300002c03000005
:1043fc002c0300002c0300002c0300002c030000f5
:10440c002c0300002c0300002c0300002c030000e4
:10441c002c0300002c0300002c0300002c030000d4
:1046dc002c0300002c0300002c0300000000fe0043
:1046ec000000fe0000020000000200001f0000009d
:1046fc006f0521000eff21000e0188000000000054
:10470c00000020000000e000020032000001200048
:10471c0020028800140007008d0007000000e00054
:10472c0003003a00c05a21000100200002003700ab
:10473c000000200001002000810f700001003200f9
:10474c000f000700000020000000e0000200320013
:10475c0000000200000000007c13020000000000ba
:10476c000040da000000fe00200020000000e00005
:10477c0002003200100020009001880000000600aa
:10478c00a1028800800478000000eb001f003700b5
:10479c00e284440054a0b4009905ba00e2844400b9
:1047ac0054a0b4009906ba00e284440054a0b400aa
:1047bc000006eb00476fde00fd07b200ae0188007b
:1047cc00636ce10003003a000ad801000000eb0022
:1047dc000e003700606ce10008003a00004deb0061
:1047ec000a05e800020039003420ec000af0a000b1
:1047fc008b05e900f9ff3e00040037006168e10019
:10480c00010032000086eb000b00070019c7ba004c
:10481c001905ba000e04e00003003a000a00e0009b
:10482c00dbff3a0000000600fe07b200ae02880073
:10483c008a047800f5ff37000cd0a300e20f4d007e
:10484c001c00390089027800354dba000a05e800d1
:10485c00020039003420ec000af0a0008b05e900be
:10486c000f003200254dba000a05e800020039009d
:10487c003420ec000af0a0008b05e900080032009f
:10488c000c00e0000600320015cdba000a05e80065
:10489c00020039003420ec000af0a0008b05e9007e
:1048ac008984e80054a0b4000b00e000e2ff3a0059
:1048bc00000006009902ba00055d78008b05e9003e
:1048cc00f7ff3200c82ade00055d78008b05e90091
:1048dc00f3ff32000c00e000f1ff320019ddba00ea
:1048ec00eeff37003600f800c028a9000000eb00ee
:1048fc00770907003600f80079090700c048a900bd
:10490c0010002000720907003600f800c068a900ea
:10491c00200020006e0907003600f800c088a900ae
:10492c00300020006a0907003600f800c608a9000c
:10493c0070002000660907003600f800c408a900c2
:10494c00b0002000620907000040da000000fe0001
:10495c000000050003f0a200889fbe008a9fbe00e5
:10496c008c1f7800b1000700b80033006450e100e0
:10497c004f0032006420e1005200320003826c00d0
:10498c0007003b000905d0000306d000820f54003d
:10499c000c065d000200390002003200890178002b
:1049ac00030678008582550004003d000003fd00dd
:1049bc008103fd008502ea008b854200840f7200a2
:1049cc0002003b0060001000e08018006011b8008d
:1049dc000005eb007a28e1000a0039000600780097
:1049ec00c75ddd00f707b200878075002d0037002a
:1049fc00828171000a017800610560008180d1001c
:104a0c000080d3008502e900f9ff3b00060440005a
:104a1c008784480002003b0060041400e0841c0002
:104a2c000988a300070032008a817100828171001d
:104a3c00610164008904d1000884d3008b05e8006f
:104a4c00170037000978a30013003a000b00e000b0
:104a5c00130034008b05e9000804440089844c00e1
:104a6c000a4474000978a3000d003a000b00e00022
:104a7c00070034008b05e9000804440089844c00cd
:104a8c0001003a000b0020000978a300f7ff320068
:104a9c000001eb0002003700828171000a017800ee
:104aac00270007000cf0a70001f0a00070003700f1
:104abc006420e10002003a00838f6c007000330028
:104acc000801be000200be00690037000001be00f4
:104adc00410007000470a70003f0a10003f8a30035
:104aec0013003a006509b1001000320009003500ce
:104afc006928e100020035000100280000000500d3
:104b0c0000004000818048008502e900fcff3a006b
:104b1c0000000600f88f4200050035008100d1002e
:104b2c000080d3008502e800fcff3a00000006007c
:104b3c008000eb00000005006011b8009700370002
:104b4c0081002000618055000b003d000b0020000f
:104b5c0061fe2f000100e1001d0034008281710014
:104b6c00610164008904d1000884d3000000e800ce
:104b7c00faff3a007100200061006400030070002d
:104b8c00020060000900320061044400e0844c0023
:104b9c000988a500050032008b05e8006808e100d3
:104bac0002003a008904d1000884d300f20f2000df
:104bbc000258e10005003d00c75ddd00f907b200b9
:104bcc008980750008007800000006000bf82700ab
:104bdc008b00780000000500c70ade00f107b20068
:104bec00f50fb20008003200e1cf420002003200a3
:104bfc000170a00024000500810f7000010032003c
:104c0c000408050044000500810f700002003a0002
:104c1c00140005008502e9000000400081c0480036
:104c2c00fcff3b000170a000240005000004be0046
:104c3c00e9ff07000003be000405be000200be0031
:104c4c00e5ff0700844f7500000006000200be005f
:104c5c006450e100050036006420e10002003600db
:104c6c000968a30001003a000800be000160a00022
:104c7c004f0678004f05be004f04be000000060032
:104c8c00f0ff2f00f1ff2700f9ff3700889fbe00cf
:104c9c008a9fbe008c1f7800e4ff0700ebff3300f7
:104cac0003866c006450e100240032006420e100b3
:104cbc00270032006150e100220032006120e10047
:104ccc00210032008b854200eb07b1000134b800a3
:104cdc00003ab8000804420089844a00013ab8003e
:104cec000030b8008880400009014a0004003300fd
:104cfc000000400081804800020149008b05e9005a
:104d0c00c909dd008301700001003200130020008e
:104d1c00c814de004814dd004709de001200b200a2
:104d2c00c808de000884700085ff070001f0a100b0
:104d3c000cf0a70001f0a000cdff37006120e100ce
:104d4c00cfff32000801be000200be00f7ff3700a3
:104d5c006150e100fcff3a00c9ff37006022b80047
:104d6c00060220000000d0008180d2000482d20014
:104d7c008582d2000000a0000202520083825a00f9
:104d8c00030031000202420083824a000000a100ad
:104d9c000603e900f3ff3a0000000600889fbe00fe
:104dac008a9fbe00008270000402710004827100b0
:104dbc00260032000004be000200be006011b800e4
:104dcc006b092000950220000182cf000a003900f7
:104ddc000541b1000082cf00070039000541b10048
:104dec000982cf00040039000541b1000882cf00d0
:104dfc00010039000541b100054252001200320099
:104e0c000a003b0082817100610164008100d100c5
:104e1c000080d3008984d3000884d3008b05e8007c
:104e2c000442e800f7ff3a0007003700080444008a
:104e3c0089844c0000004800818048008b05e90003
:104e4c000442e900f9ff3a003dff07004f05be00a0
:104e5c004f04be00000006000000fa000023ef0023
:104e6c000223ef000423ef000623ef000823ef00da
:104e7c0000012000501888000c23ef000e23ef00d7
:104e8c001023ef001223ef001423ef001623ef0082
:104e9c001823ef001a23ef001c23ef001e23ef0052
:104eac002023ef002223ef002423ef002623ef0022
:104ebc002823ef002c23ef006223ef009823ef0050
:104ecc00ce23ef000424ef003a24ef007024ef000f
:104edc00a624ef002e23ef006423ef009a23ef00ab
:104eec00d023ef000624ef003c24ef007224ef00e7
:104efc0000060000000200001f000000a824ef00c4
:104f0c003023ef006623ef009c23ef00d223ef0049
:104f1c000824ef003e24ef007424ef00aa24ef00d5
:104f2c00c000200090198800c0002000401b8800a1
:104f3c0040002000f01c8800c0002000a01e88004b
:104f4c00c000200050208800c000200000228800f3
:104f5c00c0002000b023880040002000602588009d
:104f6c003423ef006a23ef00a023ef00d623ef00d9
:104f7c000c24ef004224ef007824ef00ae24ef0065
:104f8c003623ef006c23ef00a223ef00d823ef00b1
:104f9c000e24ef004424ef007a24ef00b024ef003d
:104fac003823ef006e23ef00a423ef00da23ef0089
:104fbc001024ef004624ef007c24ef00b224ef0015
:104fcc003a23ef007023ef00a623ef00dc23ef0061
:104fdc001224ef004824ef007e24ef00b424ef00ed
:104fec003c23ef007223ef00a823ef00de23ef0039
:104ffc001424ef004a24ef008024ef00b624ef00c5
:10500c003e23ef007423ef00aa23ef00e023ef0010
:10501c001624ef004c24ef008224ef00b824ef009c
:10502c004023ef007623ef00ac23ef00e223ef00e8
:10503c001824ef004e24ef008424ef00ba24ef0074
:10504c004223ef007823ef00ae23ef00e423ef00c0
:10505c001a24ef005024ef008624ef00bc24ef004c
:10506c004423ef007a23ef00b023ef00e623ef0098
:10507c001c24ef005224ef008824ef00be24ef0024
:10508c004623ef007c23ef00b223ef00e823ef0070
:10509c001e24ef005424ef008a24ef00c024ef00fc
:1050ac004823ef007e23ef00b423ef00ea23ef0048
:1050bc002024ef005624ef008c24ef00c224ef00d4
:1050cc004a23ef008023ef00b623ef00ec23ef0020
:1050dc002224ef005824ef008e24ef00c424ef00ac
:1050ec004c23ef008223ef00b823ef00ee23ef00f8
:1050fc002424ef005a24ef009024ef00c624ef0084
:10510c00f0ff2700701a88008423ef00ba23ef0009
:10511c00f023ef00f0ff2700302188005c24ef0023
:10512c009224ef00c824ef005023ef008623ef00f9
:10513c00bc23ef00f223ef002824ef005e24ef00e5
:10514c009424ef00ca24ef00f0092000901a880084
:10515c0000012000401c880000012000f01d880088
:10516c0000012000a01f8800f009200050218800b9
:10517c00000120000023880000012000b0248800da
:10518c0000012000602688005423ef008a23ef00e2
:10519c00c023ef00f623ef002c24ef006224ef0075
:1051ac009824ef00ce24ef005623ef008c23ef0061
:1051bc00c223ef00f823ef002e24ef006424ef004d
:1051cc009a24ef00d024ef005823ef008e23ef0039
:1051dc00c423ef00fa23ef003024ef006624ef0025
:1051ec009c24ef00d224ef005a23ef009023ef0011
:1051fc00c623ef00fc23ef003224ef006824ef00fd
:10520c009e24ef00d424ef005c23ef009223ef00e8
:10521c00c823ef00fe23ef003424ef006a24ef00d4
:10522c00a024ef00d624ef0080002800501988003d
:10523c0080002800001b880080002800b01c88001b
:10524c0080002800601e8800800028001020880044
:10525c0080002800c021880080002800702388006e
:10526c0080002800202588000080fa00000006003d
:10527c000000fa000080fa00000006000000fa00ae
:10528c0040408000680060000000e0000200320036
:10529c00f7ff07000868a9000080fa00000006006c
:1052ac000000fa000080fa00000006000000fa007e
:1052bc0040408000700060000000e00002003200fe
:1052cc00f7ff07000888a9000080fa00000006001c
:1052dc000000fa000080fa00000006000000fa004e
:1052ec004140800000022000008060000000e000cf
:1052fc0002003200f6ff070008a8a9000080fa009f
:10530c00000006000000fa000080fa000000060011
:10531c000000fa0041408000000420000080600082
:10532c000000e00002003200f6ff070008c8a900e8
:10533c000080fa00000006000000fa000080fa006d
:10534c00000006000000fa00414080000008200028
:10535c00008060000000e00002003200f6ff070051
:10536c0008e8a9000080fa00000006000000fa001e
:10537c000080fa00000006000000fa0041408000a6
:10538c0000102000008060000000e00002003200ed
:10539c00f6ff07000908a9000080fa0000000600cb
:1053ac000000fa000080fa00000006000000fa007d
:1053bc004140800000202000008060000000e000e0
:1053cc0002003200f6ff07000928a9000080fa004d
:1053dc00000006000000fa000080fa000000060041
:1053ec000000fa0041408000004020000080600076
:1053fc000000e00002003200f6ff07000948a90097
:10540c000080fa00000006000000fa000080fa009c
:10541c00000006000000fa00a140800000202000df
:10542c00008060000000e00002003200f6ff070080
:10543c001528a9000080fa00000006000000fa0000
:10544c000080fa00000006000000fa00a140800075
:10545c0000402000008060000000e00002003200ec
:10546c00f6ff07001548a9000080fa0000000600ae
:10547c000000fa000080fa00000006000000fa00ac
:10548c00a140800000802000008060000000e0004f
:10549c0002003200f6ff07001568a9000080fa0030
:1054ac00000006000000fa000080fa000000060070
:1054bc000000fa00a1408000000021000080600084
:1054cc000000e00002003200f6ff07001588a9007a
:1054dc000080fa00000006000000fa000080fa00cc
:1054ec00000006000000fa00a1408000000022002d
:1054fc00008060000000e00002003200f6ff0700b0
:10550c0015a8a9000080fa00000006000000fa00af
:10551c000080fa00000006000000fa00a1408000a4
:10552c0000002400008060000000e0000200320057
:10553c00f6ff070015c8a9000080fa00000006005d
:10554c000200fa00000f78001e007800e40f5000f3
:10555c0018003200e40f500007003e00e20f50002c
:10556c0010003200e20f500010003e00e10f50001e
:10557c000a00320019003700e60f5000110032000b
:10558c00e60f50000d003900e70f50000f003200fd
:10559c00e80f50000f003200100037002be3a90079
:1055ac000e00370061e3a9000c00370097e3a90057
:1055bc000a003700cde3a9000800370003e4a90076
:1055cc000600370039e4a900040037006fe4a90095
:1055dc0002003700a5e4a900000000000080fa00da
:1055ec00000006000400fa00000f78001107980074
:1055fc001e007800e40f50001b003200e40f500036
:10560c0007003e00e20f500011003200e20f500084
:10561c0012003e00e10f50000a003200210037005a
:10562c00e60f500016003200e60f50001100390052
:10563c00e70f500015003200e80f50001600320042
:10564c00180037009e009000711a88001500370072
:10565c009e009000211c8800120037009e009000d4
:10566c00d11d88000f0037009e009000811f88001c
:10567c000c0037009e009000312188000900370093
:10568c009e009000e1228800060037009e009000ea
:10569c0091248800030037009e009000412688006a
:1056ac00000000000080fa00000006000400fa0070
:1056bc00000f7800110798001e007800e40f5000ce
:1056cc001b003200e40f500007003e00e20f5000b8
:1056dc0011003200e20f500012003e00e10f5000aa
:1056ec000a00320021003700e60f5000160032008d
:1056fc00e60f500011003900e70f5000000a0000bf
:10570c00000200001f00000015003200e80f5000de
:10571c0016003200180037009e009000911a880085
:10572c00150037009e009000411c880012003700c5
