:020000040000fa
:080000000002040000000000f2
:020000040000fa
:040008006003000091
:020000040000fa
:04000c00720300007b
:020000040000fa
:040010008203000067
:020000040000fa
:04001400680300007d
:020000040000fa
:040018007a03000067
:020000040000fa
:04001c00e6030000f7
:020000040000fa
:040020008a0300004f
:020000040000fa
:04002400e6030000ef
:020000040000fa
:04002800920300003f
:020000040000fa
:04002c00b00300001d
:020000040000fa
:04003000e6030000e3
:020000040000fa
:04003400e6030000df
:020000040000fa
:04003800e6030000db
:020000040000fa
:04003c00e6030000d7
:020000040000fa
:04004000e6030000d3
:020000040000fa
:04004400e6030000cf
:020000040000fa
:04004800e6030000cb
:020000040000fa
:04004c00e6030000c7
:020000040000fa
:04005000e6030000c3
:020000040000fa
:04005400e6030000bf
:020000040000fa
:04005800e6030000bb
:020000040000fa
:04005c00e6030000b7
:020000040000fa
:04006000e6030000b3
:020000040000fa
:04006400e6030000af
:020000040000fa
:04006800e6030000ab
:020000040000fa
:04006c00e6030000a7
:020000040000fa
:04007000e6030000a3
:020000040000fa
:04007400e60300009f
:020000040000fa
:04007800e60300009b
:020000040000fa
:04007c00e603000097
:020000040000fa
:04008000e603000093
:020000040000fa
:04008400e60300008f
:020000040000fa
:04008800e60300008b
:020000040000fa
:04008c00e603000087
:020000040000fa
:04009000e603000083
:020000040000fa
:04009400e60300007f
:020000040000fa
:04009800e60300007b
:020000040000fa
:04009c00e603000077
:020000040000fa
:0400a000e603000073
:020000040000fa
:0400a400e60300006f
:020000040000fa
:0400a800e60300006b
:020000040000fa
:0400ac00e603000067
:020000040000fa
:0400b000e603000063
:020000040000fa
:0400b400e60300005f
:020000040000fa
:0400b800e60300005b
:020000040000fa
:0400bc00e603000057
:020000040000fa
:0400c000e603000053
:020000040000fa
:0400c400e60300004f
:020000040000fa
:0400c800e60300004b
:020000040000fa
:0400cc00e603000047
:020000040000fa
:0400d000e603000043
:020000040000fa
:0400d400e60300003f
:020000040000fa
:0400d800e60300003b
:020000040000fa
:0400dc00e603000037
:020000040000fa
:0400e000e603000033
:020000040000fa
:0400e400e60300002f
:020000040000fa
:0400e800e60300002b
:020000040000fa
:0400ec00e603000027
:020000040000fa
:0400f000e603000023
:020000040000fa
:0400f400e60300001f
:020000040000fa
:0400f800e60300001b
:020000040000fa
:0400fc00e603000017
:020000040000fa
:04010000e603000012
:020000040000fa
:04010400e60300000e
:020000040000fa
:04010800e60300000a
:020000040000fa
:04010c00e603000006
:020000040000fa
:04011000e603000002
:020000040000fa
:04011400e6030000fe
:020000040000fa
:04011800e6030000fa
:020000040000fa
:04011c00e6030000f6
:020000040000fa
:04012000e6030000f2
:020000040000fa
:04012400e6030000ee
:020000040000fa
:04012800e6030000ea
:020000040000fa
:04012c00e6030000e6
:020000040000fa
:04013000e6030000e2
:020000040000fa
:04013400e6030000de
:020000040000fa
:04013800e6030000da
:020000040000fa
:04013c00e6030000d6
:020000040000fa
:04014000e6030000d2
:020000040000fa
:04014400e6030000ce
:020000040000fa
:04014800e6030000ca
:020000040000fa
:04014c00e6030000c6
:020000040000fa
:04015000e6030000c2
:020000040000fa
:04015400e6030000be
:020000040000fa
:04015800e6030000ba
:020000040000fa
:04015c00e6030000b6
:020000040000fa
:04016000e6030000b2
:020000040000fa
:04016400e6030000ae
:020000040000fa
:04016800e6030000aa
:020000040000fa
:04016c00e6030000a6
:020000040000fa
:04017000e6030000a2
:020000040000fa
:04017400e60300009e
:020000040000fa
:04017800e60300009a
:020000040000fa
:04017c00e603000096
:020000040000fa
:04018000e603000092
:020000040000fa
:04018400e60300008e
:020000040000fa
:04018800e60300008a
:020000040000fa
:04018c00e603000086
:020000040000fa
:04019000e603000082
:020000040000fa
:04019400e60300007e
:020000040000fa
:04019800e60300007a
:020000040000fa
:04019c00e603000076
:020000040000fa
:0401a000e603000072
:020000040000fa
:0401a400e60300006e
:020000040000fa
:0401a800e60300006a
:020000040000fa
:0401ac00e603000066
:020000040000fa
:0401b000e603000062
:020000040000fa
:0401b400e60300005e
:020000040000fa
:0401b800e60300005a
:020000040000fa
:0401bc00e603000056
:020000040000fa
:0401c000e603000052
:020000040000fa
:0401c400e60300004e
:020000040000fa
:0401c800e60300004a
:020000040000fa
:0401cc00e603000046
:020000040000fa
:0401d000e603000042
:020000040000fa
:0401d400e60300003e
:020000040000fa
:0401d800e60300003a
:020000040000fa
:0401dc00e603000036
:020000040000fa
:0401e000e603000032
:020000040000fa
:0401e400e60300002e
:020000040000fa
:0401e800e60300002a
:020000040000fa
:0401ec00e603000026
:020000040000fa
:0401f000e603000022
:020000040000fa
:0401f400e60300001e
:020000040000fa
:0401f800e60300001a
:020000040000fa
:0401fc00e603000016
:020000040000fa
:04020000e603000011
:020000040000fa
:04020400e60300000d
:020000040000fa
:04020800e603000009
:020000040000fa
:04020c00e603000005
:020000040000fa
:04021000e603000001
:020000040000fa
:04021400e6030000fd
:020000040000fa
:04021800e6030000f9
:020000040000fa
:04021c00e6030000f5
:020000040000fa
:04022000e6030000f1
:020000040000fa
:04022400e6030000ed
:020000040000fa
:04022800e6030000e9
:020000040000fa
:04022c00e6030000e5
:020000040000fa
:04023000e6030000e1
:020000040000fa
:04023400e6030000dd
:020000040000fa
:04023800e6030000d9
:020000040000fa
:04023c00e6030000d5
:020000040000fa
:04024000e6030000d1
:020000040000fa
:04024400e6030000cd
:020000040000fa
:04024800e6030000c9
:020000040000fa
:04024c00e6030000c5
:020000040000fa
:04025000e6030000c1
:020000040000fa
:04025400e6030000bd
:020000040000fa
:04025800e6030000b9
:020000040000fa
:04025c00e6030000b5
:020000040000fa
:04026000e6030000b1
:020000040000fa
:04026400e6030000ad
:020000040000fa
:04026800e6030000a9
:020000040000fa
:04026c00e6030000a5
:020000040000fa
:04027000e6030000a1
:020000040000fa
:04027400e60300009d
:020000040000fa
:04027800e603000099
:020000040000fa
:04027c00e603000095
:020000040000fa
:04028000e603000091
:020000040000fa
:04028400e60300008d
:020000040000fa
:04028800e603000089
:020000040000fa
:04028c00e603000085
:020000040000fa
:04029000e603000081
:020000040000fa
:04029400e60300007d
:020000040000fa
:04029800e603000079
:020000040000fa
:04029c00e603000075
:020000040000fa
:0402a000e603000071
:020000040000fa
:0402a400e60300006d
:020000040000fa
:0402a800e603000069
:020000040000fa
:0402ac00e603000065
:020000040000fa
:0402b000e603000061
:020000040000fa
:0402b400e60300005d
:020000040000fa
:0402b800e603000059
:020000040000fa
:0402bc00e603000055
:020000040000fa
:0402c000e603000051
:020000040000fa
:0402c400e60300004d
:020000040000fa
:0402c800e603000049
:020000040000fa
:0402cc00e603000045
:020000040000fa
:0402d000e603000041
:020000040000fa
:0402d400e60300003d
:020000040000fa
:0402d800e603000039
:020000040000fa
:0402dc00e603000035
:020000040000fa
:0402e000e603000031
:020000040000fa
:0402e400e60300002d
:020000040000fa
:0402e800e603000029
:020000040000fa
:0402ec00e603000025
:020000040000fa
:0402f000e603000021
:020000040000fa
:0402f400e60300001d
:020000040000fa
:0402f800e603000019
:020000040000fa
:0402fc00e603000015
:020000040000fa
:04030000e603000010
:020000040000fa
:04030400e60300000c
:020000040000fa
:04030800e603000008
:020000040000fa
:04030c00e603000004
:020000040000fa
:04031000e603000000
:020000040000fa
:04031400e6030000fc
:020000040000fa
:04031800e6030000f8
:020000040000fa
:04031c00e6030000f4
:020000040000fa
:04032000e6030000f0
:020000040000fa
:10040000af0f21000eff24000e0188000000200025
:100410000000e000020032000001200020028800fd
:1004200014000700350107000000e00003003a0057
:10043000a05b230001002000020037000000200024
:1004400001002000810f70004220ae000f00070065
:10045000000020000000e0004220ae00000002008a
:100460000000000094360200000000000040da00a6
:100470000000fe00400d20000000e00002003200fd
:10048000002020009001880000000600a1028800e2
:10049000800478000000eb001f003700e284440075
:1004a00054a0b4009905ba00e284440054a0b400fa
:1004b0009906ba00e284440054a0b4000006eb00a0
:1004c000476fde00fd07b200ae018800636ce100fb
:1004d00003003a000ad801000000eb000e003700cc
:1004e000606ce10008003a00004deb000a05e800ee
:1004f000020039003420ec000af0a0008b05e9006e
:10050000f9ff3e00040037006168e100010032009d
:100510000086eb000b00070019c7ba001905ba00e6
:100520000e04e00003003a000a00e000dbff3a009e
:1005300000000600fe07b200ae0288008a047800c0
:10054000f5ff37000cd0a300e20f4d001c0039006e
:1005500089027800354dba000a05e800020039002a
:100560003420ec000af0a0008b05e9000f003200f7
:10057000254dba000a05e800020039003420ec00dd
:100580000af0a0008b05e900080032000c00e00032
:100590000600320015cdba000a05e8000200390055
:1005a0003420ec000af0a0008b05e9008984e80003
:1005b00054a0b4000b00e000e2ff3a000000060087
:1005c0009902ba00055d78008b05e900f7ff32005b
:1005d000c82ade00055d78008b05e900f3ff3200d4
:1005e0000c00e000f1ff320019ddba00eeff370029
:1005f0006100e10001003200100005003200f80047
:100600003400f8000002be00930188003200be00f2
:100610000100e0000700320032037800c733de003b
:10062000a7018800f607b2007f30e1000400320025
:10063000200020003400f9003200f900000006001c
:100640008100e9000500e00003003a000180090094
:1006500032100300edff37000180090032900300e3
:10066000d561ae00e9ff370030002000f1ff370010
:1006700050052000b00e8800a00a2000b00e8800af
:10068000d3e1a8000000060050052000b00e88004d
:10069000a00a2000b00e8800d3e1a90000000600e7
:1006a00032350400000000008a070400000000004a
:1006b0000000040000000000c20704000000000069
:1006c0003600f800c028a9000000eb00911a0700ce
:1006d0003600f800931a0700c048a9001000200057
:1006e0008c1a07003600f800c068a900200020001e
:1006f000881a07003600f800c088a90030002000e2
:10070000841a07003600f800c608a900700020000f
:10071000801a07003600f800c408a900b0002000c5
:100720007c1a07003600f800809fbe00829fbe0042
:10073000849fbe00869fbe000000fa00691a070071
:100740000008a9000080fa004f03be004f02be005f
:100750004f01be004f00be003600f9000040060009
:100760003600f800809fbe00829fbe00849fbe00be
:10077000869fbe000000fa00408080000000e0007c
:10078000020032004080800000000100300f210094
:10079000104078008040e800300f210001487800c8
:1007a000200f210011c0b300014878000028a900e3
:1007b0000080fa004f03be004f02be004f01be0092
:1007c0004f00be003600f900004006000040da008d
:1007d0000000fe000a00fa0011002000b1bf9f00d7
:1007e000c0bf9f006a805700b00607004fb897004f
:1007f0000080fa00000006000a00fa005100200004
:10080000b1bf9f00c0bf9f006a805700a9060700c4
:100810005fb897000080fa0000000600889fbe00c5
:1008200080047800c08780000000e00004003a00e7
:100830000e0007000084eb000000e0000800350017
:10084000c88780000900e00005003200090044006c
:10085000060007000000e00001003d000084eb00fe
:10086000080078004f04be000000060080007800f9
:100870000100e00003003a0000002000c08788006b
:10088000000005000080eb0002002000828f500075
:1008900002003e00c18788000000eb000000060057
:1008a0000a00fa00200798003107980042079800d4
:1008b000be009000010f78000000eb0010079800c8
:1008c000070037001e007800104078001e0fe80077
:1008d000bc1907001e0090000000e80010079800f7
:1008e0009e0090004e009000808f5000f5ff390070
:1008f0001e0090000080fa000000060000000500c5
:10090000839f68000100e00002003d0060001000cd
:10091000e08018000300e00002003d0060011100cb
:10092000e0811900050007004f00e00002003b00d5
:1009300060001000e0801800000006006022b8008f
:10094000060220000000d0008180d2000482d20084
:100950008582d2000000a0000202520083825a0069
:10096000030031000202420083824a000000a1001d
:100970000603e900f3ff3a0000000600210321000e
:100980006a000700800078000080eb000100e000b2
:100990000400350021032100a00020000200070010
:1009a0004f80de0000000600889fbe008a1f78008e
:1009b0000004be00c900900069009000808f5000c4
:1009c0000500390009007800b70007008080eb00bf
:1009d0000000e0001600350008457800490090004e
:1009e00008587800c00498001900780000b8a300e7
:1009f00004003a0000a8a30007003200ea4f5400a8
:100a000005003a00090078000d0007008080eb0027
:100a10000000e00006003a0000c02000190060005d
:100a20000200320049009000e00498008a80fb0038
:100a3000010078004f0578004f04be00000006005a
:100a4000889fbe008a1f7800000478000800e0003c
:100a50000d003a0008082100700544008004eb00f6
:100a6000580078000000e00004003200f4ff0700a6
:100a70000000e00001003d008084eb008a0f54007c
:100a8000f7ff3a0025003700000022001800600040
:100a90008004eb0021003200a80490000f00370012
:100aa00009015100384090000000fb0089007800e7
:100ab0007bff07000000e00007003c0028009000da
:100ac0004004980060049800500c98001890a00012
:100ad0008084eb00110037008084440048019000be
:100ae000828f5400eeff39002800900040049800e7
:100af0009800780002c020000281600001003a00e6
:100b00003800900001e8a300020032006004980061
:100b100001003700500c98008004eb0009007800b9
:100b20004f0578004f04be0000000600889fbe00fd
:100b30008a9fbe0080047800010478002c003700f2
:100b4000c800900068009000808f500004003900b9
:100b500008007800540007000000e000370035006e
:100b6000004020001800600009003200a1002000b1
:100b70000900780042000700800578000b00e000c3
:100b800003003200618514000a8545000400370027
:100b90000900780034000700000578008005eb00ac
:100ba00048009000e8009000808050008a8f50003c
:100bb00002003100010578008005eb000a01780091
:100bc0008900780021000700480090000a004000da
:100bd000400498000b00e000040032000800780098
:100be00097ff07000000e00014003a008a844400e8
:100bf0001904e000d2ff3a000080200018006000d5
:100c000006003200080078008dff070080007800a1
:100c10000080eb000100e00009003a0001c0200064
:100c2000988060000000eb00050032004800900052
:100c3000600498000000eb00010037000080eb002a
:100c40004f05be004f04be00000006008001780082
:100c500002003700b15978000201e9000200e0000b
:100c6000fcff3a00000006008000780001017800d7
:100c70003104e000fdff3a000000510000000600d2
:100c80000001eb0000027800b041780081cf5100f4
:100c900001003a00040178000304e000f9ff3a0083
:100ca0000200780000000600889fbe008a1f7800be
:100cb00000047800c8009000680190000000eb007c
:100cc000828f50003c003900180078002200290073
:100cd00002016000e20f51000700320001202400f1
:100ce0000000e00001003d0001202000008c7000a9
:100cf0000080eb0030003700020026000200600098
:100d0000820f500009003a0038009000808f500098
:100d1000060039000800780049ff070080007800cd
:100d20000080eb000100e00023003a001805780085
:100d300000c020000000650018003a00a8049000e0
:100d40006002200008004000808f540013003a0029
:100d5000002020001e030700200498000000e0008f
:100d600005003a0029049800490498008904e80025
:100d700039049800080037000a60a0000a0c7800c7
:100d80004004980001202000808040003104980039
:100d9000400c9800500c98000c00070028009000b0
:100da000500498003800900060049800000026006d
:100db000180c70000000eb004f0578004f04be00d7
:100dc00000000600a078200062003700881f78002d
:100dd000480f21001804e00003003a00f9ff070063
:100de00020c0b300004c78004f04780000000600db
:100df000889fbe00000478000800780010ff0700fc
:100e00008004780066800a00180000000000e000fe
:100e10000200320028009000340207000000eb00be
:100e200020049800384090000004e00005003500e0
:100e30000000fb0067fe07000000e0000100320038
:100e40008084eb00181090000000e00008003200e1
:100e500069fe07000000e000010032008084eb0022
:100e600018109000210207000000eb0010149800f9
:100e70000008200018006000150032000001eb009f
:100e80006000b800230821000202d00063027a004b
:100e9000880f520005003a000000400081804800a1
:100ea000008041000008eb000600370061004000b0
:100eb000e08048000201e800e80f5000e08f580091
:100ec000f0ff3a0008007800080207000e00370023
:100ed000000c780000c0eb00304498006002200055
:100ee0000800400020049800400498005004980036
:100ef000400c980060049800500c98007004980012
:100f000076004400000c9800090078004f04be00f1
:100f100000000600881f78000004eb006140b80064
:100f2000e2ff2f00f3ff2f00e70407000209210072
:100f3000620078000000e00001003200acff070012
:100f40000804e800e80f5400f4ff3a004f0478006a
:100f500000000600010020000100e000080032004f
:100f6000010080000100e000050032008100e9007e
:100f7000010088008100d0000200800000b17800ec
:100f800000000600889fbe00000478000100780081
:100f9000820478008801780009017800110020009f
:100fa00004020700890f5000010032000004eb002a
:100fb000080078004f04be00000006000000fa00a0
:100fc000e88157004fb9970021032100207c2000c1
:100fd000020007000080fa00000006006200fa002c
:100fe000889fbe008a1f7800000578008104780081
:100ff000020478008300780080f92f000f00400081
:10100000a80407009a979f00a9979f000000eb0093
:10101000b09f9f001885fb008a04fb000a05ea00c8
:101020004f55de0050022000808f54000d0032002a
:10103000e10f55000b003a000a01780088007800a3
:101040002f9097009f91970003000100a0979f00a9
:101050000000e0008e0032003f9897000000e8009a
:10106000b09f9f000a04440050022000808f54006b
:10107000040032000900e000e6ff3a003f989700c4
:10108000840037000000eb00909f9f00809f9f002e
:10109000f0979f00e0979f00d0979f00c0979f0018
:1010a00007003700810e21000100500000004000c1
:1010b000c10d210061007800df98970001007000e9
:1010c000d09f9f0088047800090478003845780094
:1010d0008a00fb00800e2100710207000000e00082
:1010e000f0ff3a00a1c2b300814f55000e003a0054
:1010f000cf8897000180e900c08f9f001000780022
:10110000c09f9f000000e00005003d000000ea00d5
:10111000c09f9f005f9897000020a000d09f9f0075
:101120000904e8000f003700c09f9f000000eb009b
:1011300005003700f2ff2700820f50000200320046
:101140006a01b90002804000090478008804780030
:10115000b900fb000103b100e98f5000f5ff360034
:10116000c09f9f00e0c2b300984f10000200320001
:101170000080eb0019003700a0c2b300d84f100068
:1011800007003a00cf8897000180e900c08f9f00d8
:1011900010007800a09f9f000804e80010003700ae
:1011a0000000eb00a09f9f0088007800050037003a
:1011b000f3ff2700830f5000020032006a02b900db
:1011c0000400410001047800880078003101fb0030
:1011d0000203b100e90f5100f5ff3600a09f9f0008
:1011e000984478008900fb00400d21002c02070084
:1011f0000000e000020032000804e80001003700af
:101200008044eb00c97f9f0080c6b30080cf5400ac
:1012100004003a0098cf14000a003a0066405000db
:1012200006003700c0c6b30080cf540005003a0066
:1012300098cf140003003a0065404000c07f9f0033
:101240000804e8001801fb00e3fb2f008f81410038
:1012500081f92f008f804000a0f92f000f0040007f
:10126000100007000000e00009003a00e1fb2f0039
:101270008f804000a0f92f000f0040004d030700b1
:101280000000e000020035000804e80061ff3700bc
:101290000080eb004f0578004f04be000080fa008c
:1012a00000000600889fbe008a9fbe00e4c6b3000f
:1012b000844f5100be00320010003c006b425200cf
:1012c000844f51001800320005003c0054c2b300a6
:1012d000844f5100f600320084c5b3000f00370080
:1012e00044c6b300844f51001400320065424200ee
:1012f000844f5100f1003a001000370004c7b300da
:10130000844f5100dd003200560035006542420036
:10131000844f51005300320063424200844f510019
:10132000e6003a004f0037001181e900820878009a
:10133000f000900012417800de003700206290003b
:10134000c5c6b300854f520007003a0091027800ed
:1013500064825200840878001402be004fabde00a5
:10136000860378001400370015c7b300854f52007c
:1013700003003a00110478006802540005003700a9
:10138000a5c6b300854f520006003a0091047800cc
:1013900068825400840878005403be004402be00f2
:1013a000050037001182e9008408780014027800f3
:1013b000cfa2de00612bb9000498be000690be00eb
:1013c000a060900088c6b30088cf50000d003200a6
:1013d00028c6b30088cf500004003a000402fb0086
:1013e000cfa2de00612bb9000800370048c7b30068
:1013f00088cf5000030032006644440088cf50007c
:1014000004003a00cfa2de00612bb9000498be00b0
:101410000690be003002be002003be00f000900027
:10142000e00f5200e08f5a00e00f5b00e08f5b009e
:1014300002003d00d4c2b300080037000012900043
:101440000418a30002003200b4c2b3000300370046
:101450000408a3005100320004c2b30084f17800f4
:101460004c00370020629000c5c6b300854f520083
:1014700008003a00110578006402550084087800dd
:101480001404be006055b8000802be000a03be0086
:101490001400370015c7b300854f520003003a000f
:1014a000910478006882540005003700a5c6b30097
:1014b000854f520006003a00110578006802550079
:1014c000840878005403be004402be0005003700c3
:1014d0001182e90084087800140278008002eb0091
:1014e0006033b8000498be000690be00a060900073
:1014f00088c6b30088cf50000d00320028c6b30064
:1015000088cf500004003a000482fb008002eb0008
:101510006033b8000800370048c7b30088cf5000d8
:10152000030032006644440088cf500004003a00b3
:101530008002eb006033b8000498be000690be0045
:10154000801090000138a300140032003002be0069
:101550002003be00e00f5200e08f5a00e00f5b0056
:10156000e08f5b000d00320081c7b300814f510056
:101570000300320081c5b300814f510007003a00db
:10158000f000900004c3b30084f178008100e8000b
:1015900082f178008100e80071009800f00090006e
:1015a0008181410063009800824078003e0037004e
:1015b000a0619000c4c6b3001181e90084cf51003e
:1015c000220032000a003c006442520084cf5100e5
:1015d0002500320004c2e80084cf5100130032001d
:1015e0006842520084cf51001e003a000a003700c2
:1015f00044c7b30084cf51001b0032006642420052
:1016000084cf5100180032006942520084cf51004b
:1016100014003a0005003700820878009200780034
:1016200040589000804878002c00370082087800ed
:1016300092007800600a9000cfa2de00612bb90012
:101640008498be008690be0024003700820878008f
:101650009200780060099000cf91de008288be0081
:101660001e0037001181e90082087800920078009e
:101670006008900080087800180037001181e900a8
:101680008208780012027800cfa2de00612bb90038
:101690000498be000690be00f000900081814100d9
:1016a0006300980081c7b300130107000b003700e7
:1016b000f000900082f1780006003700f000900002
:1016c000818141000204e00001003a0052c2b300ef
:1016d000824978008100e800710098000000eb006a
:1016e0004f05be004f04be00000006000000e000f1
:1016f0002f003200c0017800e38f51002c0036002b
:101700000308a3002a003a00818780000100e0005e
:1017100002003200810f50000400310011009800d7
:101720008087880016003700820078001101900041
:101730000200e00002003200800f5100faff390081
:101740001102780084824000850f50001800390093
:10175000808f520003003a008308420001007800a5
:10176000070037000200e000030032008301400060
:10177000830f51000e00390012009800900098006d
:10178000900090000100e0000900320010014000cc
:10179000828f500006003a00e20e21000009eb00a3
:1017a000100178001108410091009000110098008c
:1017b00000000600889fbe008a9fbe008c9fbe006e
:1017c0008e1f78000006780001047800020078007f
:1017d000830478000881b900020778000200e00065
:1017e000420032000800e00041003200820578002b
:1017f000c900900069009000808f500004003900fb
:101800000900780028fd07000000e00029003500ed
:1018100000402000190060000a0032000b0178002f
:10182000a10020000c0078009300070080067800db
:101830000d00e00006003200610516000a85460032
:10184000040037000b0578008006eb00010037002c
:101850000b05780049009000e9009000808050005e
:101860008a8f500002003100010578008006eb00ed
:101870000a0178008c007800f4fc07008a85550086
:10188000490090000a004000c00498000d00e000ec
:10189000040032000900780069fc07000000e00045
:1018a00004003a000b00e000020032000a06460085
:1018b000cfff3700008020001900600002003200d6
:1018c000090078005efc070000c0200019006000dd
:1018d0000200320049009000e00498008b05570098
:1018e000050009008885d800010037000000eb00e2
:1018f0004f0778004f06be004f05be004f04be00e4
:1019000000000600889fbe000004780071878000f8
:101910000100e00002003200010078000d003700f5
:1019200081878000000f210004003700910f5400d0
:10193000250036000180e800910090000100e000e1
:10194000faff3a0010003700920f54001e003600d4
:101950000280e800100178000200e000faff3a007f
:101960001101780081878000000f210004003700fa
:10197000910f5400140036000180e800910090009f
:10198000828f5000faff3a00b9878000888f540098
:101990000100310088047800090078004c0007003d
:1019a0000000e00004003a00888f54000500320077
:1019b0008904d100f5ff3700091878004bff0700b4
:1019c000d2ff37000000eb004f04be00000006000d
:1019d000881f7800630440000800a1008000eb002d
:1019e000800f540021003600e30f540001003e0038
:1019f0004800200008007800c2ff07008000eb00cc
:101a00000000e00019003200900078009101780099
:101a100064815100880f51000300310011019000d2
:101a200002087800070037000881400002087800ab
:101a30009101900013019800100178001109140021
:101a400088087800100178000000eb000200e00038
:101a500004003200920190000300e0000100320017
:101a60000280e800708788008180e800010078002b
:101a70004f0478000000060003003700b0cf1000cc
:101a8000050032000201e900800178000200e00058
:101a9000faff3a000000050003007800000006008d
:101aa000020037000304e000060032000001780065
:101ab00002007800b041780081cf5100f9ff3a0070
:101ac000010037000001eb00020078000000060072
:101ad000800078000000eb000100e0000500340009
:101ae000010078004dfb0700e10f400001003a00c3
:101af0000000eb0000000600fc874700889fbe0046
:101b00008a9fbe008c9fbe008e1f78000006780062
:101b100080c5b30080cf50000a00320077404000fb
:101b200080cf50000a0032006940400080cf500052
:101b30000b003200300a210080bf9f00ae00200061
:101b40000a0037002209210082bf9f0006003700eb
:101b5000330a210083bf9f008e002000030037005e
:101b6000340a210084bf9f000e0120003c02be0009
:101b70002c03be000605be000404be0040c6b30030
:101b800080cf5000030032006540400080cf5000fd
:101b90000b003a00e00f5200e08f5a00e00f5b00ac
:101ba000e08f5b0006003d006000b8006011b800e7
:101bb00004045000858458000605590087855900a3
:101bc000e80f57000400320040002000f00f5700db
:101bd00038003a000100370030002000e00f5400c8
:101be000e08f5c00e00f5d00e08f5d0004003a00d4
:101bf000dc0890008d0120000100e00006003200aa
:101c00008e00e900888060008fba9700e5c07800f8
:101c1000f1ef9f007d012000800078008100e90045
:101c2000050033008b05d1000a85d3008984d300d9
:101c30000884d300f9ff3700089ebe000a96be0054
:101c4000120037008d06e9008e00e90084806000f4
:101c50000fb99700e2c1780082fd2f000f0141000b
:101c600003f17e00800078008100e9000500330068
:101c70008783d1000683d3008582d3000482d300fa
:101c8000f9ff3700049ebe000696be003c02be006f
:101c90002c03be00e00f5200e08f5a00e00f5b0003
:101ca000e08f5b008b0034000d00e000e5ff3c009e
:101cb000880037002c60900081c6b300814f50002f
:101cc0000b00320006003c000004e0000800320077
:101cd000e6c05000814f50004e003a00040037002b
:101ce000c1c6b300814f50004a003a0021003700be
:101cf0000800e00004003a005c0890008d0120001c
:101d00000000e00006003200050009000e84d80043
:101d10000fb99700e2c07800f1ef9f007d0120002d
:101d2000050009000e84d8000a00370005000900ec
:101d30000e04d8008d06e9000e81b900020454009b
:101d40008fb8970061417c0081fd2f008f8040009b
:101d500082f07e00000478000800e00002003200fb
:101d60000d00e000f1ff3c00cfc4de00614db90082
:101d700025003700e00f5400e08f5c0004003a00bb
:101d80005c0890008d0120000000e0000700320098
:101d90006171b9000800be00480107008fb99700c3
:101da000e3417800f3ef9f007d0120006171b900ed
:101db0000800be00e1fa07000b0037006171b900ae
:101dc0000800be00cefa07008d06e90000f1b90058
:101dd000020454000fba9700e4427c0084fd2f00f7
:101de0000f02420005f27e000004be00e00f50002a
:101df000e08f5800020032000d00e000efff3c00d1
:101e00004fcdde008a057800089ebe000a96be000f
:101e100030003700e00f5400e08f5c00e00f5d0001
:101e2000e08f5d0004003a005c0890008d01200006
:101e30000000e000090032006172b900612bb900b6
:101e40000800be000a01be00c50107000fba9700d6
:101e500064427800f4ef9f007d0120006172b900b8
:101e6000612bb9000800be000a01be00b5010700e1
:101e70000d0037006172b900612bb9000800be0087
:101e80000a01be00ba0107008d06e90000f2b900a0
:101e9000040454008fba970065427c0085fd2f0032
:101ea0008f82420084f27e00009ebe000296be0039
:101eb0003c04be002c05be00e00f5400e08f5c0027
:101ec000e00f5d00e08f5d00020034000d00e000d7
:101ed000e8ff3c00e80f570010003a000c1090009b
:101ee0000038a3000d003200f78f560006003e00b8
:101ef00085fd2f008f824200e5c07e0000c3b30045
:101f000080cf5000050032008d06e90002c3b30007
:101f100081fd2f008f80400082f07e0078811600c6
:101f2000120e98006c00900083fd2f008f814100fd
:101f30008d80410045fb07001c089000dc089000e4
:101f4000810f500006003d0000805000000e9800f8
:101f50000c1090000040a100001698000f00370000
:101f60000100e0000d003d008c109000f480600046
:101f7000f08f500009003a007c099000fc009000ae
:101f8000810051000c0990008280500000805000b8
:101f90004240a90001003400000e98004f0778006d
:101fa0004f06be004f05be004f04be00cf01b1007a
:101fb000000006000400fa00889fbe008a9fbe0051
:101fc0008c1f78000004780001067800f80d90005e
:101fd00078009000808555000808900080855500a5
:101fe00018089000808555002808900080855500cd
:101ff000380890008085550048089000808555007d
:102000000002220090bf9f0000032300a0bf9f009a
:10201000081090000028a30015003a000b00e00013
:10202000130034000b0578008a047800e20f550095
:102030000100360029002000c80190000901780045
:10204000ee805700580090000300010050049800f3
:102050000000e0008c003200680890000900400099
:10206000600c9800090555004240a900eeff3c00b5
:10207000780190000200e0000c003400c8019000dc
:102080008c00780058009000030001005004980074
:102090008080eb000000e0007c003200e808900047
:1020a0007800900000804000600c9800880c900040
:1020b0000900e0001100340009057800e28f5400a7
:1020c000010036002a002000c80190000a017800b3
:1020d000ec80570058009000030001005004980065
:1020e0000000e00068003200680890000a0040002c
:1020f000600c98008a845400edff370018099000a6
:102100000200e0000c003400c8019000e8009000dc
:102110005800900003000100500498008080eb00fc
:102120000000e00059003200e80890001808900014
:1021300000804000600c9800a80c90000900e000ae
:102140001100340009057800e28f540001003600c8
:102150002a002000c80190000a017800ec80570096
:102160005800900003000100500498000000e000b7
:1021700045003200680890000a004000600c98009a
:102180008a845400edff3700380990000200e00017
:102190000e003400e8009000180890008080400095
:1021a000c8019000580090000300010050049800fe
:1021b0008080eb000000e00034003200e80890006e
:1021c0003808900000804000600c9800c80c900017
:1021d0000900e0001100340009057800e28f540086
:1021e000010036002a002000c80190000a01780092
:1021f000ec80570058009000030001005004980044
:102200000000e00020003200680890000a00400052
:10221000600c98008a845400edff3700081090008d
:102220008000eb000028a300180032000b00e00043
:10223000160034008b04780009057800e28f540002
:10224000010036002a002000c80190000a01780031
:10225000ee805700580090000300010050049800e1
:102260000000e00008003200680890000a0040000a
:10227000600c98008a8454004240a900eeff3c00a4
:102280008000eb00010037008080eb000100780047
:102290004f0678004f05be004f04be000080fa00d4
:1022a00000000600010878000000060000c0da0007
:1022b0000000060000c0da00000006009ff90700d9
:1022c0000400be0000000600020ab900001bb900ad
:1022d0000200b800810042008100430000000600b7
:1022e000889fbe008a9fbe0030044200b0844a002e
:1022f00030054b0090854b006000b1000898be008f
:102300000a90be000440e10005c8e10006d0e100eb
:1023100007d8e10002003100680040001008e80022
:102320004f05be004f04be0000000600889fbe009f
:102330008a9fbe003004be002005be000418540071
:1023400005985c0006185d0007985d0011002000ec
:102350000440e10005c8e10006d0e10007d8e10033
:10236000010039008000eb00108810004f05be000e
:102370004f04be00000006001200fa00889fbe0055
:102380008a9fbe008c9fbe00e0b79f00f1b79f0000
:1023900082bf9f0093bf9f000605be000404be00dd
:1023a0000000eb00d0b79f00c0b79f00b0b79f0000
:1023b000a0b79f0090b79f000006eb005fb19700a9
:1023c000cfb09700820141003fb097000200e000cb
:1023d00004003d00370007007e805700c0ff070063
:1023e00003003700330007007e805700cfff07004f
:1023f000dfb697000d00e0000c0035006fb29700cb
:10240000ffb297000fbb97009fbb97001000200002
:10241000010020006011b800000272008182720089
:1024200002037300838373001b0007000c06e8009f
:1024300001042000810f5600e0ff3a000d00e0008b
:1024400004003d000802be000a03be007e80570063
:10245000a3ff07005fa897000000e00005003a0016
:102460001fb29700afb297003fb39700cfb397006a
:10247000090007006fb09700ffb097000fb99700f1
:102480009fb997004f06be004f05be004f04be0027
:102490000080fa00000006000100070000000600ae
:1024a000a4b79f00b5b79f00c6b79f00d7b79f00de
:1024b000000006004f09de0082817100b3b79f0063
:1024c0004f01de008180400082807000a1b79f0034
:1024d0008fb097004f09de0000004000020070003e
:1024e00090b79f007fa897004f01de0081804000d9
:1024f0008280700081b79f000d0007004f3ade0018
:102500000000400004007000f0af9f0008000700ca
:102510000402420085824a0006034b0087834b0079
:10252000dfff07000802be000a03be00000006002d
:102530002fb29700bfb297004fb39700dfb3970059
:1025400000000600881f780018002000881f78000f
:1025500089ff07008f87e9004f047800000006001c
:10256000801feb0084ff07008f87e9000000060052
:10257000889fbe008a9fbe00e00f5000e08f580089
:10258000e00f5900e08f59000c003d006044b80096
:102590006055b8000000540081805c0002015d00bd
:1025a00083815d00180020001500070008003d0031
:1025b000180007000004eb00050037000004eb00e2
:1025c0000f00070002003d00120007001800200065
:1025d000dcff07000800e000060032006022b800bf
:1025e0006033b8000000520081805a0002015b0095
:1025f00083815b004f05be004f04be000000060053
:10260000e00f5200e08f5a00e00f5b00e08f5b00ac
:10261000000006006044b8006055b8000402540091
:1026200085825c0006035d0087835d000000060074
:10263000889fbe008a9fbe008c1f7800e00f50006c
:10264000e08f5800e00f5900e08f59000d003d0069
:102650006044b8006055b8000000540081805c0000
:1026600002015d0083815d001c0020000820e10064
:1026700009a8e1000ab0e1000bb8e1000d003d003f
:10268000080037000006eb00e00f5200e08f5a0010
:10269000e00f5b00e08f5b0006003d006044b80087
:1026a0006055b8000402540085825c0006035d009a
:1026b00087835d00aaff07000c00e00006003200df
:1026c0006022b8006033b8000000520081805a00d8
:1026d00002015b0083815b004f0678004f05be005e
:0826e0004f04be0000000600db
:020000040000fa
:1026e8001b5b0000324a0000001b00005b3000004a
:1026f8003b300000660000001b5b00003f3200001a
:10270800356c0000002d00002d2d00002d2d00003f
:102718002d2d00002d2d00002d2d00002d2d000049
:102728002d2d00002d2d00002d2d00002d2d000039
:102738002d2d00002d2d00002d2d00002d2d000029
:102748002d2d00002d2d00002d2d00002d2d000019
:102758002d2d00002d2d00002d2d00002d2d000009
:102768002d2d00002d2d00002d2d00002d2d0000f9
:102778002d2d00002d2d00002d2d00002d2d0000e9
:102788002d2d00002d2d00002d0d0000004700000c
:10279800726f00007570000020430000363a000098
:1027a800204400006562000075670000676900004a
:1027b8006e0d0000000d0000001b00005b360000dd
:1027c8003b300000660000004461000074610000b6
:1027d80020720000656300006965000076650000ee
:1027e80064200000667200006f6d00002073000016
:1027f8006c610000766500003a2000002537000073
:10280800750d00000a00000045780000746500009e
:10281800726e0000616c0000204900006e740000b8
:10282800657200007275000070740000204300009b
:102838006f7500006e7400003a2000002537000014
:10284800750d00000a000000576900006e64000062
:1028580020530000656e0000736f0000723a00009c
:1028680020250000377500000d0a0000005a0000fe
:10287800657200006f3a00002025000037750000df
:082888000d0a00000000000031
:020000040000fa
:1028900000000000ca0000001f0000000002040049
:1028a00000000000fa0200000c0300001c030000fe
:1028b00002030000140300002c03000024030000a6
:1028c0002c0300002c0300002c0300002c0300004c
:1028d0002c0300002c0300002c0300002c0300003c
:1028e0002c0300002c0300002c0300002c0300002c
:1028f0002c0300002c0300002c0300002c0300001c
:102bb0002c0300002c0300002c0300000000fe008a
:102bc0000000fe0000020000000200001f000000e4
:102bd0006f0521000eff21000e018800000000009b
:102be000000020000000e000020032000001200090
:102bf00020028800140007008d0007000000e0009c
:102c000003003a00c05a21000100200002003700f2
:102c10000000200001002000810f70000100320040
:102c20000f000700000020000000e000020032005a
:102c300000000200000000007e13020000000000ff
:102c40000040da000000fe00200020000000e0004c
:102c500002003200100020009001880000000600f1
:102c6000a1028800800478000000eb001f003700fc
:102c7000e284440054a0b4009905ba00e284440000
:102c800054a0b4009906ba00e284440054a0b400f1
:102c90000006eb00476fde00fd07b200ae018800c2
:102ca000636ce10003003a000ad801000000eb0069
:102cb0000e003700606ce10008003a00004deb00a8
:102cc0000a05e800020039003420ec000af0a000f8
:102cd0008b05e900f9ff3e00040037006168e10060
:102ce000010032000086eb000b00070019c7ba0094
:102cf0001905ba000e04e00003003a000a00e000e3
:102d0000dbff3a0000000600fe07b200ae028800ba
:102d10008a047800f5ff37000cd0a300e20f4d00c5
:102d20001c00390089027800354dba000a05e80018
:102d3000020039003420ec000af0a0008b05e90005
:102d40000f003200254dba000a05e80002003900e4
:102d50003420ec000af0a0008b05e90008003200e6
:102d60000c00e0000600320015cdba000a05e800ac
:102d7000020039003420ec000af0a0008b05e900c5
:102d80008984e80054a0b4000b00e000e2ff3a00a0
:102d9000000006009902ba00055d78008b05e90085
:102da000f7ff3200c82ade00055d78008b05e900d8
:102db000f3ff32000c00e000f1ff320019ddba0031
:102dc000eeff37003600f800c028a9000000eb0035
:102dd000770907003600f80079090700c048a90004
:102de00010002000720907003600f800c068a90032
:102df000200020006e0907003600f800c088a900f6
:102e0000300020006a0907003600f800c608a90053
:102e100070002000660907003600f800c408a90009
:102e2000b0002000620907000040da000000fe0048
:102e30000000050003f0a200889fbe008a9fbe002c
:102e40008c1f7800b1000700b80033006450e10027
:102e50004f0032006420e1005200320003826c0017
:102e600007003b000905d0000306d000820f540084
:102e70000c065d0002003900020032008901780072
:102e8000030678008582550004003d000003fd0024
:102e90008103fd008502ea008b854200840f7200e9
:102ea00002003b0060001000e08018006011b800d4
:102eb0000005eb007a28e1000a00390006007800de
:102ec000c75ddd00f707b200878075002d00370071
:102ed000828171000a017800610560008180d10063
:102ee0000080d3008502e900f9ff3b0006044000a2
:102ef0008784480002003b0060041400e0841c004a
:102f00000988a300070032008a8171008281710064
:102f1000610164008904d1000884d3008b05e800b6
:102f2000170037000978a30013003a000b00e000f7
:102f3000130034008b05e9000804440089844c0028
:102f40000a4474000978a3000d003a000b00e00069
:102f5000070034008b05e9000804440089844c0014
:102f600001003a000b0020000978a300f7ff3200af
:102f70000001eb0002003700828171000a01780035
:102f8000270007000cf0a70001f0a0007000370038
:102f90006420e10002003a00838f6c00700033006f
:102fa0000801be000200be00690037000001be003b
:102fb000410007000470a70003f0a10003f8a3007c
:102fc00013003a006509b100100032000900350015
:102fd0006928e1000200350001002800000005001a
:102fe00000004000818048008502e900fcff3a00b3
:102ff00000000600f88f4200050035008100d10076
:103000000080d3008502e800fcff3a0000000600c3
:103010008000eb00000005006011b8009700370049
:1030200081002000618055000b003d000b00200056
:1030300061fe2f000100e1001d003400828171005b
:10304000610164008904d1000884d3000000e80015
:10305000faff3a0071002000610064000300700074
:10306000020060000900320061044400e0844c006a
:103070000988a500050032008b05e8006808e1001a
:1030800002003a008904d1000884d300f20f200026
:103090000258e10005003d00c75ddd00f907b20000
:1030a0008980750008007800000006000bf82700f2
:1030b0008b00780000000500c70ade00f107b200af
:1030c000f50fb20008003200e1cf420002003200ea
:1030d0000170a00024000500810f70000100320083
:1030e0000408050044000500810f700002003a004a
:1030f000140005008502e9000000400081c048007e
:10310000fcff3b000170a000240005000004be008d
:10311000e9ff07000003be000405be000200be0078
:10312000e5ff0700844f7500000006000200be00a6
:103130006450e100050036006420e1000200360022
:103140000968a30001003a000800be000160a00069
:103150004f0678004f05be004f04be000000060079
:10316000f0ff2f00f1ff2700f9ff3700889fbe0016
:103170008a9fbe008c1f7800e4ff0700ebff33003e
:1031800003866c006450e100240032006420e100fa
:10319000270032006150e100220032006120e1008e
:1031a000210032008b854200eb07b1000134b800ea
:1031b000003ab8000804420089844a00013ab80085
:1031c0000030b8008880400009014a000400330044
:1031d0000000400081804800020149008b05e900a1
:1031e000c909dd00830170000100320013002000d6
:1031f000c814de004814dd004709de001200b200ea
:10320000c808de000884700085ff070001f0a100f7
:103210000cf0a70001f0a000cdff37006120e10015
:10322000cfff32000801be000200be00f7ff3700ea
:103230006150e100fcff3a00c9ff37006022b8008e
:10324000060220000000d0008180d2000482d2005b
:103250008582d2000000a0000202520083825a0040
:10326000030031000202420083824a000000a100f4
:103270000603e900f3ff3a0000000600889fbe0045
:103280008a9fbe00008270000402710004827100f7
:10329000260032000004be000200be006011b8002b
:1032a0006b092000950220000182cf000a0039003e
:1032b0000541b1000082cf00070039000541b1008f
:1032c0000982cf00040039000541b1000882cf0017
:1032d000010039000541b1000542520012003200e0
:1032e0000a003b0082817100610164008100d1000d
:1032f0000080d3008984d3000884d3008b05e800c4
:103300000442e800f7ff3a000700370008044400d1
:1033100089844c0000004800818048008b05e9004a
:103320000442e900f9ff3a003dff07004f05be00e7
:103330004f04be00000006000000fa000023ef006a
:103340000223ef000423ef000623ef000823ef0021
:1033500000012000501888000c23ef000e23ef001e
:103360001023ef001223ef001423ef001623ef00c9
:103370001823ef001a23ef001c23ef001e23ef0099
:103380002023ef002223ef002423ef002623ef0069
:103390002823ef002c23ef006223ef009823ef0097
:1033a000ce23ef000424ef003a24ef007024ef0056
:1033b000a624ef002e23ef006423ef009a23ef00f2
:1033c000d023ef000624ef003c24ef007224ef002e
:1033d00000060000000200001f000000a824ef000b
:1033e0003023ef006623ef009c23ef00d223ef0091
:1033f0000824ef003e24ef007424ef00aa24ef001d
:10340000c000200090198800c0002000401b8800e8
:1034100040002000f01c8800c0002000a01e880092
:10342000c000200050208800c0002000002288003a
:10343000c0002000b02388004000200060258800e4
:103440003423ef006a23ef00a023ef00d623ef0020
:103450000c24ef004224ef007824ef00ae24ef00ac
:103460003623ef006c23ef00a223ef00d823ef00f8
:103470000e24ef004424ef007a24ef00b024ef0084
:103480003823ef006e23ef00a423ef00da23ef00d0
:103490001024ef004624ef007c24ef00b224ef005c
:1034a0003a23ef007023ef00a623ef00dc23ef00a8
:1034b0001224ef004824ef007e24ef00b424ef0034
:1034c0003c23ef007223ef00a823ef00de23ef0080
:1034d0001424ef004a24ef008024ef00b624ef000c
:1034e0003e23ef007423ef00aa23ef00e023ef0058
:1034f0001624ef004c24ef008224ef00b824ef00e4
:103500004023ef007623ef00ac23ef00e223ef002f
:103510001824ef004e24ef008424ef00ba24ef00bb
:103520004223ef007823ef00ae23ef00e423ef0007
:103530001a24ef005024ef008624ef00bc24ef0093
:103540004423ef007a23ef00b023ef00e623ef00df
:103550001c24ef005224ef008824ef00be24ef006b
:103560004623ef007c23ef00b223ef00e823ef00b7
:103570001e24ef005424ef008a24ef00c024ef0043
:103580004823ef007e23ef00b423ef00ea23ef008f
:103590002024ef005624ef008c24ef00c224ef001b
:1035a0004a23ef008023ef00b623ef00ec23ef0067
:1035b0002224ef005824ef008e24ef00c424ef00f3
:1035c0004c23ef008223ef00b823ef00ee23ef003f
:1035d0002424ef005a24ef009024ef00c624ef00cb
:1035e000f0ff2700701a88008423ef00ba23ef0051
:1035f000f023ef00f0ff2700302188005c24ef006b
:103600009224ef00c824ef005023ef008623ef0040
:10361000bc23ef00f223ef002824ef005e24ef002c
:103620009424ef00ca24ef00f0092000901a8800cb
:1036300000012000401c880000012000f01d8800cf
:1036400000012000a01f8800f00920005021880000
:10365000000120000023880000012000b024880021
:1036600000012000602688005423ef008a23ef0029
:10367000c023ef00f623ef002c24ef006224ef00bc
:103680009824ef00ce24ef005623ef008c23ef00a8
:10369000c223ef00f823ef002e24ef006424ef0094
:1036a0009a24ef00d024ef005823ef008e23ef0080
:1036b000c423ef00fa23ef003024ef006624ef006c
:1036c0009c24ef00d224ef005a23ef009023ef0058
:1036d000c623ef00fc23ef003224ef006824ef0044
:1036e0009e24ef00d424ef005c23ef009223ef0030
:1036f000c823ef00fe23ef003424ef006a24ef001c
:10370000a024ef00d624ef00800028005019880084
:1037100080002800001b880080002800b01c880062
:1037200080002800601e880080002800102088008b
:1037300080002800c02188008000280070238800b5
:1037400080002800202588000080fa000000060084
:103750000000fa000080fa00000006000000fa00f5
:1037600040408000680060000000e000020032007d
:10377000f7ff07000868a9000080fa0000000600b3
:103780000000fa000080fa00000006000000fa00c5
:1037900040408000700060000000e0000200320045
:1037a000f7ff07000888a9000080fa000000060063
:1037b0000000fa000080fa00000006000000fa0095
:1037c0004140800000022000008060000000e00016
:1037d00002003200f6ff070008a8a9000080fa00e6
:1037e000000006000000fa000080fa000000060059
:1037f0000000fa00414080000004200000806000ca
:103800000000e00002003200f6ff070008c8a9002f
:103810000080fa00000006000000fa000080fa00b4
:10382000000006000000fa0041408000000820006f
:10383000008060000000e00002003200f6ff070098
:1038400008e8a9000080fa00000006000000fa0065
:103850000080fa00000006000000fa0041408000ed
:1038600000102000008060000000e0000200320034
:10387000f6ff07000908a9000080fa000000060012
:103880000000fa000080fa00000006000000fa00c4
:103890004140800000202000008060000000e00027
:1038a00002003200f6ff07000928a9000080fa0094
:1038b000000006000000fa000080fa000000060088
:1038c0000000fa00414080000040200000806000bd
:1038d0000000e00002003200f6ff07000948a900de
:1038e0000080fa00000006000000fa000080fa00e4
:1038f000000006000000fa00a14080000020200027
:10390000008060000000e00002003200f6ff0700c7
:103910001528a9000080fa00000006000000fa0047
:103920000080fa00000006000000fa00a1408000bc
:1039300000402000008060000000e0000200320033
:10394000f6ff07001548a9000080fa0000000600f5
:103950000000fa000080fa00000006000000fa00f3
:10396000a140800000802000008060000000e00096
:1039700002003200f6ff07001568a9000080fa0077
:10398000000006000000fa000080fa0000000600b7
:103990000000fa00a14080000000210000806000cb
:1039a0000000e00002003200f6ff07001588a900c1
:1039b0000080fa00000006000000fa000080fa0013
:1039c000000006000000fa00a14080000000220074
:1039d000008060000000e00002003200f6ff0700f7
:1039e00015a8a9000080fa00000006000000fa00f7
:1039f0000080fa00000006000000fa00a1408000ec
:103a000000002400008060000000e000020032009e
:103a1000f6ff070015c8a9000080fa0000000600a4
:103a20000200fa00000f78001e007800e40f50003a
:103a300018003200e40f500007003e00e20f500073
:103a400010003200e20f500010003e00e10f500065
:103a50000a00320019003700e60f50001100320052
:103a6000e60f50000d003900e70f50000f00320044
:103a7000e80f50000f003200100037002be3a900c0
:103a80000e00370061e3a9000c00370097e3a9009e
:103a90000a003700cde3a9000800370003e4a900bd
:103aa0000600370039e4a900040037006fe4a900dc
:103ab00002003700a5e4a900000000000080fa0021
:103ac000000006000400fa00000f780011079800bb
:103ad0001e007800e40f50001b003200e40f50007d
:103ae00007003e00e20f500011003200e20f5000cc
:103af00012003e00e10f50000a00320021003700a2
:103b0000e60f500016003200e60f50001100390099
:103b1000e70f500015003200e80f50001600320089
:103b2000180037009e009000711a880015003700b9
:103b30009e009000211c8800120037009e0090001b
:103b4000d11d88000f0037009e009000811f880063
:103b50000c0037009e0090003121880009003700da
:103b60009e009000e1228800060037009e00900031
:103b700091248800030037009e00900041268800b1
:103b8000000000000080fa00000006000400fa00b7
:103b9000000f7800110798001e007800e40f500015
:103ba0001b003200e40f500007003e00e20f5000ff
:103bb00011003200e20f500012003e00e10f5000f1
:103bc0000a00320021003700e60f500016003200d4
:103bd000e60f500011003900e70f5000000a000006
:103be000000200001f00000015003200e80f500026
:103bf00016003200180037009e009000911a8800cd
:103c0000150037009e009000411c8800120037000c
:103c10009e009000f11d88000f0037009e0090006c
:103c2000a11f88000c0037009e00900051218800e1
:103c3000090037009e00900001238800060037002d
:103c40009e009000b1248800030037009e00900081
:103c500061268800000000000080fa0000000600d5
:103c60000400fa00000f7800110798001e00780089
:103c7000e40f50001b003200e40f500007003e002c
:103c8000e20f500011003200e20f500012003e001f
:103c9000e10f50000a00320021003700e60f50000b
:103ca00016003200e60f500011003900e70f5000f7
:103cb00015003200e80f50001600320018003700df
:103cc0009e009000611a8800150037009e00900049
:103cd000111c8800120037009e009000c11d880052
:103ce0000f0037009e009000711f88000c00370005
:103cf0009e00900021218800090037009e0090005e
:103d0000d1228800060037009e00900081248800a0
:103d1000030037009e00900031268800000000005c
:103d20000080fa00000006000800fa00000f78008a
:103d30001107980022079800330798001e007800aa
:103d4000e40f500042003200e40f500007003e0034
:103d5000e20f50001e003200e20f50002c003e0027
:103d6000e10f50000a00320089003700e60f5000d2
:103d700057003200e60f500045003900e70f5000b1
:103d800063003200e80f50007100320080003700fd
:103d90001e00780025ff07002de3a9002dc3a90010
:103da0002da3a9009e0090001e00780048ff070088
:103db000be0090001e00780077ff0700ae00900064
:103dc0001e007800a6ff070010c0b3007100370086
:103dd0001e00780015ff070063e3a90063c3a90074
:103de00063a3a9009e0090001e00780038ff070022
:103df000be0090001e00780067ff0700ae00900034
:103e00001e00780096ff070010c0b3006100370065
:103e10001e00780005ff070099e3a90099c3a900d7
:103e200099a3a9009e0090001e00780028ff0700bb
:103e3000be0090001e00780057ff0700ae00900003
:103e40001e00780086ff070010c0b3005100370045
:103e50001e007800f5fe0700cfe3a900cfc3a9003c
:103e6000cfa3a9009e0090001e00780018ff070055
:103e7000be0090001e00780047ff0700ae009000d3
:103e80001e00780076ff070010c0b3004100370025
:103e90001e007800e5fe070005e4a90005c4a9009e
:103ea00005a4a9009e0090001e00780008ff0700ee
:103eb000be0090001e00780037ff0700ae009000a3
:103ec0001e00780066ff070010c0b3003100370005
:103ed0001e007800d5fe07003be4a9003bc4a90002
:103ee0003ba4a9009e0090001e007800f8fe070089
:103ef000be0090001e00780027ff0700ae00900073
:103f00001e00780056ff070010c0b30021003700e4
:103f10001e007800c5fe070071e4a90071c4a90065
:103f200071a4a9009e0090001e007800e8fe070022
:103f3000be0090001e00780017ff0700ae00900042
:103f40001e00780046ff070010c0b30011003700c4
:103f50001e007800b5fe0700a7e4a900a7c4a900c9
:103f6000a7a4a9009e0090001e007800d8fe0700bc
:103f7000be0090001e00780007ff0700ae00900012
:103f80001e00780036ff070010c0b30001003700a4
:103f90000040eb000080fa00000006000200fa007a
:103fa000000f78001e007800e40f5000210032005e
:103fb000e40f500007003e00e20f500013003200f3
:103fc000e20f500016003e00e10f50000a003200e0
:103fd00031003700e60f500020003200e60f50009d
:103fe00019003900e70f500021003200e80f50009f
:103ff00024003200280037002100200043210a005d
:104000002a03000010c0b300240037002100200064
:1040100043210a006003000010c0b3001f003700f6
:104020002100200043210a009603000010c0b300c5
:104030001a0037002100200043210a00cc030000b1
:1040400010c0b300150037002100200043210a00f2
:104050000204000010c0b30010003700210020004f
:1040600043210a003804000010c0b3000b003700e1
:104070002100200043210a006e04000010c0b3009c
:10408000060037002100200043210a00a40400009c
:1040900010c0b300010037000040eb000080fa00c0
:1040a000000006000200fa00000f78001e007800f1
:1040b00000407800634060000000780054200a004f
:1040c000000300000080fa00000006000200fa0071
:1040d000000f78001e007800e40f50001800320036
:1040e000e40f500007003e00e20f500010003200c5
:1040f000e20f500010003e00e10f50000a003200b5
:1041000019003700e60f500011003200e60f500092
:104110000d003900e70f50000f003200e80f50008b
:104120000f003200100037002be3a8000e0037000c
:1041300061e3a8000c00370097e3a8000a003700ed
:10414000cde3a8000800370003e4a800060037000c
:1041500039e4a800040037006fe4a800020037002b
:10416000a5e4a800000000000080fa00000006009e
:104170000200fa00000f78001e007800e40f5000e3
:1041800018003200e40f500007003e00e20f50001c
:1041900010003200e20f500010003e00e10f50000e
:1041a0000a00320019003700e60f500011003200fb
:1041b000e60f50000d003900e70f50000f003200ed
:1041c000e80f50000f003200100037002be3a90069
:1041d0000e00370061e3a9000c00370097e3a90047
:1041e0000a003700cde3a9000800370003e4a90066
:1041f0000600370039e4a900040037006fe4a90085
:1042000002003700a5e4a900000000000080fa00c9
:10421000000006000400fa00000f78001107980063
:104220001e007800e40f50001b003200e40f500025
:1042300007003e00e20f500011003200e20f500074
:1042400012003e00e10f50000a003200210037004a
:10425000e60f500016003200e60f50001100390042
:10426000e70f500015003200e80f50001600320032
:10427000180037009e009000711a88001500370062
:104280009e009000211c8800120037009e009000c4
:10429000d11d88000f0037009e009000811f88000c
:1042a0000c0037009e009000312188000900370083
:1042b0009e009000e1228800060037009e009000da
:1042c00091248800030037009e009000412688005a
:1042d000000000000080fa00000006000000fa0064
:1042e0000830ef000a30ef002430ef000200210018
:1042f0006000b8000089be00020021006000b80024
:1043000020019800310198005000200098ff07001c
:104310008000eb0054210a00000300008000eb0045
:1043200010210a00000300001100200043210a00b0
:1043300002040000f3ff27000001eb008000eb0007
:104340005000200078fe07000080fa000000060000
:104350000600fa0081022000c0002000380107009a
:10436000d1cc2c000100b8004308de00408088005a
:1043700081022000b000200031010700c200de00f1
:10438000b04721000008b8000100d100208188005a
:1043900041808000208180000088b9000000780002
:1043a0008000eb00020021000089be000000210017
:1043b0001001be0000002100b0009000200090001d
:1043c0000000510081805900008fbe001e00be0019
:1043d000e00f5000e08f58000c0034004180800056
:1043e00050808000808f5000000e0000000200000e
:1043f0001f000000040036008d000700b000200000
:10440000200798000f0037009f0007006001200080
:10441000200798000b00370041808000508080000a
:10442000808f500004003600970007001002200023
:1044300020079800030037007d000700c00220001d
:1044400020079800408080005080880000002100f4
:104450001000be00020021002001980031019800e8
:10446000000021001000be00000078000080fa006b
:10447000000006000000fa000000200001002400f7
:1044800060808800718088000000200001f82b0007
:1044900080808800918088006000b800a08088003b
:1044a000b18088006000b800c0808800d18088009a
:1044b0006000b800e0808800f18088006000b800eb
:1044c00000818800118188000080fa000000060049
:1044d0000000fa00500020000080fa0000000600f2
:1044e0000400fa00889fbe0090828000800078005f
:1044f00030218000008050008000eb00cffa0700e0
:10450000c0808800d1808800a4808000b5808000b1
:1045100000818000118180000001be000400be0007
:104520001bfb07000004be00848080009580800093
:10453000e0808000f18080000001be000400be0029
:1045400013fb07000001be000800be0043fa07008d
:104550000004be006480800075808000c080800000
:10456000d18080000001be000400be0008fb0700ef
:104570000001be000800be0038fa07000002be00bd
:1045800030818000418180000001be000400be0037
:1045900032fa07003081880041818800e280800083
:1045a000f3808000028fbe00c0808000d180800038
:1045b000e0808800f18088001e01be000281880032
:1045c00013818800308180004181800080fa0700db
:1045d000000078004f04be000080fa0000000600d2
:1045e0000000fa00a8022100ca02210072818000a6
:1045f00093828000028d51004604c7004684c000ab
:104600001e84c0008083cd00050d7800eaba9700b3
:104610000525780035818800308180004181800047
:104620006bfa0700000078000080fa000000060026
:104630000200fa0050002000d0fe07003121800067
:10464000010f7800a2ff07009e00400040ff2700f6
:10465000808f50000300360050ff2700000f7800c5
:10466000020037009aff07001e0f40009e007800ee
:1046700050002000eafe07005000200096fe0700d0
:104680000080fa00000006000200fa00500020003e
:10469000bafe070031218000010f78008cff07006f
:1046a0001e0010009e0f5000030039000000eb00b8
:1046b000000f78000200370085ff07001e0f100072
:1046c0009e00780050002000d5fe0700500020001a
:1046d00081fe07000080fa00000006000400fa00d6
:1046e000100798001e009000ea0f50000d003200e5
:1046f000ea0f500005003e00e30f50000b003200af
:10470000e80f50000b00320004003700eb0f5000a0
:104710000a003200ec0f50000a00320000c0eb002b
:1047200016003700000000000700370000000000fe
:104730000500370000000000030037000000000003
:1047400001003700000000001e0090000d0007006f
:10475000d1cc2c000100b8004308de00004f7800e7
:1047600040c6b3009e40780080cf50000200360063
:1047700040c6b300004f78001e4078000080fa0069
:10478000000006000200fa00000f78001e0078000a
:10479000030007004200de000080fa00000006006f
:1047a0000600fa00200798002e009000000040004c
:1047b00080007800c0c02000008f40004158800079
:1047c00000e02f00808060002e009000010070004b
:1047d00040588800090ba8002e009000ef0f5000f1
:1047e0000b003e002e009000110020000008dd00ac
:1047f0001007980000000000815980001e00900002
:10480000008060000000e000fbff32000b0037007a
:104810002e00900070005000110020000008dd0004
:104820001007980000000000915980001e009000c1
:10483000008060000000e000fbff32001e007800f6
:10484000100078000080fa00000006000a00fa005c
:1048500030079800410798006000b800008fbe0044
:104860000000eb0020079800080037003e00900091
:10487000cbff07008000eb001e0f40005e97480052
:104880002e0090000000e80020079800ae00900085
:104890004e009000808f5000f4ff39002e009000f1
:1048a0000000e0000c0032002e0090000000d1005b
:1048b0008000eb003e024000ae8248002e009000d7
:1048c0008000eb000001be000400be0064fa070097
:1048d00000007800010037000000eb000080fa00c3
:1048e000000006000200fa00000f78001e007800a9
:1048f000ea0f500014003200ea0f500005003e009d
:10490000e30f50000a003200e80f50000b003200a5
:1049100013003700eb0f50000e003200ec0f500078
:104920000f003a0038eea80010c0b3000d003700a9
:104930001c4ea80010c0b3000a003700386ea80053
:1049400010c0b30007003700380ea80010c0b30035
:104950000400370038cea80010c0b30001003700b3
:104960000040eb000080fa00000006000200fa00a0
:10497000000f78001e0078000000e00016003a00ea
:10498000002bef000006200010588800042bef00d9
:104990000003200030588800082bef00000820009a
:1049a00050588800000820000060880000f02000b7
:1049b0001060880001eba80000000000016080008a
:1049c00000002800008060000000e000fbff3200d3
:1049d00010c0b300010037000040eb000080fa0077
:1049e000000006000000fa00d221ef000080fa006b
:1049f000000006000000fa00d321a8000080fa00a1
:104a0000000006000000fa0088a00a00d40100009f
:104a10000080fb0000f0a7000000ea000000ea00b0
:104a20004f00de00004078000080fa000000060021
:104a30000000fa00d321a9000080fa00000006005f
:104a40000000fa0099a00a00d40100000080fb00d9
:104a500000f0a7000000ea000000ea004f00de00be
:104a6000004078000080fa00000006000000fa0014
:104a7000d301a8000080fa00000006000000fa0040
:104a8000d301a9000080fa00000006000200fa002d
:104a900030002000000f7800a10e800000002800e8
:104aa000008060000000e0000300320040002000b1
:104ab000000f780015003700dca00a00d4010000c8
:104ac0000080fb00e10f500007003200e20f5000b1
:104ad000080032000000e00009003a000000eb008e
:104ae000000f78000900370020002000000f780038
:104af0000600370010002000000f78000300370088
:104b000030002000000f7800000000001e00780038
:104b10000080fa00000006000600fa001007980066
:104b2000210798000000eb00000f78000f0037000d
:104b3000d10f800000102000008060000000e00025
:104b40000e003a00f10f80001e009000010878006e
:104b50001e0090000080e800100798002e009000d2
:104b60000000e900200798001e0fe8002e009000ca
:104b70000000e000eeff3a000100370000000000f6
:104b80001e0078000080fa00000006000600fa000f
:104b900010079800210798000000eb00000f780034
:104ba0000e003700d00f8000620060000000e000bf
:104bb0000e003a001e00900010007800e00f880000
:104bc0001e0090000080e800100798002e00900062
:104bd0000000e900200798001e0fe8002e0090005a
:104be0000000e000efff3a00010037000000000085
:104bf0001e00780000120000000200001f000000ec
:104c00000080fa00000006000400fa001007980077
:104c10000040eb00004f78000d0007000004e000aa
:104c200006003200d10e80001e00900001087800be
:104c300010c0b300004f7800020037000040eb00c6
:104c4000004f78001e4078000080fa000000060047
:104c50000000fa0000a00a00d80100000080fb005c
:104c600000f0a7000000ea000000ea004f00de00ac
:104c7000004078000080fa00000006000400fa00fe
:104c8000100798000040eb00004f78000d0007006f
:104c90000004e000060032001e00900010007800c2
:104ca000e00e880010c0b300004f7800020037000b
:104cb0000040eb00004f78001e4078000080fa00b2
:104cc000000006000000fa00c00e800062006000d4
:104cd00000f0a7000000ea000000e9004f00de003d
:104ce000004078000080fa00000006000200fa0090
:104cf000000f78001e007800e40f5000180032000a
:104d0000e40f500007003e00e20f50001000320098
:104d1000e20f500010003e00e10f50000a00320088
:104d200019003700e60f500011003200e60f500066
:104d30000d003900e70f50000f003200e80f50005f
:104d40000f003200100037002be3a8000e003700e0
:104d500061e3a8000c00370097e3a8000a003700c1
:104d6000cde3a8000800370003e4a80006003700e0
:104d700039e4a800040037006fe4a80002003700ff
:104d8000a5e4a800000000000080fa000000060072
:104d90000200fa00000f78001e007800e40f5000b7
:104da00018003200e40f500007003e00e20f5000f0
:104db00010003200e20f500010003e00e10f5000e2
:104dc0000a00320019003700e60f500011003200cf
:104dd000e60f50000d003900e70f50000f003200c1
:104de000e80f50000f003200100037002be3a9003d
:104df0000e00370061e3a9000c00370097e3a9001b
:104e00000a003700cde3a9000800370003e4a90039
:104e10000600370039e4a900040037006fe4a90058
:104e200002003700a5e4a900000000000080fa009d
:104e3000000006000400fa00000f78001107980037
:104e40001e007800e40f50001b003200e40f5000f9
:104e500007003e00e20f500011003200e20f500048
:104e600012003e00e10f50000a003200210037001e
:104e7000e60f500016003200e60f50001100390016
:104e8000e70f500015003200e80f50001600320006
:104e9000180037009e009000711a88001500370036
:104ea0009e009000211c8800120037009e00900098
:104eb000d11d88000f0037009e009000811f8800e0
:104ec0000c0037009e009000312188000900370057
:104ed0009e009000e1228800060037009e009000ae
:104ee00091248800030037009e009000412688002e
:104ef000000000000080fa00000006000200fa0036
:104f00000a010700fbfc07005dfd07000000eb0045
:104f100099fe0700c000200075fe070080002000f9
:104f200073fe0700a000200071fe0700b000200003
:104f30006ffe07005000200095ff0700f1ff2300df
:104f400050002000bbff07005000200067ff070053
:104f500043a00a00020400000080fb00000f78005c
:104f60000e00780045ff0700a5fe0700a4fe07001d
:104f700000000000a6fe07000004a2000004e000fc
:104f8000fcff3a00adfe070000000000a0fe070095
:104f90000004e000fdff3a00edff37000000fa00da
:104fa000007c80000080fa00000006000200fa0089
:104fb000faff0700000f78001e00780024000700a9
:104fc0000004e00002003200000028007100070029
:104fd0001e0078002a0007000004e00002003200f2
:104fe000000024006b0007001e007800320007005c
:104ff0000004e000020032000020200065000700ed
:105000001e0078003a0007000004e00002003200b1
:10501000000820005f0007001e0078004200070023
:105020000004e000020032000004200059000700e4
:105030001e0078004a0007000004e0000200320071
:1050400000012000530007000080fa000000060065
:105050000400fa00100798000040eb00004f7800b1
:105060001e0090000000e00002003d0010c0b300f0
:10507000004f78001e4078000080fa000000060013
:105080000400fa00100798000040eb00004f780081
:105090009e00900000002400008060000000e000fe
:1050a0000200320010c0b300004f78001e407800ac
:1050b0000080fa00000006000400fa0010079800c3
:1050c0000040eb00004f78009e0090000020200080
:1050d000008060000000e0000200320010c0b30059
:1050e000004f78001e4078000080fa0000000600a3
:1050f0000400fa00100798000040eb00004f780011
:105100009e00900000082000008060000000e00089
:105110000200320010c0b300004f78001e4078003b
:105120000080fa00000006000400fa001007980052
:105130000040eb00004f78009e009000000420002b
:10514000008060000000e0000200320010c0b300e8
:10515000004f78001e4078000080fa000000060032
:105160000400fa00100798000040eb00004f7800a0
:105170001e009000700060000000e000020032009d
:1051800010c0b300004f78001e4078000080fa0085
:10519000000006000200fa00000f78009e80ea007e
:1051a000007c800000806000007c88000080fa00a5
:1051b000000006000000fa00802fef000080fa00d7
:1051c000000006000000fa00062eef00222eef007d
:1051d0003e2eef005a2eef00762eef00f001200059
:1051e00010708800f0f62b00f0708800f03c23006f
:1051f000d071880000f02f00b07288000080eb00b2
:10520000907388003aaea9000c2eef00282eef0014
:10521000442eef00602eef007c2eef000a2eef00f0
:10522000262eef00422eef005e2eef007a2eef00ca
:10523000082eef00242eef00402eef005c2eef0032
:10524000782eef00e001200000708800f0102000b0
:10525000e0708800f00e2000c071880000c02700b8
:10526000a072880000042000807388000080fa008b
:10527000000006000000fa0010002300307c8800c7
:1052800060092000407c880010042000507c8800c9
:1052900010102000707c880060092000807c88004d
:1052a00010042000907c8800b82fef00ba2fef0088
:1052b000002def00a42fef00a62fef00aa2fef0084
:1052c000ae2fef00b02fef00b22fef000001eb0088
:1052d000600420007105200043f820008049780018
:1052e00081497800824978000080fa0000000600b9
:1052f0000200fa00000f780021028000200f200039
:10530000008060001e007000200288000080fa000b
:10531000000006000000fa00c3e8a800000000003a
:10532000000000000080fa00000006000000fa0003
:10533000a4ff070035000700ceff0700acfd070003
:1053400009f80700f3ff070000022000e8ff07004c
:105350000080fa000000060050100000020000006b
:1053600080000000001000003000000080000000fd
:105370005210000002000000820000003100000016
:10538000541000000200000082000000ffff000037
:10539000301000002000000080000000000000002d
:1053a0000000fa00b3ff07000080fa0000000600ca
:1053b0000000fa00007c80000080fa000000060077
:1053c0000000fa00f9fe07000080fa000000060065
:1053d0000000fa0077ff07000080fa0000000600d6
:1053e000000f78009e007800a1828800ffff370040
:1053f0000000fa00000321008007780080042100eb
:10540000001600000a0000001f00000000018800d4
:105410000080fa00000006000000fa0011002000e1
:1054200020210a00400800000080fa000000060069
:0c5430000000fe00000000000000000072
:020000040000fa
:10543c000200fa00000f78001e007800e20f500006
:10544c000c003200e20f500003003e00e10f500050
:10545c00060032000d003700e30f50000700320049
:10546c00e40f500007003200080037002be3a800bf
:10547c000600370061e3a8000400370097e3a8009a
:10548c0002003700cde3a800000000000080fa0005
:10549c00000006000200fa00000f78001e007800e1
:1054ac00e20f50000c003200e20f500003003e00ef
:1054bc00e10f5000060032000d003700e30f5000e2
:1054cc0007003200e40f50000700320008003700dc
:1054dc002be3a9000600370061e3a90004003700a4
:1054ec0097e3a90002003700cde3a90000000000fb
:1054fc000080fa00000006000400fa000502070014
:10550c0010002000000f78001e007800d601070064
:10551c0000e22400100798001e0090004200de00fc
:10552c006300b900800078001e0090004200de008d
:10553c009e0190000101780080007800400020005e
:10554c004e01070040002000a10107001e00900042
:10555c004200de0000004000800078001e00900039
:10556c004200de009e01900001017800800078006e
:10557c00300020004101070030002000940107009a
:10558c001e009000c200de001e0090004200de00f3
:10559c009e0190000101780080007800200020001e
:1055ac003601070020002000890107001e00900032
:1055bc004200de009e0190000001eb0080007800ac
:1055cc00100020002d0107001000200080010700b2
:1055dc001000200096ff07002000200094ff070019
:1055ec003000200092ff07004000200090ff0700d1
:1055fc0087000700020007000080fa000000060088
:10560c000400fa00760ea8006000b800008fbe00ff
:10561c0007003700f2ff2f001200b100feff3a0026
:10562c0012002000030020001e0f41005e9749006d
:10563c001e01be009000200001002000800f5100d0
:10564c00818f5900f3ff3600760ea90081022000ed
:10565c00a0002000f5030700108088000080fa00ed
:10566c00000006000200fa0081022000a0002000c9
:10567c00ee030700000f780010808000b004b1002a
:10568c009e0f500006003e0010808000b004b00059
:10569c009e0f5000020039005d0007000e0037001d
:1056ac00108080009e007800808f50000200360031
:1056bc000c00070008003700108080009e00780066
:1056cc00808f5000020031001100070002003700eb
:1056dc000040eb000100370010c0b3000080fa005e
:1056ec00000006000000fa0000d0bf00704060000f
:1056fc000004e00002003a005900070002003700e5
:10570c000e000700560007000080fa00000006009b
:10571c000000fa0000d0bf00704060000004e00000
:10572c00020032004e0007000200370003000700a1
